{
  "contractName": "case1",
  "abi": [
    {
      "inputs": [],
      "stateMutability": "nonpayable",
      "type": "constructor"
    },
    {
      "anonymous": false,
      "inputs": [
        {
          "components": [
            {
              "internalType": "string",
              "name": "id",
              "type": "string"
            },
            {
              "internalType": "string",
              "name": "hasType",
              "type": "string"
            },
            {
              "internalType": "string",
              "name": "outcome",
              "type": "string"
            },
            {
              "components": [
                {
                  "internalType": "string",
                  "name": "id",
                  "type": "string"
                },
                {
                  "internalType": "string",
                  "name": "hasType",
                  "type": "string"
                },
                {
                  "components": [
                    {
                      "internalType": "string",
                      "name": "id",
                      "type": "string"
                    },
                    {
                      "internalType": "string",
                      "name": "hasType",
                      "type": "string"
                    },
                    {
                      "internalType": "string",
                      "name": "concept",
                      "type": "string"
                    },
                    {
                      "internalType": "bool",
                      "name": "exists",
                      "type": "bool"
                    }
                  ],
                  "internalType": "struct case1.Medication[]",
                  "name": "medication",
                  "type": "tuple[]"
                },
                {
                  "components": [
                    {
                      "internalType": "string",
                      "name": "id",
                      "type": "string"
                    },
                    {
                      "internalType": "string",
                      "name": "hasType",
                      "type": "string"
                    },
                    {
                      "internalType": "string",
                      "name": "status",
                      "type": "string"
                    },
                    {
                      "internalType": "int256",
                      "name": "code",
                      "type": "int256"
                    },
                    {
                      "internalType": "bool",
                      "name": "exists",
                      "type": "bool"
                    }
                  ],
                  "internalType": "struct case1.Procedure",
                  "name": "eligibleTransplant",
                  "type": "tuple"
                },
                {
                  "internalType": "bool",
                  "name": "exists",
                  "type": "bool"
                }
              ],
              "internalType": "struct case1.MedicationRequest",
              "name": "request",
              "type": "tuple"
            },
            {
              "components": [
                {
                  "internalType": "string",
                  "name": "id",
                  "type": "string"
                },
                {
                  "internalType": "string",
                  "name": "hasType",
                  "type": "string"
                },
                {
                  "components": [
                    {
                      "internalType": "string",
                      "name": "id",
                      "type": "string"
                    },
                    {
                      "internalType": "string",
                      "name": "hasType",
                      "type": "string"
                    },
                    {
                      "internalType": "bool",
                      "name": "exists",
                      "type": "bool"
                    }
                  ],
                  "internalType": "struct case1.Insurer",
                  "name": "insurer",
                  "type": "tuple"
                },
                {
                  "components": [
                    {
                      "internalType": "string",
                      "name": "id",
                      "type": "string"
                    },
                    {
                      "internalType": "string",
                      "name": "hasType",
                      "type": "string"
                    },
                    {
                      "internalType": "bool",
                      "name": "exists",
                      "type": "bool"
                    }
                  ],
                  "internalType": "struct case1.Class",
                  "name": "class",
                  "type": "tuple"
                },
                {
                  "internalType": "string",
                  "name": "status",
                  "type": "string"
                },
                {
                  "internalType": "bool",
                  "name": "exists",
                  "type": "bool"
                }
              ],
              "internalType": "struct case1.Coverage",
              "name": "covered",
              "type": "tuple"
            },
            {
              "components": [
                {
                  "internalType": "string",
                  "name": "id",
                  "type": "string"
                },
                {
                  "internalType": "string",
                  "name": "hasType",
                  "type": "string"
                },
                {
                  "components": [
                    {
                      "internalType": "string",
                      "name": "id",
                      "type": "string"
                    },
                    {
                      "internalType": "string",
                      "name": "hasType",
                      "type": "string"
                    },
                    {
                      "components": [
                        {
                          "internalType": "string",
                          "name": "id",
                          "type": "string"
                        },
                        {
                          "internalType": "string",
                          "name": "hasType",
                          "type": "string"
                        },
                        {
                          "internalType": "string",
                          "name": "status",
                          "type": "string"
                        },
                        {
                          "internalType": "int256",
                          "name": "code",
                          "type": "int256"
                        },
                        {
                          "internalType": "bool",
                          "name": "exists",
                          "type": "bool"
                        }
                      ],
                      "internalType": "struct case1.Procedure",
                      "name": "procedure",
                      "type": "tuple"
                    },
                    {
                      "components": [
                        {
                          "internalType": "string",
                          "name": "id",
                          "type": "string"
                        },
                        {
                          "internalType": "string",
                          "name": "hasType",
                          "type": "string"
                        },
                        {
                          "components": [
                            {
                              "internalType": "string",
                              "name": "id",
                              "type": "string"
                            },
                            {
                              "internalType": "string",
                              "name": "hasType",
                              "type": "string"
                            },
                            {
                              "internalType": "bool",
                              "name": "exists",
                              "type": "bool"
                            }
                          ],
                          "internalType": "struct case1.Insurer",
                          "name": "insurer",
                          "type": "tuple"
                        },
                        {
                          "components": [
                            {
                              "internalType": "string",
                              "name": "id",
                              "type": "string"
                            },
                            {
                              "internalType": "string",
                              "name": "hasType",
                              "type": "string"
                            },
                            {
                              "internalType": "bool",
                              "name": "exists",
                              "type": "bool"
                            }
                          ],
                          "internalType": "struct case1.Class",
                          "name": "class",
                          "type": "tuple"
                        },
                        {
                          "internalType": "bool",
                          "name": "exists",
                          "type": "bool"
                        }
                      ],
                      "internalType": "struct case1.Insurance",
                      "name": "insurance",
                      "type": "tuple"
                    },
                    {
                      "internalType": "bool",
                      "name": "exists",
                      "type": "bool"
                    }
                  ],
                  "internalType": "struct case1.Claim[]",
                  "name": "subjectOf",
                  "type": "tuple[]"
                },
                {
                  "components": [
                    {
                      "internalType": "string",
                      "name": "id",
                      "type": "string"
                    },
                    {
                      "internalType": "string",
                      "name": "hasType",
                      "type": "string"
                    },
                    {
                      "components": [
                        {
                          "internalType": "string",
                          "name": "id",
                          "type": "string"
                        },
                        {
                          "internalType": "string",
                          "name": "hasType",
                          "type": "string"
                        },
                        {
                          "internalType": "bool",
                          "name": "exists",
                          "type": "bool"
                        }
                      ],
                      "internalType": "struct case1.Insurer",
                      "name": "insurer",
                      "type": "tuple"
                    },
                    {
                      "components": [
                        {
                          "internalType": "string",
                          "name": "id",
                          "type": "string"
                        },
                        {
                          "internalType": "string",
                          "name": "hasType",
                          "type": "string"
                        },
                        {
                          "internalType": "bool",
                          "name": "exists",
                          "type": "bool"
                        }
                      ],
                      "internalType": "struct case1.Class",
                      "name": "class",
                      "type": "tuple"
                    },
                    {
                      "internalType": "string",
                      "name": "status",
                      "type": "string"
                    },
                    {
                      "internalType": "bool",
                      "name": "exists",
                      "type": "bool"
                    }
                  ],
                  "internalType": "struct case1.Coverage[]",
                  "name": "policyHolderOf",
                  "type": "tuple[]"
                },
                {
                  "internalType": "bool",
                  "name": "exists",
                  "type": "bool"
                }
              ],
              "internalType": "struct case1.Patient",
              "name": "patient",
              "type": "tuple"
            },
            {
              "internalType": "bool",
              "name": "exists",
              "type": "bool"
            }
          ],
          "indexed": false,
          "internalType": "struct case1.CoverageEligibilityResponse",
          "name": "evt",
          "type": "tuple"
        }
      ],
      "name": "ContractResponse",
      "type": "event"
    },
    {
      "anonymous": false,
      "inputs": [
        {
          "components": [
            {
              "components": [
                {
                  "internalType": "string",
                  "name": "purpose",
                  "type": "string"
                },
                {
                  "internalType": "string",
                  "name": "id",
                  "type": "string"
                },
                {
                  "internalType": "string",
                  "name": "hasType",
                  "type": "string"
                },
                {
                  "components": [
                    {
                      "internalType": "string",
                      "name": "id",
                      "type": "string"
                    },
                    {
                      "internalType": "string",
                      "name": "hasType",
                      "type": "string"
                    },
                    {
                      "components": [
                        {
                          "internalType": "string",
                          "name": "id",
                          "type": "string"
                        },
                        {
                          "internalType": "string",
                          "name": "hasType",
                          "type": "string"
                        },
                        {
                          "internalType": "string",
                          "name": "concept",
                          "type": "string"
                        },
                        {
                          "internalType": "bool",
                          "name": "exists",
                          "type": "bool"
                        }
                      ],
                      "internalType": "struct case1.Medication[]",
                      "name": "medication",
                      "type": "tuple[]"
                    },
                    {
                      "components": [
                        {
                          "internalType": "string",
                          "name": "id",
                          "type": "string"
                        },
                        {
                          "internalType": "string",
                          "name": "hasType",
                          "type": "string"
                        },
                        {
                          "internalType": "string",
                          "name": "status",
                          "type": "string"
                        },
                        {
                          "internalType": "int256",
                          "name": "code",
                          "type": "int256"
                        },
                        {
                          "internalType": "bool",
                          "name": "exists",
                          "type": "bool"
                        }
                      ],
                      "internalType": "struct case1.Procedure",
                      "name": "eligibleTransplant",
                      "type": "tuple"
                    },
                    {
                      "internalType": "bool",
                      "name": "exists",
                      "type": "bool"
                    }
                  ],
                  "internalType": "struct case1.MedicationRequest[]",
                  "name": "item",
                  "type": "tuple[]"
                },
                {
                  "components": [
                    {
                      "internalType": "string",
                      "name": "id",
                      "type": "string"
                    },
                    {
                      "internalType": "string",
                      "name": "hasType",
                      "type": "string"
                    },
                    {
                      "components": [
                        {
                          "internalType": "string",
                          "name": "id",
                          "type": "string"
                        },
                        {
                          "internalType": "string",
                          "name": "hasType",
                          "type": "string"
                        },
                        {
                          "internalType": "string",
                          "name": "concept",
                          "type": "string"
                        },
                        {
                          "internalType": "bool",
                          "name": "exists",
                          "type": "bool"
                        }
                      ],
                      "internalType": "struct case1.Medication[]",
                      "name": "medication",
                      "type": "tuple[]"
                    },
                    {
                      "components": [
                        {
                          "internalType": "string",
                          "name": "id",
                          "type": "string"
                        },
                        {
                          "internalType": "string",
                          "name": "hasType",
                          "type": "string"
                        },
                        {
                          "internalType": "string",
                          "name": "status",
                          "type": "string"
                        },
                        {
                          "internalType": "int256",
                          "name": "code",
                          "type": "int256"
                        },
                        {
                          "internalType": "bool",
                          "name": "exists",
                          "type": "bool"
                        }
                      ],
                      "internalType": "struct case1.Procedure",
                      "name": "eligibleTransplant",
                      "type": "tuple"
                    },
                    {
                      "internalType": "bool",
                      "name": "exists",
                      "type": "bool"
                    }
                  ],
                  "internalType": "struct case1.MedicationRequest",
                  "name": "immunoTherapyItem",
                  "type": "tuple"
                },
                {
                  "components": [
                    {
                      "internalType": "string",
                      "name": "id",
                      "type": "string"
                    },
                    {
                      "internalType": "string",
                      "name": "hasType",
                      "type": "string"
                    },
                    {
                      "components": [
                        {
                          "internalType": "string",
                          "name": "id",
                          "type": "string"
                        },
                        {
                          "internalType": "string",
                          "name": "hasType",
                          "type": "string"
                        },
                        {
                          "components": [
                            {
                              "internalType": "string",
                              "name": "id",
                              "type": "string"
                            },
                            {
                              "internalType": "string",
                              "name": "hasType",
                              "type": "string"
                            },
                            {
                              "internalType": "string",
                              "name": "status",
                              "type": "string"
                            },
                            {
                              "internalType": "int256",
                              "name": "code",
                              "type": "int256"
                            },
                            {
                              "internalType": "bool",
                              "name": "exists",
                              "type": "bool"
                            }
                          ],
                          "internalType": "struct case1.Procedure",
                          "name": "procedure",
                          "type": "tuple"
                        },
                        {
                          "components": [
                            {
                              "internalType": "string",
                              "name": "id",
                              "type": "string"
                            },
                            {
                              "internalType": "string",
                              "name": "hasType",
                              "type": "string"
                            },
                            {
                              "components": [
                                {
                                  "internalType": "string",
                                  "name": "id",
                                  "type": "string"
                                },
                                {
                                  "internalType": "string",
                                  "name": "hasType",
                                  "type": "string"
                                },
                                {
                                  "internalType": "bool",
                                  "name": "exists",
                                  "type": "bool"
                                }
                              ],
                              "internalType": "struct case1.Insurer",
                              "name": "insurer",
                              "type": "tuple"
                            },
                            {
                              "components": [
                                {
                                  "internalType": "string",
                                  "name": "id",
                                  "type": "string"
                                },
                                {
                                  "internalType": "string",
                                  "name": "hasType",
                                  "type": "string"
                                },
                                {
                                  "internalType": "bool",
                                  "name": "exists",
                                  "type": "bool"
                                }
                              ],
                              "internalType": "struct case1.Class",
                              "name": "class",
                              "type": "tuple"
                            },
                            {
                              "internalType": "bool",
                              "name": "exists",
                              "type": "bool"
                            }
                          ],
                          "internalType": "struct case1.Insurance",
                          "name": "insurance",
                          "type": "tuple"
                        },
                        {
                          "internalType": "bool",
                          "name": "exists",
                          "type": "bool"
                        }
                      ],
                      "internalType": "struct case1.Claim[]",
                      "name": "subjectOf",
                      "type": "tuple[]"
                    },
                    {
                      "components": [
                        {
                          "internalType": "string",
                          "name": "id",
                          "type": "string"
                        },
                        {
                          "internalType": "string",
                          "name": "hasType",
                          "type": "string"
                        },
                        {
                          "components": [
                            {
                              "internalType": "string",
                              "name": "id",
                              "type": "string"
                            },
                            {
                              "internalType": "string",
                              "name": "hasType",
                              "type": "string"
                            },
                            {
                              "internalType": "bool",
                              "name": "exists",
                              "type": "bool"
                            }
                          ],
                          "internalType": "struct case1.Insurer",
                          "name": "insurer",
                          "type": "tuple"
                        },
                        {
                          "components": [
                            {
                              "internalType": "string",
                              "name": "id",
                              "type": "string"
                            },
                            {
                              "internalType": "string",
                              "name": "hasType",
                              "type": "string"
                            },
                            {
                              "internalType": "bool",
                              "name": "exists",
                              "type": "bool"
                            }
                          ],
                          "internalType": "struct case1.Class",
                          "name": "class",
                          "type": "tuple"
                        },
                        {
                          "internalType": "string",
                          "name": "status",
                          "type": "string"
                        },
                        {
                          "internalType": "bool",
                          "name": "exists",
                          "type": "bool"
                        }
                      ],
                      "internalType": "struct case1.Coverage[]",
                      "name": "policyHolderOf",
                      "type": "tuple[]"
                    },
                    {
                      "internalType": "bool",
                      "name": "exists",
                      "type": "bool"
                    }
                  ],
                  "internalType": "struct case1.Patient",
                  "name": "patient",
                  "type": "tuple"
                },
                {
                  "components": [
                    {
                      "internalType": "string",
                      "name": "id",
                      "type": "string"
                    },
                    {
                      "internalType": "string",
                      "name": "hasType",
                      "type": "string"
                    },
                    {
                      "internalType": "string",
                      "name": "outcome",
                      "type": "string"
                    },
                    {
                      "components": [
                        {
                          "internalType": "string",
                          "name": "id",
                          "type": "string"
                        },
                        {
                          "internalType": "string",
                          "name": "hasType",
                          "type": "string"
                        },
                        {
                          "components": [
                            {
                              "internalType": "string",
                              "name": "id",
                              "type": "string"
                            },
                            {
                              "internalType": "string",
                              "name": "hasType",
                              "type": "string"
                            },
                            {
                              "internalType": "string",
                              "name": "concept",
                              "type": "string"
                            },
                            {
                              "internalType": "bool",
                              "name": "exists",
                              "type": "bool"
                            }
                          ],
                          "internalType": "struct case1.Medication[]",
                          "name": "medication",
                          "type": "tuple[]"
                        },
                        {
                          "components": [
                            {
                              "internalType": "string",
                              "name": "id",
                              "type": "string"
                            },
                            {
                              "internalType": "string",
                              "name": "hasType",
                              "type": "string"
                            },
                            {
                              "internalType": "string",
                              "name": "status",
                              "type": "string"
                            },
                            {
                              "internalType": "int256",
                              "name": "code",
                              "type": "int256"
                            },
                            {
                              "internalType": "bool",
                              "name": "exists",
                              "type": "bool"
                            }
                          ],
                          "internalType": "struct case1.Procedure",
                          "name": "eligibleTransplant",
                          "type": "tuple"
                        },
                        {
                          "internalType": "bool",
                          "name": "exists",
                          "type": "bool"
                        }
                      ],
                      "internalType": "struct case1.MedicationRequest",
                      "name": "request",
                      "type": "tuple"
                    },
                    {
                      "components": [
                        {
                          "internalType": "string",
                          "name": "id",
                          "type": "string"
                        },
                        {
                          "internalType": "string",
                          "name": "hasType",
                          "type": "string"
                        },
                        {
                          "components": [
                            {
                              "internalType": "string",
                              "name": "id",
                              "type": "string"
                            },
                            {
                              "internalType": "string",
                              "name": "hasType",
                              "type": "string"
                            },
                            {
                              "internalType": "bool",
                              "name": "exists",
                              "type": "bool"
                            }
                          ],
                          "internalType": "struct case1.Insurer",
                          "name": "insurer",
                          "type": "tuple"
                        },
                        {
                          "components": [
                            {
                              "internalType": "string",
                              "name": "id",
                              "type": "string"
                            },
                            {
                              "internalType": "string",
                              "name": "hasType",
                              "type": "string"
                            },
                            {
                              "internalType": "bool",
                              "name": "exists",
                              "type": "bool"
                            }
                          ],
                          "internalType": "struct case1.Class",
                          "name": "class",
                          "type": "tuple"
                        },
                        {
                          "internalType": "string",
                          "name": "status",
                          "type": "string"
                        },
                        {
                          "internalType": "bool",
                          "name": "exists",
                          "type": "bool"
                        }
                      ],
                      "internalType": "struct case1.Coverage",
                      "name": "covered",
                      "type": "tuple"
                    },
                    {
                      "components": [
                        {
                          "internalType": "string",
                          "name": "id",
                          "type": "string"
                        },
                        {
                          "internalType": "string",
                          "name": "hasType",
                          "type": "string"
                        },
                        {
                          "components": [
                            {
                              "internalType": "string",
                              "name": "id",
                              "type": "string"
                            },
                            {
                              "internalType": "string",
                              "name": "hasType",
                              "type": "string"
                            },
                            {
                              "components": [
                                {
                                  "internalType": "string",
                                  "name": "id",
                                  "type": "string"
                                },
                                {
                                  "internalType": "string",
                                  "name": "hasType",
                                  "type": "string"
                                },
                                {
                                  "internalType": "string",
                                  "name": "status",
                                  "type": "string"
                                },
                                {
                                  "internalType": "int256",
                                  "name": "code",
                                  "type": "int256"
                                },
                                {
                                  "internalType": "bool",
                                  "name": "exists",
                                  "type": "bool"
                                }
                              ],
                              "internalType": "struct case1.Procedure",
                              "name": "procedure",
                              "type": "tuple"
                            },
                            {
                              "components": [
                                {
                                  "internalType": "string",
                                  "name": "id",
                                  "type": "string"
                                },
                                {
                                  "internalType": "string",
                                  "name": "hasType",
                                  "type": "string"
                                },
                                {
                                  "components": [
                                    {
                                      "internalType": "string",
                                      "name": "id",
                                      "type": "string"
                                    },
                                    {
                                      "internalType": "string",
                                      "name": "hasType",
                                      "type": "string"
                                    },
                                    {
                                      "internalType": "bool",
                                      "name": "exists",
                                      "type": "bool"
                                    }
                                  ],
                                  "internalType": "struct case1.Insurer",
                                  "name": "insurer",
                                  "type": "tuple"
                                },
                                {
                                  "components": [
                                    {
                                      "internalType": "string",
                                      "name": "id",
                                      "type": "string"
                                    },
                                    {
                                      "internalType": "string",
                                      "name": "hasType",
                                      "type": "string"
                                    },
                                    {
                                      "internalType": "bool",
                                      "name": "exists",
                                      "type": "bool"
                                    }
                                  ],
                                  "internalType": "struct case1.Class",
                                  "name": "class",
                                  "type": "tuple"
                                },
                                {
                                  "internalType": "bool",
                                  "name": "exists",
                                  "type": "bool"
                                }
                              ],
                              "internalType": "struct case1.Insurance",
                              "name": "insurance",
                              "type": "tuple"
                            },
                            {
                              "internalType": "bool",
                              "name": "exists",
                              "type": "bool"
                            }
                          ],
                          "internalType": "struct case1.Claim[]",
                          "name": "subjectOf",
                          "type": "tuple[]"
                        },
                        {
                          "components": [
                            {
                              "internalType": "string",
                              "name": "id",
                              "type": "string"
                            },
                            {
                              "internalType": "string",
                              "name": "hasType",
                              "type": "string"
                            },
                            {
                              "components": [
                                {
                                  "internalType": "string",
                                  "name": "id",
                                  "type": "string"
                                },
                                {
                                  "internalType": "string",
                                  "name": "hasType",
                                  "type": "string"
                                },
                                {
                                  "internalType": "bool",
                                  "name": "exists",
                                  "type": "bool"
                                }
                              ],
                              "internalType": "struct case1.Insurer",
                              "name": "insurer",
                              "type": "tuple"
                            },
                            {
                              "components": [
                                {
                                  "internalType": "string",
                                  "name": "id",
                                  "type": "string"
                                },
                                {
                                  "internalType": "string",
                                  "name": "hasType",
                                  "type": "string"
                                },
                                {
                                  "internalType": "bool",
                                  "name": "exists",
                                  "type": "bool"
                                }
                              ],
                              "internalType": "struct case1.Class",
                              "name": "class",
                              "type": "tuple"
                            },
                            {
                              "internalType": "string",
                              "name": "status",
                              "type": "string"
                            },
                            {
                              "internalType": "bool",
                              "name": "exists",
                              "type": "bool"
                            }
                          ],
                          "internalType": "struct case1.Coverage[]",
                          "name": "policyHolderOf",
                          "type": "tuple[]"
                        },
                        {
                          "internalType": "bool",
                          "name": "exists",
                          "type": "bool"
                        }
                      ],
                      "internalType": "struct case1.Patient",
                      "name": "patient",
                      "type": "tuple"
                    },
                    {
                      "internalType": "bool",
                      "name": "exists",
                      "type": "bool"
                    }
                  ],
                  "internalType": "struct case1.CoverageEligibilityResponse",
                  "name": "response",
                  "type": "tuple"
                },
                {
                  "internalType": "bool",
                  "name": "exists",
                  "type": "bool"
                }
              ],
              "internalType": "struct case1.CoverageEligibilityRequest",
              "name": "req",
              "type": "tuple"
            },
            {
              "internalType": "string",
              "name": "resource",
              "type": "string"
            },
            {
              "internalType": "string[2]",
              "name": "parameters",
              "type": "string[2]"
            },
            {
              "internalType": "string",
              "name": "callback",
              "type": "string"
            }
          ],
          "indexed": false,
          "internalType": "struct case1.RequestData",
          "name": "request",
          "type": "tuple"
        }
      ],
      "name": "OracleRequest",
      "type": "event"
    },
    {
      "inputs": [
        {
          "components": [
            {
              "internalType": "string",
              "name": "purpose",
              "type": "string"
            },
            {
              "internalType": "string",
              "name": "id",
              "type": "string"
            },
            {
              "internalType": "string",
              "name": "hasType",
              "type": "string"
            },
            {
              "components": [
                {
                  "internalType": "string",
                  "name": "id",
                  "type": "string"
                },
                {
                  "internalType": "string",
                  "name": "hasType",
                  "type": "string"
                },
                {
                  "components": [
                    {
                      "internalType": "string",
                      "name": "id",
                      "type": "string"
                    },
                    {
                      "internalType": "string",
                      "name": "hasType",
                      "type": "string"
                    },
                    {
                      "internalType": "string",
                      "name": "concept",
                      "type": "string"
                    },
                    {
                      "internalType": "bool",
                      "name": "exists",
                      "type": "bool"
                    }
                  ],
                  "internalType": "struct case1.Medication[]",
                  "name": "medication",
                  "type": "tuple[]"
                },
                {
                  "components": [
                    {
                      "internalType": "string",
                      "name": "id",
                      "type": "string"
                    },
                    {
                      "internalType": "string",
                      "name": "hasType",
                      "type": "string"
                    },
                    {
                      "internalType": "string",
                      "name": "status",
                      "type": "string"
                    },
                    {
                      "internalType": "int256",
                      "name": "code",
                      "type": "int256"
                    },
                    {
                      "internalType": "bool",
                      "name": "exists",
                      "type": "bool"
                    }
                  ],
                  "internalType": "struct case1.Procedure",
                  "name": "eligibleTransplant",
                  "type": "tuple"
                },
                {
                  "internalType": "bool",
                  "name": "exists",
                  "type": "bool"
                }
              ],
              "internalType": "struct case1.MedicationRequest[]",
              "name": "item",
              "type": "tuple[]"
            },
            {
              "components": [
                {
                  "internalType": "string",
                  "name": "id",
                  "type": "string"
                },
                {
                  "internalType": "string",
                  "name": "hasType",
                  "type": "string"
                },
                {
                  "components": [
                    {
                      "internalType": "string",
                      "name": "id",
                      "type": "string"
                    },
                    {
                      "internalType": "string",
                      "name": "hasType",
                      "type": "string"
                    },
                    {
                      "internalType": "string",
                      "name": "concept",
                      "type": "string"
                    },
                    {
                      "internalType": "bool",
                      "name": "exists",
                      "type": "bool"
                    }
                  ],
                  "internalType": "struct case1.Medication[]",
                  "name": "medication",
                  "type": "tuple[]"
                },
                {
                  "components": [
                    {
                      "internalType": "string",
                      "name": "id",
                      "type": "string"
                    },
                    {
                      "internalType": "string",
                      "name": "hasType",
                      "type": "string"
                    },
                    {
                      "internalType": "string",
                      "name": "status",
                      "type": "string"
                    },
                    {
                      "internalType": "int256",
                      "name": "code",
                      "type": "int256"
                    },
                    {
                      "internalType": "bool",
                      "name": "exists",
                      "type": "bool"
                    }
                  ],
                  "internalType": "struct case1.Procedure",
                  "name": "eligibleTransplant",
                  "type": "tuple"
                },
                {
                  "internalType": "bool",
                  "name": "exists",
                  "type": "bool"
                }
              ],
              "internalType": "struct case1.MedicationRequest",
              "name": "immunoTherapyItem",
              "type": "tuple"
            },
            {
              "components": [
                {
                  "internalType": "string",
                  "name": "id",
                  "type": "string"
                },
                {
                  "internalType": "string",
                  "name": "hasType",
                  "type": "string"
                },
                {
                  "components": [
                    {
                      "internalType": "string",
                      "name": "id",
                      "type": "string"
                    },
                    {
                      "internalType": "string",
                      "name": "hasType",
                      "type": "string"
                    },
                    {
                      "components": [
                        {
                          "internalType": "string",
                          "name": "id",
                          "type": "string"
                        },
                        {
                          "internalType": "string",
                          "name": "hasType",
                          "type": "string"
                        },
                        {
                          "internalType": "string",
                          "name": "status",
                          "type": "string"
                        },
                        {
                          "internalType": "int256",
                          "name": "code",
                          "type": "int256"
                        },
                        {
                          "internalType": "bool",
                          "name": "exists",
                          "type": "bool"
                        }
                      ],
                      "internalType": "struct case1.Procedure",
                      "name": "procedure",
                      "type": "tuple"
                    },
                    {
                      "components": [
                        {
                          "internalType": "string",
                          "name": "id",
                          "type": "string"
                        },
                        {
                          "internalType": "string",
                          "name": "hasType",
                          "type": "string"
                        },
                        {
                          "components": [
                            {
                              "internalType": "string",
                              "name": "id",
                              "type": "string"
                            },
                            {
                              "internalType": "string",
                              "name": "hasType",
                              "type": "string"
                            },
                            {
                              "internalType": "bool",
                              "name": "exists",
                              "type": "bool"
                            }
                          ],
                          "internalType": "struct case1.Insurer",
                          "name": "insurer",
                          "type": "tuple"
                        },
                        {
                          "components": [
                            {
                              "internalType": "string",
                              "name": "id",
                              "type": "string"
                            },
                            {
                              "internalType": "string",
                              "name": "hasType",
                              "type": "string"
                            },
                            {
                              "internalType": "bool",
                              "name": "exists",
                              "type": "bool"
                            }
                          ],
                          "internalType": "struct case1.Class",
                          "name": "class",
                          "type": "tuple"
                        },
                        {
                          "internalType": "bool",
                          "name": "exists",
                          "type": "bool"
                        }
                      ],
                      "internalType": "struct case1.Insurance",
                      "name": "insurance",
                      "type": "tuple"
                    },
                    {
                      "internalType": "bool",
                      "name": "exists",
                      "type": "bool"
                    }
                  ],
                  "internalType": "struct case1.Claim[]",
                  "name": "subjectOf",
                  "type": "tuple[]"
                },
                {
                  "components": [
                    {
                      "internalType": "string",
                      "name": "id",
                      "type": "string"
                    },
                    {
                      "internalType": "string",
                      "name": "hasType",
                      "type": "string"
                    },
                    {
                      "components": [
                        {
                          "internalType": "string",
                          "name": "id",
                          "type": "string"
                        },
                        {
                          "internalType": "string",
                          "name": "hasType",
                          "type": "string"
                        },
                        {
                          "internalType": "bool",
                          "name": "exists",
                          "type": "bool"
                        }
                      ],
                      "internalType": "struct case1.Insurer",
                      "name": "insurer",
                      "type": "tuple"
                    },
                    {
                      "components": [
                        {
                          "internalType": "string",
                          "name": "id",
                          "type": "string"
                        },
                        {
                          "internalType": "string",
                          "name": "hasType",
                          "type": "string"
                        },
                        {
                          "internalType": "bool",
                          "name": "exists",
                          "type": "bool"
                        }
                      ],
                      "internalType": "struct case1.Class",
                      "name": "class",
                      "type": "tuple"
                    },
                    {
                      "internalType": "string",
                      "name": "status",
                      "type": "string"
                    },
                    {
                      "internalType": "bool",
                      "name": "exists",
                      "type": "bool"
                    }
                  ],
                  "internalType": "struct case1.Coverage[]",
                  "name": "policyHolderOf",
                  "type": "tuple[]"
                },
                {
                  "internalType": "bool",
                  "name": "exists",
                  "type": "bool"
                }
              ],
              "internalType": "struct case1.Patient",
              "name": "patient",
              "type": "tuple"
            },
            {
              "components": [
                {
                  "internalType": "string",
                  "name": "id",
                  "type": "string"
                },
                {
                  "internalType": "string",
                  "name": "hasType",
                  "type": "string"
                },
                {
                  "internalType": "string",
                  "name": "outcome",
                  "type": "string"
                },
                {
                  "components": [
                    {
                      "internalType": "string",
                      "name": "id",
                      "type": "string"
                    },
                    {
                      "internalType": "string",
                      "name": "hasType",
                      "type": "string"
                    },
                    {
                      "components": [
                        {
                          "internalType": "string",
                          "name": "id",
                          "type": "string"
                        },
                        {
                          "internalType": "string",
                          "name": "hasType",
                          "type": "string"
                        },
                        {
                          "internalType": "string",
                          "name": "concept",
                          "type": "string"
                        },
                        {
                          "internalType": "bool",
                          "name": "exists",
                          "type": "bool"
                        }
                      ],
                      "internalType": "struct case1.Medication[]",
                      "name": "medication",
                      "type": "tuple[]"
                    },
                    {
                      "components": [
                        {
                          "internalType": "string",
                          "name": "id",
                          "type": "string"
                        },
                        {
                          "internalType": "string",
                          "name": "hasType",
                          "type": "string"
                        },
                        {
                          "internalType": "string",
                          "name": "status",
                          "type": "string"
                        },
                        {
                          "internalType": "int256",
                          "name": "code",
                          "type": "int256"
                        },
                        {
                          "internalType": "bool",
                          "name": "exists",
                          "type": "bool"
                        }
                      ],
                      "internalType": "struct case1.Procedure",
                      "name": "eligibleTransplant",
                      "type": "tuple"
                    },
                    {
                      "internalType": "bool",
                      "name": "exists",
                      "type": "bool"
                    }
                  ],
                  "internalType": "struct case1.MedicationRequest",
                  "name": "request",
                  "type": "tuple"
                },
                {
                  "components": [
                    {
                      "internalType": "string",
                      "name": "id",
                      "type": "string"
                    },
                    {
                      "internalType": "string",
                      "name": "hasType",
                      "type": "string"
                    },
                    {
                      "components": [
                        {
                          "internalType": "string",
                          "name": "id",
                          "type": "string"
                        },
                        {
                          "internalType": "string",
                          "name": "hasType",
                          "type": "string"
                        },
                        {
                          "internalType": "bool",
                          "name": "exists",
                          "type": "bool"
                        }
                      ],
                      "internalType": "struct case1.Insurer",
                      "name": "insurer",
                      "type": "tuple"
                    },
                    {
                      "components": [
                        {
                          "internalType": "string",
                          "name": "id",
                          "type": "string"
                        },
                        {
                          "internalType": "string",
                          "name": "hasType",
                          "type": "string"
                        },
                        {
                          "internalType": "bool",
                          "name": "exists",
                          "type": "bool"
                        }
                      ],
                      "internalType": "struct case1.Class",
                      "name": "class",
                      "type": "tuple"
                    },
                    {
                      "internalType": "string",
                      "name": "status",
                      "type": "string"
                    },
                    {
                      "internalType": "bool",
                      "name": "exists",
                      "type": "bool"
                    }
                  ],
                  "internalType": "struct case1.Coverage",
                  "name": "covered",
                  "type": "tuple"
                },
                {
                  "components": [
                    {
                      "internalType": "string",
                      "name": "id",
                      "type": "string"
                    },
                    {
                      "internalType": "string",
                      "name": "hasType",
                      "type": "string"
                    },
                    {
                      "components": [
                        {
                          "internalType": "string",
                          "name": "id",
                          "type": "string"
                        },
                        {
                          "internalType": "string",
                          "name": "hasType",
                          "type": "string"
                        },
                        {
                          "components": [
                            {
                              "internalType": "string",
                              "name": "id",
                              "type": "string"
                            },
                            {
                              "internalType": "string",
                              "name": "hasType",
                              "type": "string"
                            },
                            {
                              "internalType": "string",
                              "name": "status",
                              "type": "string"
                            },
                            {
                              "internalType": "int256",
                              "name": "code",
                              "type": "int256"
                            },
                            {
                              "internalType": "bool",
                              "name": "exists",
                              "type": "bool"
                            }
                          ],
                          "internalType": "struct case1.Procedure",
                          "name": "procedure",
                          "type": "tuple"
                        },
                        {
                          "components": [
                            {
                              "internalType": "string",
                              "name": "id",
                              "type": "string"
                            },
                            {
                              "internalType": "string",
                              "name": "hasType",
                              "type": "string"
                            },
                            {
                              "components": [
                                {
                                  "internalType": "string",
                                  "name": "id",
                                  "type": "string"
                                },
                                {
                                  "internalType": "string",
                                  "name": "hasType",
                                  "type": "string"
                                },
                                {
                                  "internalType": "bool",
                                  "name": "exists",
                                  "type": "bool"
                                }
                              ],
                              "internalType": "struct case1.Insurer",
                              "name": "insurer",
                              "type": "tuple"
                            },
                            {
                              "components": [
                                {
                                  "internalType": "string",
                                  "name": "id",
                                  "type": "string"
                                },
                                {
                                  "internalType": "string",
                                  "name": "hasType",
                                  "type": "string"
                                },
                                {
                                  "internalType": "bool",
                                  "name": "exists",
                                  "type": "bool"
                                }
                              ],
                              "internalType": "struct case1.Class",
                              "name": "class",
                              "type": "tuple"
                            },
                            {
                              "internalType": "bool",
                              "name": "exists",
                              "type": "bool"
                            }
                          ],
                          "internalType": "struct case1.Insurance",
                          "name": "insurance",
                          "type": "tuple"
                        },
                        {
                          "internalType": "bool",
                          "name": "exists",
                          "type": "bool"
                        }
                      ],
                      "internalType": "struct case1.Claim[]",
                      "name": "subjectOf",
                      "type": "tuple[]"
                    },
                    {
                      "components": [
                        {
                          "internalType": "string",
                          "name": "id",
                          "type": "string"
                        },
                        {
                          "internalType": "string",
                          "name": "hasType",
                          "type": "string"
                        },
                        {
                          "components": [
                            {
                              "internalType": "string",
                              "name": "id",
                              "type": "string"
                            },
                            {
                              "internalType": "string",
                              "name": "hasType",
                              "type": "string"
                            },
                            {
                              "internalType": "bool",
                              "name": "exists",
                              "type": "bool"
                            }
                          ],
                          "internalType": "struct case1.Insurer",
                          "name": "insurer",
                          "type": "tuple"
                        },
                        {
                          "components": [
                            {
                              "internalType": "string",
                              "name": "id",
                              "type": "string"
                            },
                            {
                              "internalType": "string",
                              "name": "hasType",
                              "type": "string"
                            },
                            {
                              "internalType": "bool",
                              "name": "exists",
                              "type": "bool"
                            }
                          ],
                          "internalType": "struct case1.Class",
                          "name": "class",
                          "type": "tuple"
                        },
                        {
                          "internalType": "string",
                          "name": "status",
                          "type": "string"
                        },
                        {
                          "internalType": "bool",
                          "name": "exists",
                          "type": "bool"
                        }
                      ],
                      "internalType": "struct case1.Coverage[]",
                      "name": "policyHolderOf",
                      "type": "tuple[]"
                    },
                    {
                      "internalType": "bool",
                      "name": "exists",
                      "type": "bool"
                    }
                  ],
                  "internalType": "struct case1.Patient",
                  "name": "patient",
                  "type": "tuple"
                },
                {
                  "internalType": "bool",
                  "name": "exists",
                  "type": "bool"
                }
              ],
              "internalType": "struct case1.CoverageEligibilityResponse",
              "name": "response",
              "type": "tuple"
            },
            {
              "internalType": "bool",
              "name": "exists",
              "type": "bool"
            }
          ],
          "internalType": "struct case1.CoverageEligibilityRequest",
          "name": "req",
          "type": "tuple"
        }
      ],
      "name": "process",
      "outputs": [],
      "stateMutability": "nonpayable",
      "type": "function"
    },
    {
      "inputs": [
        {
          "components": [
            {
              "internalType": "string",
              "name": "purpose",
              "type": "string"
            },
            {
              "internalType": "string",
              "name": "id",
              "type": "string"
            },
            {
              "internalType": "string",
              "name": "hasType",
              "type": "string"
            },
            {
              "components": [
                {
                  "internalType": "string",
                  "name": "id",
                  "type": "string"
                },
                {
                  "internalType": "string",
                  "name": "hasType",
                  "type": "string"
                },
                {
                  "components": [
                    {
                      "internalType": "string",
                      "name": "id",
                      "type": "string"
                    },
                    {
                      "internalType": "string",
                      "name": "hasType",
                      "type": "string"
                    },
                    {
                      "internalType": "string",
                      "name": "concept",
                      "type": "string"
                    },
                    {
                      "internalType": "bool",
                      "name": "exists",
                      "type": "bool"
                    }
                  ],
                  "internalType": "struct case1.Medication[]",
                  "name": "medication",
                  "type": "tuple[]"
                },
                {
                  "components": [
                    {
                      "internalType": "string",
                      "name": "id",
                      "type": "string"
                    },
                    {
                      "internalType": "string",
                      "name": "hasType",
                      "type": "string"
                    },
                    {
                      "internalType": "string",
                      "name": "status",
                      "type": "string"
                    },
                    {
                      "internalType": "int256",
                      "name": "code",
                      "type": "int256"
                    },
                    {
                      "internalType": "bool",
                      "name": "exists",
                      "type": "bool"
                    }
                  ],
                  "internalType": "struct case1.Procedure",
                  "name": "eligibleTransplant",
                  "type": "tuple"
                },
                {
                  "internalType": "bool",
                  "name": "exists",
                  "type": "bool"
                }
              ],
              "internalType": "struct case1.MedicationRequest[]",
              "name": "item",
              "type": "tuple[]"
            },
            {
              "components": [
                {
                  "internalType": "string",
                  "name": "id",
                  "type": "string"
                },
                {
                  "internalType": "string",
                  "name": "hasType",
                  "type": "string"
                },
                {
                  "components": [
                    {
                      "internalType": "string",
                      "name": "id",
                      "type": "string"
                    },
                    {
                      "internalType": "string",
                      "name": "hasType",
                      "type": "string"
                    },
                    {
                      "internalType": "string",
                      "name": "concept",
                      "type": "string"
                    },
                    {
                      "internalType": "bool",
                      "name": "exists",
                      "type": "bool"
                    }
                  ],
                  "internalType": "struct case1.Medication[]",
                  "name": "medication",
                  "type": "tuple[]"
                },
                {
                  "components": [
                    {
                      "internalType": "string",
                      "name": "id",
                      "type": "string"
                    },
                    {
                      "internalType": "string",
                      "name": "hasType",
                      "type": "string"
                    },
                    {
                      "internalType": "string",
                      "name": "status",
                      "type": "string"
                    },
                    {
                      "internalType": "int256",
                      "name": "code",
                      "type": "int256"
                    },
                    {
                      "internalType": "bool",
                      "name": "exists",
                      "type": "bool"
                    }
                  ],
                  "internalType": "struct case1.Procedure",
                  "name": "eligibleTransplant",
                  "type": "tuple"
                },
                {
                  "internalType": "bool",
                  "name": "exists",
                  "type": "bool"
                }
              ],
              "internalType": "struct case1.MedicationRequest",
              "name": "immunoTherapyItem",
              "type": "tuple"
            },
            {
              "components": [
                {
                  "internalType": "string",
                  "name": "id",
                  "type": "string"
                },
                {
                  "internalType": "string",
                  "name": "hasType",
                  "type": "string"
                },
                {
                  "components": [
                    {
                      "internalType": "string",
                      "name": "id",
                      "type": "string"
                    },
                    {
                      "internalType": "string",
                      "name": "hasType",
                      "type": "string"
                    },
                    {
                      "components": [
                        {
                          "internalType": "string",
                          "name": "id",
                          "type": "string"
                        },
                        {
                          "internalType": "string",
                          "name": "hasType",
                          "type": "string"
                        },
                        {
                          "internalType": "string",
                          "name": "status",
                          "type": "string"
                        },
                        {
                          "internalType": "int256",
                          "name": "code",
                          "type": "int256"
                        },
                        {
                          "internalType": "bool",
                          "name": "exists",
                          "type": "bool"
                        }
                      ],
                      "internalType": "struct case1.Procedure",
                      "name": "procedure",
                      "type": "tuple"
                    },
                    {
                      "components": [
                        {
                          "internalType": "string",
                          "name": "id",
                          "type": "string"
                        },
                        {
                          "internalType": "string",
                          "name": "hasType",
                          "type": "string"
                        },
                        {
                          "components": [
                            {
                              "internalType": "string",
                              "name": "id",
                              "type": "string"
                            },
                            {
                              "internalType": "string",
                              "name": "hasType",
                              "type": "string"
                            },
                            {
                              "internalType": "bool",
                              "name": "exists",
                              "type": "bool"
                            }
                          ],
                          "internalType": "struct case1.Insurer",
                          "name": "insurer",
                          "type": "tuple"
                        },
                        {
                          "components": [
                            {
                              "internalType": "string",
                              "name": "id",
                              "type": "string"
                            },
                            {
                              "internalType": "string",
                              "name": "hasType",
                              "type": "string"
                            },
                            {
                              "internalType": "bool",
                              "name": "exists",
                              "type": "bool"
                            }
                          ],
                          "internalType": "struct case1.Class",
                          "name": "class",
                          "type": "tuple"
                        },
                        {
                          "internalType": "bool",
                          "name": "exists",
                          "type": "bool"
                        }
                      ],
                      "internalType": "struct case1.Insurance",
                      "name": "insurance",
                      "type": "tuple"
                    },
                    {
                      "internalType": "bool",
                      "name": "exists",
                      "type": "bool"
                    }
                  ],
                  "internalType": "struct case1.Claim[]",
                  "name": "subjectOf",
                  "type": "tuple[]"
                },
                {
                  "components": [
                    {
                      "internalType": "string",
                      "name": "id",
                      "type": "string"
                    },
                    {
                      "internalType": "string",
                      "name": "hasType",
                      "type": "string"
                    },
                    {
                      "components": [
                        {
                          "internalType": "string",
                          "name": "id",
                          "type": "string"
                        },
                        {
                          "internalType": "string",
                          "name": "hasType",
                          "type": "string"
                        },
                        {
                          "internalType": "bool",
                          "name": "exists",
                          "type": "bool"
                        }
                      ],
                      "internalType": "struct case1.Insurer",
                      "name": "insurer",
                      "type": "tuple"
                    },
                    {
                      "components": [
                        {
                          "internalType": "string",
                          "name": "id",
                          "type": "string"
                        },
                        {
                          "internalType": "string",
                          "name": "hasType",
                          "type": "string"
                        },
                        {
                          "internalType": "bool",
                          "name": "exists",
                          "type": "bool"
                        }
                      ],
                      "internalType": "struct case1.Class",
                      "name": "class",
                      "type": "tuple"
                    },
                    {
                      "internalType": "string",
                      "name": "status",
                      "type": "string"
                    },
                    {
                      "internalType": "bool",
                      "name": "exists",
                      "type": "bool"
                    }
                  ],
                  "internalType": "struct case1.Coverage[]",
                  "name": "policyHolderOf",
                  "type": "tuple[]"
                },
                {
                  "internalType": "bool",
                  "name": "exists",
                  "type": "bool"
                }
              ],
              "internalType": "struct case1.Patient",
              "name": "patient",
              "type": "tuple"
            },
            {
              "components": [
                {
                  "internalType": "string",
                  "name": "id",
                  "type": "string"
                },
                {
                  "internalType": "string",
                  "name": "hasType",
                  "type": "string"
                },
                {
                  "internalType": "string",
                  "name": "outcome",
                  "type": "string"
                },
                {
                  "components": [
                    {
                      "internalType": "string",
                      "name": "id",
                      "type": "string"
                    },
                    {
                      "internalType": "string",
                      "name": "hasType",
                      "type": "string"
                    },
                    {
                      "components": [
                        {
                          "internalType": "string",
                          "name": "id",
                          "type": "string"
                        },
                        {
                          "internalType": "string",
                          "name": "hasType",
                          "type": "string"
                        },
                        {
                          "internalType": "string",
                          "name": "concept",
                          "type": "string"
                        },
                        {
                          "internalType": "bool",
                          "name": "exists",
                          "type": "bool"
                        }
                      ],
                      "internalType": "struct case1.Medication[]",
                      "name": "medication",
                      "type": "tuple[]"
                    },
                    {
                      "components": [
                        {
                          "internalType": "string",
                          "name": "id",
                          "type": "string"
                        },
                        {
                          "internalType": "string",
                          "name": "hasType",
                          "type": "string"
                        },
                        {
                          "internalType": "string",
                          "name": "status",
                          "type": "string"
                        },
                        {
                          "internalType": "int256",
                          "name": "code",
                          "type": "int256"
                        },
                        {
                          "internalType": "bool",
                          "name": "exists",
                          "type": "bool"
                        }
                      ],
                      "internalType": "struct case1.Procedure",
                      "name": "eligibleTransplant",
                      "type": "tuple"
                    },
                    {
                      "internalType": "bool",
                      "name": "exists",
                      "type": "bool"
                    }
                  ],
                  "internalType": "struct case1.MedicationRequest",
                  "name": "request",
                  "type": "tuple"
                },
                {
                  "components": [
                    {
                      "internalType": "string",
                      "name": "id",
                      "type": "string"
                    },
                    {
                      "internalType": "string",
                      "name": "hasType",
                      "type": "string"
                    },
                    {
                      "components": [
                        {
                          "internalType": "string",
                          "name": "id",
                          "type": "string"
                        },
                        {
                          "internalType": "string",
                          "name": "hasType",
                          "type": "string"
                        },
                        {
                          "internalType": "bool",
                          "name": "exists",
                          "type": "bool"
                        }
                      ],
                      "internalType": "struct case1.Insurer",
                      "name": "insurer",
                      "type": "tuple"
                    },
                    {
                      "components": [
                        {
                          "internalType": "string",
                          "name": "id",
                          "type": "string"
                        },
                        {
                          "internalType": "string",
                          "name": "hasType",
                          "type": "string"
                        },
                        {
                          "internalType": "bool",
                          "name": "exists",
                          "type": "bool"
                        }
                      ],
                      "internalType": "struct case1.Class",
                      "name": "class",
                      "type": "tuple"
                    },
                    {
                      "internalType": "string",
                      "name": "status",
                      "type": "string"
                    },
                    {
                      "internalType": "bool",
                      "name": "exists",
                      "type": "bool"
                    }
                  ],
                  "internalType": "struct case1.Coverage",
                  "name": "covered",
                  "type": "tuple"
                },
                {
                  "components": [
                    {
                      "internalType": "string",
                      "name": "id",
                      "type": "string"
                    },
                    {
                      "internalType": "string",
                      "name": "hasType",
                      "type": "string"
                    },
                    {
                      "components": [
                        {
                          "internalType": "string",
                          "name": "id",
                          "type": "string"
                        },
                        {
                          "internalType": "string",
                          "name": "hasType",
                          "type": "string"
                        },
                        {
                          "components": [
                            {
                              "internalType": "string",
                              "name": "id",
                              "type": "string"
                            },
                            {
                              "internalType": "string",
                              "name": "hasType",
                              "type": "string"
                            },
                            {
                              "internalType": "string",
                              "name": "status",
                              "type": "string"
                            },
                            {
                              "internalType": "int256",
                              "name": "code",
                              "type": "int256"
                            },
                            {
                              "internalType": "bool",
                              "name": "exists",
                              "type": "bool"
                            }
                          ],
                          "internalType": "struct case1.Procedure",
                          "name": "procedure",
                          "type": "tuple"
                        },
                        {
                          "components": [
                            {
                              "internalType": "string",
                              "name": "id",
                              "type": "string"
                            },
                            {
                              "internalType": "string",
                              "name": "hasType",
                              "type": "string"
                            },
                            {
                              "components": [
                                {
                                  "internalType": "string",
                                  "name": "id",
                                  "type": "string"
                                },
                                {
                                  "internalType": "string",
                                  "name": "hasType",
                                  "type": "string"
                                },
                                {
                                  "internalType": "bool",
                                  "name": "exists",
                                  "type": "bool"
                                }
                              ],
                              "internalType": "struct case1.Insurer",
                              "name": "insurer",
                              "type": "tuple"
                            },
                            {
                              "components": [
                                {
                                  "internalType": "string",
                                  "name": "id",
                                  "type": "string"
                                },
                                {
                                  "internalType": "string",
                                  "name": "hasType",
                                  "type": "string"
                                },
                                {
                                  "internalType": "bool",
                                  "name": "exists",
                                  "type": "bool"
                                }
                              ],
                              "internalType": "struct case1.Class",
                              "name": "class",
                              "type": "tuple"
                            },
                            {
                              "internalType": "bool",
                              "name": "exists",
                              "type": "bool"
                            }
                          ],
                          "internalType": "struct case1.Insurance",
                          "name": "insurance",
                          "type": "tuple"
                        },
                        {
                          "internalType": "bool",
                          "name": "exists",
                          "type": "bool"
                        }
                      ],
                      "internalType": "struct case1.Claim[]",
                      "name": "subjectOf",
                      "type": "tuple[]"
                    },
                    {
                      "components": [
                        {
                          "internalType": "string",
                          "name": "id",
                          "type": "string"
                        },
                        {
                          "internalType": "string",
                          "name": "hasType",
                          "type": "string"
                        },
                        {
                          "components": [
                            {
                              "internalType": "string",
                              "name": "id",
                              "type": "string"
                            },
                            {
                              "internalType": "string",
                              "name": "hasType",
                              "type": "string"
                            },
                            {
                              "internalType": "bool",
                              "name": "exists",
                              "type": "bool"
                            }
                          ],
                          "internalType": "struct case1.Insurer",
                          "name": "insurer",
                          "type": "tuple"
                        },
                        {
                          "components": [
                            {
                              "internalType": "string",
                              "name": "id",
                              "type": "string"
                            },
                            {
                              "internalType": "string",
                              "name": "hasType",
                              "type": "string"
                            },
                            {
                              "internalType": "bool",
                              "name": "exists",
                              "type": "bool"
                            }
                          ],
                          "internalType": "struct case1.Class",
                          "name": "class",
                          "type": "tuple"
                        },
                        {
                          "internalType": "string",
                          "name": "status",
                          "type": "string"
                        },
                        {
                          "internalType": "bool",
                          "name": "exists",
                          "type": "bool"
                        }
                      ],
                      "internalType": "struct case1.Coverage[]",
                      "name": "policyHolderOf",
                      "type": "tuple[]"
                    },
                    {
                      "internalType": "bool",
                      "name": "exists",
                      "type": "bool"
                    }
                  ],
                  "internalType": "struct case1.Patient",
                  "name": "patient",
                  "type": "tuple"
                },
                {
                  "internalType": "bool",
                  "name": "exists",
                  "type": "bool"
                }
              ],
              "internalType": "struct case1.CoverageEligibilityResponse",
              "name": "response",
              "type": "tuple"
            },
            {
              "internalType": "bool",
              "name": "exists",
              "type": "bool"
            }
          ],
          "internalType": "struct case1.CoverageEligibilityRequest",
          "name": "req",
          "type": "tuple"
        },
        {
          "components": [
            {
              "internalType": "string",
              "name": "id",
              "type": "string"
            },
            {
              "internalType": "string",
              "name": "hasType",
              "type": "string"
            },
            {
              "components": [
                {
                  "internalType": "string",
                  "name": "id",
                  "type": "string"
                },
                {
                  "internalType": "string",
                  "name": "hasType",
                  "type": "string"
                },
                {
                  "internalType": "string",
                  "name": "status",
                  "type": "string"
                },
                {
                  "internalType": "int256",
                  "name": "code",
                  "type": "int256"
                },
                {
                  "internalType": "bool",
                  "name": "exists",
                  "type": "bool"
                }
              ],
              "internalType": "struct case1.Procedure",
              "name": "procedure",
              "type": "tuple"
            },
            {
              "components": [
                {
                  "internalType": "string",
                  "name": "id",
                  "type": "string"
                },
                {
                  "internalType": "string",
                  "name": "hasType",
                  "type": "string"
                },
                {
                  "components": [
                    {
                      "internalType": "string",
                      "name": "id",
                      "type": "string"
                    },
                    {
                      "internalType": "string",
                      "name": "hasType",
                      "type": "string"
                    },
                    {
                      "internalType": "bool",
                      "name": "exists",
                      "type": "bool"
                    }
                  ],
                  "internalType": "struct case1.Insurer",
                  "name": "insurer",
                  "type": "tuple"
                },
                {
                  "components": [
                    {
                      "internalType": "string",
                      "name": "id",
                      "type": "string"
                    },
                    {
                      "internalType": "string",
                      "name": "hasType",
                      "type": "string"
                    },
                    {
                      "internalType": "bool",
                      "name": "exists",
                      "type": "bool"
                    }
                  ],
                  "internalType": "struct case1.Class",
                  "name": "class",
                  "type": "tuple"
                },
                {
                  "internalType": "bool",
                  "name": "exists",
                  "type": "bool"
                }
              ],
              "internalType": "struct case1.Insurance",
              "name": "insurance",
              "type": "tuple"
            },
            {
              "internalType": "bool",
              "name": "exists",
              "type": "bool"
            }
          ],
          "internalType": "struct case1.Claim[]",
          "name": "results",
          "type": "tuple[]"
        }
      ],
      "name": "callback1",
      "outputs": [],
      "stateMutability": "nonpayable",
      "type": "function"
    },
    {
      "inputs": [
        {
          "components": [
            {
              "internalType": "string",
              "name": "purpose",
              "type": "string"
            },
            {
              "internalType": "string",
              "name": "id",
              "type": "string"
            },
            {
              "internalType": "string",
              "name": "hasType",
              "type": "string"
            },
            {
              "components": [
                {
                  "internalType": "string",
                  "name": "id",
                  "type": "string"
                },
                {
                  "internalType": "string",
                  "name": "hasType",
                  "type": "string"
                },
                {
                  "components": [
                    {
                      "internalType": "string",
                      "name": "id",
                      "type": "string"
                    },
                    {
                      "internalType": "string",
                      "name": "hasType",
                      "type": "string"
                    },
                    {
                      "internalType": "string",
                      "name": "concept",
                      "type": "string"
                    },
                    {
                      "internalType": "bool",
                      "name": "exists",
                      "type": "bool"
                    }
                  ],
                  "internalType": "struct case1.Medication[]",
                  "name": "medication",
                  "type": "tuple[]"
                },
                {
                  "components": [
                    {
                      "internalType": "string",
                      "name": "id",
                      "type": "string"
                    },
                    {
                      "internalType": "string",
                      "name": "hasType",
                      "type": "string"
                    },
                    {
                      "internalType": "string",
                      "name": "status",
                      "type": "string"
                    },
                    {
                      "internalType": "int256",
                      "name": "code",
                      "type": "int256"
                    },
                    {
                      "internalType": "bool",
                      "name": "exists",
                      "type": "bool"
                    }
                  ],
                  "internalType": "struct case1.Procedure",
                  "name": "eligibleTransplant",
                  "type": "tuple"
                },
                {
                  "internalType": "bool",
                  "name": "exists",
                  "type": "bool"
                }
              ],
              "internalType": "struct case1.MedicationRequest[]",
              "name": "item",
              "type": "tuple[]"
            },
            {
              "components": [
                {
                  "internalType": "string",
                  "name": "id",
                  "type": "string"
                },
                {
                  "internalType": "string",
                  "name": "hasType",
                  "type": "string"
                },
                {
                  "components": [
                    {
                      "internalType": "string",
                      "name": "id",
                      "type": "string"
                    },
                    {
                      "internalType": "string",
                      "name": "hasType",
                      "type": "string"
                    },
                    {
                      "internalType": "string",
                      "name": "concept",
                      "type": "string"
                    },
                    {
                      "internalType": "bool",
                      "name": "exists",
                      "type": "bool"
                    }
                  ],
                  "internalType": "struct case1.Medication[]",
                  "name": "medication",
                  "type": "tuple[]"
                },
                {
                  "components": [
                    {
                      "internalType": "string",
                      "name": "id",
                      "type": "string"
                    },
                    {
                      "internalType": "string",
                      "name": "hasType",
                      "type": "string"
                    },
                    {
                      "internalType": "string",
                      "name": "status",
                      "type": "string"
                    },
                    {
                      "internalType": "int256",
                      "name": "code",
                      "type": "int256"
                    },
                    {
                      "internalType": "bool",
                      "name": "exists",
                      "type": "bool"
                    }
                  ],
                  "internalType": "struct case1.Procedure",
                  "name": "eligibleTransplant",
                  "type": "tuple"
                },
                {
                  "internalType": "bool",
                  "name": "exists",
                  "type": "bool"
                }
              ],
              "internalType": "struct case1.MedicationRequest",
              "name": "immunoTherapyItem",
              "type": "tuple"
            },
            {
              "components": [
                {
                  "internalType": "string",
                  "name": "id",
                  "type": "string"
                },
                {
                  "internalType": "string",
                  "name": "hasType",
                  "type": "string"
                },
                {
                  "components": [
                    {
                      "internalType": "string",
                      "name": "id",
                      "type": "string"
                    },
                    {
                      "internalType": "string",
                      "name": "hasType",
                      "type": "string"
                    },
                    {
                      "components": [
                        {
                          "internalType": "string",
                          "name": "id",
                          "type": "string"
                        },
                        {
                          "internalType": "string",
                          "name": "hasType",
                          "type": "string"
                        },
                        {
                          "internalType": "string",
                          "name": "status",
                          "type": "string"
                        },
                        {
                          "internalType": "int256",
                          "name": "code",
                          "type": "int256"
                        },
                        {
                          "internalType": "bool",
                          "name": "exists",
                          "type": "bool"
                        }
                      ],
                      "internalType": "struct case1.Procedure",
                      "name": "procedure",
                      "type": "tuple"
                    },
                    {
                      "components": [
                        {
                          "internalType": "string",
                          "name": "id",
                          "type": "string"
                        },
                        {
                          "internalType": "string",
                          "name": "hasType",
                          "type": "string"
                        },
                        {
                          "components": [
                            {
                              "internalType": "string",
                              "name": "id",
                              "type": "string"
                            },
                            {
                              "internalType": "string",
                              "name": "hasType",
                              "type": "string"
                            },
                            {
                              "internalType": "bool",
                              "name": "exists",
                              "type": "bool"
                            }
                          ],
                          "internalType": "struct case1.Insurer",
                          "name": "insurer",
                          "type": "tuple"
                        },
                        {
                          "components": [
                            {
                              "internalType": "string",
                              "name": "id",
                              "type": "string"
                            },
                            {
                              "internalType": "string",
                              "name": "hasType",
                              "type": "string"
                            },
                            {
                              "internalType": "bool",
                              "name": "exists",
                              "type": "bool"
                            }
                          ],
                          "internalType": "struct case1.Class",
                          "name": "class",
                          "type": "tuple"
                        },
                        {
                          "internalType": "bool",
                          "name": "exists",
                          "type": "bool"
                        }
                      ],
                      "internalType": "struct case1.Insurance",
                      "name": "insurance",
                      "type": "tuple"
                    },
                    {
                      "internalType": "bool",
                      "name": "exists",
                      "type": "bool"
                    }
                  ],
                  "internalType": "struct case1.Claim[]",
                  "name": "subjectOf",
                  "type": "tuple[]"
                },
                {
                  "components": [
                    {
                      "internalType": "string",
                      "name": "id",
                      "type": "string"
                    },
                    {
                      "internalType": "string",
                      "name": "hasType",
                      "type": "string"
                    },
                    {
                      "components": [
                        {
                          "internalType": "string",
                          "name": "id",
                          "type": "string"
                        },
                        {
                          "internalType": "string",
                          "name": "hasType",
                          "type": "string"
                        },
                        {
                          "internalType": "bool",
                          "name": "exists",
                          "type": "bool"
                        }
                      ],
                      "internalType": "struct case1.Insurer",
                      "name": "insurer",
                      "type": "tuple"
                    },
                    {
                      "components": [
                        {
                          "internalType": "string",
                          "name": "id",
                          "type": "string"
                        },
                        {
                          "internalType": "string",
                          "name": "hasType",
                          "type": "string"
                        },
                        {
                          "internalType": "bool",
                          "name": "exists",
                          "type": "bool"
                        }
                      ],
                      "internalType": "struct case1.Class",
                      "name": "class",
                      "type": "tuple"
                    },
                    {
                      "internalType": "string",
                      "name": "status",
                      "type": "string"
                    },
                    {
                      "internalType": "bool",
                      "name": "exists",
                      "type": "bool"
                    }
                  ],
                  "internalType": "struct case1.Coverage[]",
                  "name": "policyHolderOf",
                  "type": "tuple[]"
                },
                {
                  "internalType": "bool",
                  "name": "exists",
                  "type": "bool"
                }
              ],
              "internalType": "struct case1.Patient",
              "name": "patient",
              "type": "tuple"
            },
            {
              "components": [
                {
                  "internalType": "string",
                  "name": "id",
                  "type": "string"
                },
                {
                  "internalType": "string",
                  "name": "hasType",
                  "type": "string"
                },
                {
                  "internalType": "string",
                  "name": "outcome",
                  "type": "string"
                },
                {
                  "components": [
                    {
                      "internalType": "string",
                      "name": "id",
                      "type": "string"
                    },
                    {
                      "internalType": "string",
                      "name": "hasType",
                      "type": "string"
                    },
                    {
                      "components": [
                        {
                          "internalType": "string",
                          "name": "id",
                          "type": "string"
                        },
                        {
                          "internalType": "string",
                          "name": "hasType",
                          "type": "string"
                        },
                        {
                          "internalType": "string",
                          "name": "concept",
                          "type": "string"
                        },
                        {
                          "internalType": "bool",
                          "name": "exists",
                          "type": "bool"
                        }
                      ],
                      "internalType": "struct case1.Medication[]",
                      "name": "medication",
                      "type": "tuple[]"
                    },
                    {
                      "components": [
                        {
                          "internalType": "string",
                          "name": "id",
                          "type": "string"
                        },
                        {
                          "internalType": "string",
                          "name": "hasType",
                          "type": "string"
                        },
                        {
                          "internalType": "string",
                          "name": "status",
                          "type": "string"
                        },
                        {
                          "internalType": "int256",
                          "name": "code",
                          "type": "int256"
                        },
                        {
                          "internalType": "bool",
                          "name": "exists",
                          "type": "bool"
                        }
                      ],
                      "internalType": "struct case1.Procedure",
                      "name": "eligibleTransplant",
                      "type": "tuple"
                    },
                    {
                      "internalType": "bool",
                      "name": "exists",
                      "type": "bool"
                    }
                  ],
                  "internalType": "struct case1.MedicationRequest",
                  "name": "request",
                  "type": "tuple"
                },
                {
                  "components": [
                    {
                      "internalType": "string",
                      "name": "id",
                      "type": "string"
                    },
                    {
                      "internalType": "string",
                      "name": "hasType",
                      "type": "string"
                    },
                    {
                      "components": [
                        {
                          "internalType": "string",
                          "name": "id",
                          "type": "string"
                        },
                        {
                          "internalType": "string",
                          "name": "hasType",
                          "type": "string"
                        },
                        {
                          "internalType": "bool",
                          "name": "exists",
                          "type": "bool"
                        }
                      ],
                      "internalType": "struct case1.Insurer",
                      "name": "insurer",
                      "type": "tuple"
                    },
                    {
                      "components": [
                        {
                          "internalType": "string",
                          "name": "id",
                          "type": "string"
                        },
                        {
                          "internalType": "string",
                          "name": "hasType",
                          "type": "string"
                        },
                        {
                          "internalType": "bool",
                          "name": "exists",
                          "type": "bool"
                        }
                      ],
                      "internalType": "struct case1.Class",
                      "name": "class",
                      "type": "tuple"
                    },
                    {
                      "internalType": "string",
                      "name": "status",
                      "type": "string"
                    },
                    {
                      "internalType": "bool",
                      "name": "exists",
                      "type": "bool"
                    }
                  ],
                  "internalType": "struct case1.Coverage",
                  "name": "covered",
                  "type": "tuple"
                },
                {
                  "components": [
                    {
                      "internalType": "string",
                      "name": "id",
                      "type": "string"
                    },
                    {
                      "internalType": "string",
                      "name": "hasType",
                      "type": "string"
                    },
                    {
                      "components": [
                        {
                          "internalType": "string",
                          "name": "id",
                          "type": "string"
                        },
                        {
                          "internalType": "string",
                          "name": "hasType",
                          "type": "string"
                        },
                        {
                          "components": [
                            {
                              "internalType": "string",
                              "name": "id",
                              "type": "string"
                            },
                            {
                              "internalType": "string",
                              "name": "hasType",
                              "type": "string"
                            },
                            {
                              "internalType": "string",
                              "name": "status",
                              "type": "string"
                            },
                            {
                              "internalType": "int256",
                              "name": "code",
                              "type": "int256"
                            },
                            {
                              "internalType": "bool",
                              "name": "exists",
                              "type": "bool"
                            }
                          ],
                          "internalType": "struct case1.Procedure",
                          "name": "procedure",
                          "type": "tuple"
                        },
                        {
                          "components": [
                            {
                              "internalType": "string",
                              "name": "id",
                              "type": "string"
                            },
                            {
                              "internalType": "string",
                              "name": "hasType",
                              "type": "string"
                            },
                            {
                              "components": [
                                {
                                  "internalType": "string",
                                  "name": "id",
                                  "type": "string"
                                },
                                {
                                  "internalType": "string",
                                  "name": "hasType",
                                  "type": "string"
                                },
                                {
                                  "internalType": "bool",
                                  "name": "exists",
                                  "type": "bool"
                                }
                              ],
                              "internalType": "struct case1.Insurer",
                              "name": "insurer",
                              "type": "tuple"
                            },
                            {
                              "components": [
                                {
                                  "internalType": "string",
                                  "name": "id",
                                  "type": "string"
                                },
                                {
                                  "internalType": "string",
                                  "name": "hasType",
                                  "type": "string"
                                },
                                {
                                  "internalType": "bool",
                                  "name": "exists",
                                  "type": "bool"
                                }
                              ],
                              "internalType": "struct case1.Class",
                              "name": "class",
                              "type": "tuple"
                            },
                            {
                              "internalType": "bool",
                              "name": "exists",
                              "type": "bool"
                            }
                          ],
                          "internalType": "struct case1.Insurance",
                          "name": "insurance",
                          "type": "tuple"
                        },
                        {
                          "internalType": "bool",
                          "name": "exists",
                          "type": "bool"
                        }
                      ],
                      "internalType": "struct case1.Claim[]",
                      "name": "subjectOf",
                      "type": "tuple[]"
                    },
                    {
                      "components": [
                        {
                          "internalType": "string",
                          "name": "id",
                          "type": "string"
                        },
                        {
                          "internalType": "string",
                          "name": "hasType",
                          "type": "string"
                        },
                        {
                          "components": [
                            {
                              "internalType": "string",
                              "name": "id",
                              "type": "string"
                            },
                            {
                              "internalType": "string",
                              "name": "hasType",
                              "type": "string"
                            },
                            {
                              "internalType": "bool",
                              "name": "exists",
                              "type": "bool"
                            }
                          ],
                          "internalType": "struct case1.Insurer",
                          "name": "insurer",
                          "type": "tuple"
                        },
                        {
                          "components": [
                            {
                              "internalType": "string",
                              "name": "id",
                              "type": "string"
                            },
                            {
                              "internalType": "string",
                              "name": "hasType",
                              "type": "string"
                            },
                            {
                              "internalType": "bool",
                              "name": "exists",
                              "type": "bool"
                            }
                          ],
                          "internalType": "struct case1.Class",
                          "name": "class",
                          "type": "tuple"
                        },
                        {
                          "internalType": "string",
                          "name": "status",
                          "type": "string"
                        },
                        {
                          "internalType": "bool",
                          "name": "exists",
                          "type": "bool"
                        }
                      ],
                      "internalType": "struct case1.Coverage[]",
                      "name": "policyHolderOf",
                      "type": "tuple[]"
                    },
                    {
                      "internalType": "bool",
                      "name": "exists",
                      "type": "bool"
                    }
                  ],
                  "internalType": "struct case1.Patient",
                  "name": "patient",
                  "type": "tuple"
                },
                {
                  "internalType": "bool",
                  "name": "exists",
                  "type": "bool"
                }
              ],
              "internalType": "struct case1.CoverageEligibilityResponse",
              "name": "response",
              "type": "tuple"
            },
            {
              "internalType": "bool",
              "name": "exists",
              "type": "bool"
            }
          ],
          "internalType": "struct case1.CoverageEligibilityRequest",
          "name": "req",
          "type": "tuple"
        },
        {
          "components": [
            {
              "internalType": "string",
              "name": "id",
              "type": "string"
            },
            {
              "internalType": "string",
              "name": "hasType",
              "type": "string"
            },
            {
              "components": [
                {
                  "internalType": "string",
                  "name": "id",
                  "type": "string"
                },
                {
                  "internalType": "string",
                  "name": "hasType",
                  "type": "string"
                },
                {
                  "internalType": "bool",
                  "name": "exists",
                  "type": "bool"
                }
              ],
              "internalType": "struct case1.Insurer",
              "name": "insurer",
              "type": "tuple"
            },
            {
              "components": [
                {
                  "internalType": "string",
                  "name": "id",
                  "type": "string"
                },
                {
                  "internalType": "string",
                  "name": "hasType",
                  "type": "string"
                },
                {
                  "internalType": "bool",
                  "name": "exists",
                  "type": "bool"
                }
              ],
              "internalType": "struct case1.Class",
              "name": "class",
              "type": "tuple"
            },
            {
              "internalType": "string",
              "name": "status",
              "type": "string"
            },
            {
              "internalType": "bool",
              "name": "exists",
              "type": "bool"
            }
          ],
          "internalType": "struct case1.Coverage[]",
          "name": "results",
          "type": "tuple[]"
        }
      ],
      "name": "callback2",
      "outputs": [],
      "stateMutability": "nonpayable",
      "type": "function"
    }
  ],
  "bytecode": "0x608060405234801561001057600080fd5b50612754806100206000396000f3fe608060405234801561001057600080fd5b50600436106100415760003560e01c806341ece7941461004657806373fed92d14610062578063f4d2bad51461007e575b600080fd5b610060600480360381019061005b91906118ff565b61009a565b005b61007c60048036038101906100779190611977565b610380565b005b610098600480360381019061009391906119c0565b61058f565b005b60005b81518110156102345760008282815181106100bb576100ba611a38565b5b60200260200101519050806060015160800151801561012b57507fcfcc7af9aadf661b705571c7fafa14e2be11ee3e19c15353fbafe7a9398936b0816060015160600151602001516040516020016101139190611ad8565b60405160208183030381529060405280519060200120145b801561018857507f90f2283f05cd1bf6bfc18816cac0883ed8cba4b8d071671ed37de9e486313728816060015160400151602001516040516020016101709190611ad8565b60405160208183030381529060405280519060200120145b801561019957508060400151608001515b80156101b0575063049e05ad816040015160600151145b801561020957507f6216ba39af4188a6d7c765710d7e6075007c3444b59a22a973d1b958c43e60bb8160400151604001516040516020016101f19190611ad8565b60405160208183030381529060405280519060200120145b156102205780604001518460800151606001819052505b50808061022c90611b28565b91505061009d565b508160a0015160800151801561024f57508160800151608001515b80156102645750816080015160600151608001515b1561037c577f2a118f9df4d6f9beecbeef76e4637ebec7806aa06d3e7ae898b06fa8c642453f60405180608001604052808481526020016040518060400160405280600881526020017f436f766572616765000000000000000000000000000000000000000000000000815250815260200160405180604001604052806040518060400160405280600c81526020017f706f6c696379486f6c646572000000000000000000000000000000000000000081525081526020018660a001516000015181525081526020016040518060400160405280600981526020017f63616c6c6261636b320000000000000000000000000000000000000000000000815250815250604051610373919061261b565b60405180910390a15b5050565b60008160600151511180156103de57507f9abeb3b79933c80ba266c7bfae4e1552e05b2e8f4b11e956d6d744b05e5b613e81600001516040516020016103c69190611ad8565b60405160208183030381529060405280519060200120145b1561045a5760005b8160600151518110156104585760008260600151828151811061040c5761040b611a38565b5b602002602001015190506000816040015151118015610435575061043483826040015161080e565b5b15610444578083608001819052505b50808061045090611b28565b9150506103e6565b505b8060a0015160800151801561047457508060800151608001515b1561058c577f2a118f9df4d6f9beecbeef76e4637ebec7806aa06d3e7ae898b06fa8c642453f60405180608001604052808381526020016040518060400160405280600581526020017f436c61696d000000000000000000000000000000000000000000000000000000815250815260200160405180604001604052806040518060400160405280600781526020017f7375626a6563740000000000000000000000000000000000000000000000000081525081526020018560a001516000015181525081526020016040518060400160405280600981526020017f63616c6c6261636b310000000000000000000000000000000000000000000000815250815250604051610583919061261b565b60405180910390a15b50565b60005b81518110156108095760008282815181106105b0576105af611a38565b5b60200260200101519050806060015160400151801561067457507f824a601788f3d0a04585f55a613ffaffd162509f93b945ef80b0918440d34af18160600151602001516040516020016106049190611ad8565b60405160208183030381529060405280519060200120148061067357507faeb1c7f1ea383f614deeaebcd1cd2351fe19636459bd64a068e4dabd7d13e68881606001516020015160405160200161065b9190611ad8565b60405160208183030381529060405280519060200120145b5b80156106cd57507f90f2283f05cd1bf6bfc18816cac0883ed8cba4b8d071671ed37de9e4863137288160400151602001516040516020016106b59190611ad8565b60405160208183030381529060405280519060200120145b156107f55760006040518060e001604052806040518060400160405280600381526020017f313233000000000000000000000000000000000000000000000000000000000081525081526020016040518060400160405280600381526020017f313233000000000000000000000000000000000000000000000000000000000081525081526020016040518060400160405280600881526020017f636f6d706c6574650000000000000000000000000000000000000000000000008152508152602001866080015181526020018381526020018660a001518152602001600115158152509050808560c001819052507faebf1197fd6cfe01d9a189c35390a88e2992ec1c255215286b406ac166467694816040516107eb91906126fc565b60405180910390a1505b50808061080190611b28565b915050610592565b505050565b600080600090505b82518110156108ae57600083828151811061083457610833611a38565b5b602002602001015190507fea48aece6309b5bdb21bc9243432ce946d44ff76bd4b2246efe82624ebe08bf481604001516040516020016108749190611ad8565b604051602081830303815290604052805190602001200361089a576001925050506108b4565b5080806108a690611b28565b915050610816565b50600090505b92915050565b6000604051905090565b600080fd5b600080fd5b600080fd5b6000601f19601f8301169050919050565b7f4e487b7100000000000000000000000000000000000000000000000000000000600052604160045260246000fd5b61091c826108d3565b810181811067ffffffffffffffff8211171561093b5761093a6108e4565b5b80604052505050565b600061094e6108ba565b905061095a8282610913565b919050565b600080fd5b600080fd5b600080fd5b600067ffffffffffffffff821115610989576109886108e4565b5b610992826108d3565b9050602081019050919050565b82818337600083830152505050565b60006109c16109bc8461096e565b610944565b9050828152602081018484840111156109dd576109dc610969565b5b6109e884828561099f565b509392505050565b600082601f830112610a0557610a04610964565b5b8135610a158482602086016109ae565b91505092915050565b600067ffffffffffffffff821115610a3957610a386108e4565b5b602082029050602081019050919050565b600080fd5b600067ffffffffffffffff821115610a6a57610a696108e4565b5b602082029050602081019050919050565b60008115159050919050565b610a9081610a7b565b8114610a9b57600080fd5b50565b600081359050610aad81610a87565b92915050565b600060808284031215610ac957610ac86108ce565b5b610ad36080610944565b9050600082013567ffffffffffffffff811115610af357610af261095f565b5b610aff848285016109f0565b600083015250602082013567ffffffffffffffff811115610b2357610b2261095f565b5b610b2f848285016109f0565b602083015250604082013567ffffffffffffffff811115610b5357610b5261095f565b5b610b5f848285016109f0565b6040830152506060610b7384828501610a9e565b60608301525092915050565b6000610b92610b8d84610a4f565b610944565b90508083825260208201905060208402830185811115610bb557610bb4610a4a565b5b835b81811015610bfc57803567ffffffffffffffff811115610bda57610bd9610964565b5b808601610be78982610ab3565b85526020850194505050602081019050610bb7565b5050509392505050565b600082601f830112610c1b57610c1a610964565b5b8135610c2b848260208601610b7f565b91505092915050565b6000819050919050565b610c4781610c34565b8114610c5257600080fd5b50565b600081359050610c6481610c3e565b92915050565b600060a08284031215610c8057610c7f6108ce565b5b610c8a60a0610944565b9050600082013567ffffffffffffffff811115610caa57610ca961095f565b5b610cb6848285016109f0565b600083015250602082013567ffffffffffffffff811115610cda57610cd961095f565b5b610ce6848285016109f0565b602083015250604082013567ffffffffffffffff811115610d0a57610d0961095f565b5b610d16848285016109f0565b6040830152506060610d2a84828501610c55565b6060830152506080610d3e84828501610a9e565b60808301525092915050565b600060a08284031215610d6057610d5f6108ce565b5b610d6a60a0610944565b9050600082013567ffffffffffffffff811115610d8a57610d8961095f565b5b610d96848285016109f0565b600083015250602082013567ffffffffffffffff811115610dba57610db961095f565b5b610dc6848285016109f0565b602083015250604082013567ffffffffffffffff811115610dea57610de961095f565b5b610df684828501610c06565b604083015250606082013567ffffffffffffffff811115610e1a57610e1961095f565b5b610e2684828501610c6a565b6060830152506080610e3a84828501610a9e565b60808301525092915050565b6000610e59610e5484610a1e565b610944565b90508083825260208201905060208402830185811115610e7c57610e7b610a4a565b5b835b81811015610ec357803567ffffffffffffffff811115610ea157610ea0610964565b5b808601610eae8982610d4a565b85526020850194505050602081019050610e7e565b5050509392505050565b600082601f830112610ee257610ee1610964565b5b8135610ef2848260208601610e46565b91505092915050565b600067ffffffffffffffff821115610f1657610f156108e4565b5b602082029050602081019050919050565b600060608284031215610f3d57610f3c6108ce565b5b610f476060610944565b9050600082013567ffffffffffffffff811115610f6757610f6661095f565b5b610f73848285016109f0565b600083015250602082013567ffffffffffffffff811115610f9757610f9661095f565b5b610fa3848285016109f0565b6020830152506040610fb784828501610a9e565b60408301525092915050565b600060608284031215610fd957610fd86108ce565b5b610fe36060610944565b9050600082013567ffffffffffffffff8111156110035761100261095f565b5b61100f848285016109f0565b600083015250602082013567ffffffffffffffff8111156110335761103261095f565b5b61103f848285016109f0565b602083015250604061105384828501610a9e565b60408301525092915050565b600060a08284031215611075576110746108ce565b5b61107f60a0610944565b9050600082013567ffffffffffffffff81111561109f5761109e61095f565b5b6110ab848285016109f0565b600083015250602082013567ffffffffffffffff8111156110cf576110ce61095f565b5b6110db848285016109f0565b602083015250604082013567ffffffffffffffff8111156110ff576110fe61095f565b5b61110b84828501610f27565b604083015250606082013567ffffffffffffffff81111561112f5761112e61095f565b5b61113b84828501610fc3565b606083015250608061114f84828501610a9e565b60808301525092915050565b600060a08284031215611171576111706108ce565b5b61117b60a0610944565b9050600082013567ffffffffffffffff81111561119b5761119a61095f565b5b6111a7848285016109f0565b600083015250602082013567ffffffffffffffff8111156111cb576111ca61095f565b5b6111d7848285016109f0565b602083015250604082013567ffffffffffffffff8111156111fb576111fa61095f565b5b61120784828501610c6a565b604083015250606082013567ffffffffffffffff81111561122b5761122a61095f565b5b6112378482850161105f565b606083015250608061124b84828501610a9e565b60808301525092915050565b600061126a61126584610efb565b610944565b9050808382526020820190506020840283018581111561128d5761128c610a4a565b5b835b818110156112d457803567ffffffffffffffff8111156112b2576112b1610964565b5b8086016112bf898261115b565b8552602085019450505060208101905061128f565b5050509392505050565b600082601f8301126112f3576112f2610964565b5b8135611303848260208601611257565b91505092915050565b600067ffffffffffffffff821115611327576113266108e4565b5b602082029050602081019050919050565b600060c0828403121561134e5761134d6108ce565b5b61135860c0610944565b9050600082013567ffffffffffffffff8111156113785761137761095f565b5b611384848285016109f0565b600083015250602082013567ffffffffffffffff8111156113a8576113a761095f565b5b6113b4848285016109f0565b602083015250604082013567ffffffffffffffff8111156113d8576113d761095f565b5b6113e484828501610f27565b604083015250606082013567ffffffffffffffff8111156114085761140761095f565b5b61141484828501610fc3565b606083015250608082013567ffffffffffffffff8111156114385761143761095f565b5b611444848285016109f0565b60808301525060a061145884828501610a9e565b60a08301525092915050565b60006114776114728461130c565b610944565b9050808382526020820190506020840283018581111561149a57611499610a4a565b5b835b818110156114e157803567ffffffffffffffff8111156114bf576114be610964565b5b8086016114cc8982611338565b8552602085019450505060208101905061149c565b5050509392505050565b600082601f830112611500576114ff610964565b5b8135611510848260208601611464565b91505092915050565b600060a0828403121561152f5761152e6108ce565b5b61153960a0610944565b9050600082013567ffffffffffffffff8111156115595761155861095f565b5b611565848285016109f0565b600083015250602082013567ffffffffffffffff8111156115895761158861095f565b5b611595848285016109f0565b602083015250604082013567ffffffffffffffff8111156115b9576115b861095f565b5b6115c5848285016112de565b604083015250606082013567ffffffffffffffff8111156115e9576115e861095f565b5b6115f5848285016114eb565b606083015250608061160984828501610a9e565b60808301525092915050565b600060e0828403121561162b5761162a6108ce565b5b61163560e0610944565b9050600082013567ffffffffffffffff8111156116555761165461095f565b5b611661848285016109f0565b600083015250602082013567ffffffffffffffff8111156116855761168461095f565b5b611691848285016109f0565b602083015250604082013567ffffffffffffffff8111156116b5576116b461095f565b5b6116c1848285016109f0565b604083015250606082013567ffffffffffffffff8111156116e5576116e461095f565b5b6116f184828501610d4a565b606083015250608082013567ffffffffffffffff8111156117155761171461095f565b5b61172184828501611338565b60808301525060a082013567ffffffffffffffff8111156117455761174461095f565b5b61175184828501611519565b60a08301525060c061176584828501610a9e565b60c08301525092915050565b60006101008284031215611788576117876108ce565b5b611793610100610944565b9050600082013567ffffffffffffffff8111156117b3576117b261095f565b5b6117bf848285016109f0565b600083015250602082013567ffffffffffffffff8111156117e3576117e261095f565b5b6117ef848285016109f0565b602083015250604082013567ffffffffffffffff8111156118135761181261095f565b5b61181f848285016109f0565b604083015250606082013567ffffffffffffffff8111156118435761184261095f565b5b61184f84828501610ecd565b606083015250608082013567ffffffffffffffff8111156118735761187261095f565b5b61187f84828501610d4a565b60808301525060a082013567ffffffffffffffff8111156118a3576118a261095f565b5b6118af84828501611519565b60a08301525060c082013567ffffffffffffffff8111156118d3576118d261095f565b5b6118df84828501611615565b60c08301525060e06118f384828501610a9e565b60e08301525092915050565b60008060408385031215611916576119156108c4565b5b600083013567ffffffffffffffff811115611934576119336108c9565b5b61194085828601611771565b925050602083013567ffffffffffffffff811115611961576119606108c9565b5b61196d858286016112de565b9150509250929050565b60006020828403121561198d5761198c6108c4565b5b600082013567ffffffffffffffff8111156119ab576119aa6108c9565b5b6119b784828501611771565b91505092915050565b600080604083850312156119d7576119d66108c4565b5b600083013567ffffffffffffffff8111156119f5576119f46108c9565b5b611a0185828601611771565b925050602083013567ffffffffffffffff811115611a2257611a216108c9565b5b611a2e858286016114eb565b9150509250929050565b7f4e487b7100000000000000000000000000000000000000000000000000000000600052603260045260246000fd5b600081519050919050565b600081905092915050565b60005b83811015611a9b578082015181840152602081019050611a80565b60008484015250505050565b6000611ab282611a67565b611abc8185611a72565b9350611acc818560208601611a7d565b80840191505092915050565b6000611ae48284611aa7565b915081905092915050565b7f4e487b7100000000000000000000000000000000000000000000000000000000600052601160045260246000fd5b6000819050919050565b6000611b3382611b1e565b91507fffffffffffffffffffffffffffffffffffffffffffffffffffffffffffffffff8203611b6557611b64611aef565b5b600182019050919050565b600082825260208201905092915050565b6000611b8c82611a67565b611b968185611b70565b9350611ba6818560208601611a7d565b611baf816108d3565b840191505092915050565b600081519050919050565b600082825260208201905092915050565b6000819050602082019050919050565b600081519050919050565b600082825260208201905092915050565b6000819050602082019050919050565b611c1b81610a7b565b82525050565b60006080830160008301518482036000860152611c3e8282611b81565b91505060208301518482036020860152611c588282611b81565b91505060408301518482036040860152611c728282611b81565b9150506060830151611c876060860182611c12565b508091505092915050565b6000611c9e8383611c21565b905092915050565b6000602082019050919050565b6000611cbe82611be6565b611cc88185611bf1565b935083602082028501611cda85611c02565b8060005b85811015611d165784840389528151611cf78582611c92565b9450611d0283611ca6565b925060208a01995050600181019050611cde565b50829750879550505050505092915050565b611d3181610c34565b82525050565b600060a0830160008301518482036000860152611d548282611b81565b91505060208301518482036020860152611d6e8282611b81565b91505060408301518482036040860152611d888282611b81565b9150506060830151611d9d6060860182611d28565b506080830151611db06080860182611c12565b508091505092915050565b600060a0830160008301518482036000860152611dd88282611b81565b91505060208301518482036020860152611df28282611b81565b91505060408301518482036040860152611e0c8282611cb3565b91505060608301518482036060860152611e268282611d37565b9150506080830151611e3b6080860182611c12565b508091505092915050565b6000611e528383611dbb565b905092915050565b6000602082019050919050565b6000611e7282611bba565b611e7c8185611bc5565b935083602082028501611e8e85611bd6565b8060005b85811015611eca5784840389528151611eab8582611e46565b9450611eb683611e5a565b925060208a01995050600181019050611e92565b50829750879550505050505092915050565b600081519050919050565b600082825260208201905092915050565b6000819050602082019050919050565b60006060830160008301518482036000860152611f258282611b81565b91505060208301518482036020860152611f3f8282611b81565b9150506040830151611f546040860182611c12565b508091505092915050565b60006060830160008301518482036000860152611f7c8282611b81565b91505060208301518482036020860152611f968282611b81565b9150506040830151611fab6040860182611c12565b508091505092915050565b600060a0830160008301518482036000860152611fd38282611b81565b91505060208301518482036020860152611fed8282611b81565b915050604083015184820360408601526120078282611f08565b915050606083015184820360608601526120218282611f5f565b91505060808301516120366080860182611c12565b508091505092915050565b600060a083016000830151848203600086015261205e8282611b81565b915050602083015184820360208601526120788282611b81565b915050604083015184820360408601526120928282611d37565b915050606083015184820360608601526120ac8282611fb6565b91505060808301516120c16080860182611c12565b508091505092915050565b60006120d88383612041565b905092915050565b6000602082019050919050565b60006120f882611edc565b6121028185611ee7565b93508360208202850161211485611ef8565b8060005b85811015612150578484038952815161213185826120cc565b945061213c836120e0565b925060208a01995050600181019050612118565b50829750879550505050505092915050565b600081519050919050565b600082825260208201905092915050565b6000819050602082019050919050565b600060c08301600083015184820360008601526121ab8282611b81565b915050602083015184820360208601526121c58282611b81565b915050604083015184820360408601526121df8282611f08565b915050606083015184820360608601526121f98282611f5f565b915050608083015184820360808601526122138282611b81565b91505060a083015161222860a0860182611c12565b508091505092915050565b600061223f838361218e565b905092915050565b6000602082019050919050565b600061225f82612162565b612269818561216d565b93508360208202850161227b8561217e565b8060005b858110156122b757848403895281516122988582612233565b94506122a383612247565b925060208a0199505060018101905061227f565b50829750879550505050505092915050565b600060a08301600083015184820360008601526122e68282611b81565b915050602083015184820360208601526123008282611b81565b9150506040830151848203604086015261231a82826120ed565b915050606083015184820360608601526123348282612254565b91505060808301516123496080860182611c12565b508091505092915050565b600060e08301600083015184820360008601526123718282611b81565b9150506020830151848203602086015261238b8282611b81565b915050604083015184820360408601526123a58282611b81565b915050606083015184820360608601526123bf8282611dbb565b915050608083015184820360808601526123d9828261218e565b91505060a083015184820360a08601526123f382826122c9565b91505060c083015161240860c0860182611c12565b508091505092915050565b60006101008301600083015184820360008601526124318282611b81565b9150506020830151848203602086015261244b8282611b81565b915050604083015184820360408601526124658282611b81565b9150506060830151848203606086015261247f8282611e67565b915050608083015184820360808601526124998282611dbb565b91505060a083015184820360a08601526124b382826122c9565b91505060c083015184820360c08601526124cd8282612354565b91505060e08301516124e260e0860182611c12565b508091505092915050565b600060029050919050565b600081905092915050565b6000819050919050565b60006125198383611b81565b905092915050565b6000602082019050919050565b6000612539826124ed565b61254381856124f8565b93508360208202850161255585612503565b8060005b858110156125915784840389528151612572858261250d565b945061257d83612521565b925060208a01995050600181019050612559565b50829750879550505050505092915050565b600060808301600083015184820360008601526125c08282612413565b915050602083015184820360208601526125da8282611b81565b915050604083015184820360408601526125f4828261252e565b9150506060830151848203606086015261260e8282611b81565b9150508091505092915050565b6000602082019050818103600083015261263581846125a3565b905092915050565b600060e083016000830151848203600086015261265a8282611b81565b915050602083015184820360208601526126748282611b81565b9150506040830151848203604086015261268e8282611b81565b915050606083015184820360608601526126a88282611dbb565b915050608083015184820360808601526126c2828261218e565b91505060a083015184820360a08601526126dc82826122c9565b91505060c08301516126f160c0860182611c12565b508091505092915050565b60006020820190508181036000830152612716818461263d565b90509291505056fea26469706673582212201681a8aec0631dded51940090c73b6616392115aabd43a54ff27cb5af97dec8564736f6c63430008110033",
  "immutableReferences": {},
  "source": "// SPDX-License-Identifier: MIT\npragma solidity >=0.4.22 <0.9.0;pragma abicoder v2;\n\n\n\ncontract case1 {\n\n\tconstructor() {}\n\t\n\t\n\tevent ContractResponse(CoverageEligibilityResponse evt);\n\tevent OracleRequest(RequestData request);\n\t\n\t\n\tstruct CoverageEligibilityRequest {\n\t\tstring purpose;\n\t\tstring id;\n\t\tstring hasType;\n\t\tMedicationRequest[] item;\n\t\tMedicationRequest immunoTherapyItem;\n\t\tPatient patient;\n\t\tCoverageEligibilityResponse response;\n\t\tbool exists;\n\t}\n\t\n\tstruct MedicationRequest {\n\t\tstring id;\n\t\tstring hasType;\n\t\tMedication[] medication;\n\t\tProcedure eligibleTransplant;\n\t\tbool exists;\n\t}\n\t\n\tstruct Medication {\n\t\tstring id;\n\t\tstring hasType;\n\t\tstring concept;\n\t\tbool exists;\n\t}\n\t\n\tstruct Procedure {\n\t\tstring id;\n\t\tstring hasType;\n\t\tstring status;\n\t\tint code;\n\t\tbool exists;\n\t}\n\t\n\tstruct Patient {\n\t\tstring id;\n\t\tstring hasType;\n\t\tClaim[] subjectOf;\n\t\tCoverage[] policyHolderOf;\n\t\tbool exists;\n\t}\n\t\n\tstruct Claim {\n\t\tstring id;\n\t\tstring hasType;\n\t\tProcedure procedure;\n\t\tInsurance insurance;\n\t\tbool exists;\n\t}\n\t\n\tstruct Insurance {\n\t\tstring id;\n\t\tstring hasType;\n\t\tInsurer insurer;\n\t\tClass class;\n\t\tbool exists;\n\t}\n\t\n\tstruct Insurer {\n\t\tstring id;\n\t\tstring hasType;\n\t\tbool exists;\n\t}\n\t\n\tstruct Class {\n\t\tstring id;\n\t\tstring hasType;\n\t\tbool exists;\n\t}\n\t\n\tstruct Coverage {\n\t\tstring id;\n\t\tstring hasType;\n\t\tInsurer insurer;\n\t\tClass class;\n\t\tstring status;\n\t\tbool exists;\n\t}\n\t\n\tstruct CoverageEligibilityResponse {\n\t\tstring id;\n\t\tstring hasType;\n\t\tstring outcome;\n\t\tMedicationRequest request;\n\t\tCoverage covered;\n\t\tPatient patient;\n\t\tbool exists;\n\t}\n\t\n\tstruct RequestData {\n\t\tCoverageEligibilityRequest req;\n\t\tstring resource;\n\t\tstring[2] parameters;\n\t\tstring callback;\n\t}\n\t\n\t\n\tfunction check0(CoverageEligibilityRequest memory req, Medication[] memory medications) private pure returns (bool) {\n\t\tfor (uint i = 0; i < medications.length; i++) {\n\t\t\tMedication memory v1 = medications[i];\n\t\t\tif (keccak256(abi.encodePacked(v1.concept)) == keccak256(\"DBCAT005063\")) {\n\t\t\t\n\t\t\t\treturn true;\n\t\t\t}\n\t\t}\n\t\treturn false;\n\t}\n\t\n\tfunction process(CoverageEligibilityRequest memory req) public {\n\t\tif (req.item.length > 0\n\t\t\t&& keccak256(abi.encodePacked(req.purpose)) == keccak256(\"validation\")) {\n\t\t\n\t\t\tfor (uint i = 0; i < req.item.length; i++) {\n\t\t\t\tMedicationRequest memory v0 = req.item[i];\n\t\t\t\tif (v0.medication.length > 0\n\t\t\t\t\t&& check0(req, v0.medication)) {\n\t\t\t\t\n\t\t\t\t\treq.immunoTherapyItem = v0;\n\t\t\t\t}\n\t\t\t}\n\t\t}\n\t\t\n\t\tif (req.patient.exists\n\t\t\t&& req.immunoTherapyItem.exists) {\n\t\t\n\t\t\temit OracleRequest(RequestData({ req: req, resource: \"Claim\", parameters: [ \"subject\", req.patient.id ], callback: \"callback1\" }));\n\t\t}\n\t}\n\t\n\tfunction callback1(CoverageEligibilityRequest memory req, Claim[] memory results) public {\n\t\tfor (uint i = 0; i < results.length; i++) {\n\t\t\tClaim memory v2 = results[i];\n\t\t\tif (v2.insurance.exists\n\t\t\t\t&& keccak256(abi.encodePacked(v2.insurance.class.hasType)) == keccak256(\"PartA\")\n\t\t\t\t&& keccak256(abi.encodePacked(v2.insurance.insurer.hasType)) == keccak256(\"Medicare\")\n\t\t\t\t&& v2.procedure.exists\n\t\t\t\t&& v2.procedure.code == 77465005\n\t\t\t\t&& keccak256(abi.encodePacked(v2.procedure.status)) == keccak256(\"completed\")) {\n\t\t\t\n\t\t\t\treq.immunoTherapyItem.eligibleTransplant = v2.procedure;\n\t\t\t}\n\t\t}\n\t\t\n\t\t\n\t\tif (req.patient.exists\n\t\t\t&& req.immunoTherapyItem.exists\n\t\t\t&& req.immunoTherapyItem.eligibleTransplant.exists) {\n\t\t\n\t\t\temit OracleRequest(RequestData({ req: req, resource: \"Coverage\", parameters: [ \"policyHolder\", req.patient.id ], callback: \"callback2\" }));\n\t\t}\n\t}\n\t\n\tfunction callback2(CoverageEligibilityRequest memory req, Coverage[] memory results) public {\n\t\tfor (uint i = 0; i < results.length; i++) {\n\t\t\tCoverage memory v3 = results[i];\n\t\t\tif (v3.class.exists\n\t\t\t\t&& (keccak256(abi.encodePacked(v3.class.hasType)) == keccak256(\"PartB\")\n\t\t\t\t|| keccak256(abi.encodePacked(v3.class.hasType)) == keccak256(\"PartD\"))\n\t\t\t\t&& keccak256(abi.encodePacked(v3.insurer.hasType)) == keccak256(\"Medicare\")) {\n\t\t\t\n\t\t\t\tCoverageEligibilityResponse memory v4 = CoverageEligibilityResponse({ id: \"123\", hasType: \"123\", outcome: \"complete\", request: req.immunoTherapyItem, covered: v3, patient: req.patient, exists: true });\n\t\t\t\treq.response = v4;\n\t\t\t\temit ContractResponse(v4);\n\t\t\t}\n\t\t}\n\t}\n\t\n\t\n}",
  "sourcePath": "/Users/wvw/git/n3/blockiot-cds/smart_code_gen/Local Deployment/contract/contracts/case1.sol",
  "compiler": {
    "name": "solc",
    "version": "0.8.17+commit.8df45f5f.Emscripten.clang"
  },
  "schemaVersion": "3.4.16",
  "updatedAt": "2024-02-25T13:16:49.047Z",
  "networkType": "ethereum",
  "devdoc": {
    "kind": "dev",
    "methods": {},
    "version": 1
  },
  "userdoc": {
    "kind": "user",
    "methods": {},
    "version": 1
  }
}