{
  "contractName": "case3",
  "abi": [
    {
      "inputs": [],
      "stateMutability": "nonpayable",
      "type": "constructor"
    },
    {
      "anonymous": false,
      "inputs": [
        {
          "components": [
            {
              "internalType": "string",
              "name": "id",
              "type": "string"
            },
            {
              "internalType": "string",
              "name": "hasType",
              "type": "string"
            },
            {
              "internalType": "string",
              "name": "outcome",
              "type": "string"
            },
            {
              "components": [
                {
                  "internalType": "string",
                  "name": "id",
                  "type": "string"
                },
                {
                  "internalType": "string",
                  "name": "hasType",
                  "type": "string"
                },
                {
                  "components": [
                    {
                      "internalType": "string",
                      "name": "id",
                      "type": "string"
                    },
                    {
                      "internalType": "string",
                      "name": "clinicalStatus",
                      "type": "string"
                    },
                    {
                      "internalType": "string",
                      "name": "hasType",
                      "type": "string"
                    },
                    {
                      "internalType": "int256",
                      "name": "code",
                      "type": "int256"
                    },
                    {
                      "internalType": "string",
                      "name": "verificationStatus",
                      "type": "string"
                    },
                    {
                      "internalType": "bool",
                      "name": "exists",
                      "type": "bool"
                    }
                  ],
                  "internalType": "struct case3.Condition",
                  "name": "reason",
                  "type": "tuple"
                },
                {
                  "components": [
                    {
                      "internalType": "string",
                      "name": "id",
                      "type": "string"
                    },
                    {
                      "internalType": "string",
                      "name": "hasType",
                      "type": "string"
                    },
                    {
                      "components": [
                        {
                          "internalType": "string",
                          "name": "id",
                          "type": "string"
                        },
                        {
                          "internalType": "string",
                          "name": "clinicalStatus",
                          "type": "string"
                        },
                        {
                          "internalType": "string",
                          "name": "hasType",
                          "type": "string"
                        },
                        {
                          "internalType": "int256",
                          "name": "code",
                          "type": "int256"
                        },
                        {
                          "internalType": "string",
                          "name": "verificationStatus",
                          "type": "string"
                        },
                        {
                          "internalType": "bool",
                          "name": "exists",
                          "type": "bool"
                        }
                      ],
                      "internalType": "struct case3.Condition[]",
                      "name": "subjectOf",
                      "type": "tuple[]"
                    },
                    {
                      "internalType": "string",
                      "name": "gender",
                      "type": "string"
                    },
                    {
                      "components": [
                        {
                          "internalType": "string",
                          "name": "id",
                          "type": "string"
                        },
                        {
                          "internalType": "string",
                          "name": "hasType",
                          "type": "string"
                        },
                        {
                          "components": [
                            {
                              "internalType": "string",
                              "name": "id",
                              "type": "string"
                            },
                            {
                              "internalType": "string",
                              "name": "hasType",
                              "type": "string"
                            },
                            {
                              "internalType": "bool",
                              "name": "exists",
                              "type": "bool"
                            }
                          ],
                          "internalType": "struct case3.Insurer",
                          "name": "insurer",
                          "type": "tuple"
                        },
                        {
                          "components": [
                            {
                              "internalType": "string",
                              "name": "id",
                              "type": "string"
                            },
                            {
                              "internalType": "string",
                              "name": "hasType",
                              "type": "string"
                            },
                            {
                              "internalType": "bool",
                              "name": "exists",
                              "type": "bool"
                            }
                          ],
                          "internalType": "struct case3.Class",
                          "name": "class",
                          "type": "tuple"
                        },
                        {
                          "internalType": "bool",
                          "name": "exists",
                          "type": "bool"
                        }
                      ],
                      "internalType": "struct case3.Coverage[]",
                      "name": "policyHolderOf",
                      "type": "tuple[]"
                    },
                    {
                      "internalType": "bool",
                      "name": "exists",
                      "type": "bool"
                    }
                  ],
                  "internalType": "struct case3.Patient",
                  "name": "subject",
                  "type": "tuple"
                },
                {
                  "components": [
                    {
                      "internalType": "string",
                      "name": "id",
                      "type": "string"
                    },
                    {
                      "internalType": "string",
                      "name": "hasType",
                      "type": "string"
                    },
                    {
                      "internalType": "int256",
                      "name": "concept",
                      "type": "int256"
                    },
                    {
                      "internalType": "bool",
                      "name": "exists",
                      "type": "bool"
                    }
                  ],
                  "internalType": "struct case3.Medication[]",
                  "name": "medication",
                  "type": "tuple[]"
                },
                {
                  "internalType": "bool",
                  "name": "exists",
                  "type": "bool"
                }
              ],
              "internalType": "struct case3.MedicationRequest",
              "name": "request",
              "type": "tuple"
            },
            {
              "components": [
                {
                  "internalType": "string",
                  "name": "id",
                  "type": "string"
                },
                {
                  "internalType": "string",
                  "name": "hasType",
                  "type": "string"
                },
                {
                  "components": [
                    {
                      "internalType": "string",
                      "name": "id",
                      "type": "string"
                    },
                    {
                      "internalType": "string",
                      "name": "clinicalStatus",
                      "type": "string"
                    },
                    {
                      "internalType": "string",
                      "name": "hasType",
                      "type": "string"
                    },
                    {
                      "internalType": "int256",
                      "name": "code",
                      "type": "int256"
                    },
                    {
                      "internalType": "string",
                      "name": "verificationStatus",
                      "type": "string"
                    },
                    {
                      "internalType": "bool",
                      "name": "exists",
                      "type": "bool"
                    }
                  ],
                  "internalType": "struct case3.Condition[]",
                  "name": "subjectOf",
                  "type": "tuple[]"
                },
                {
                  "internalType": "string",
                  "name": "gender",
                  "type": "string"
                },
                {
                  "components": [
                    {
                      "internalType": "string",
                      "name": "id",
                      "type": "string"
                    },
                    {
                      "internalType": "string",
                      "name": "hasType",
                      "type": "string"
                    },
                    {
                      "components": [
                        {
                          "internalType": "string",
                          "name": "id",
                          "type": "string"
                        },
                        {
                          "internalType": "string",
                          "name": "hasType",
                          "type": "string"
                        },
                        {
                          "internalType": "bool",
                          "name": "exists",
                          "type": "bool"
                        }
                      ],
                      "internalType": "struct case3.Insurer",
                      "name": "insurer",
                      "type": "tuple"
                    },
                    {
                      "components": [
                        {
                          "internalType": "string",
                          "name": "id",
                          "type": "string"
                        },
                        {
                          "internalType": "string",
                          "name": "hasType",
                          "type": "string"
                        },
                        {
                          "internalType": "bool",
                          "name": "exists",
                          "type": "bool"
                        }
                      ],
                      "internalType": "struct case3.Class",
                      "name": "class",
                      "type": "tuple"
                    },
                    {
                      "internalType": "bool",
                      "name": "exists",
                      "type": "bool"
                    }
                  ],
                  "internalType": "struct case3.Coverage[]",
                  "name": "policyHolderOf",
                  "type": "tuple[]"
                },
                {
                  "internalType": "bool",
                  "name": "exists",
                  "type": "bool"
                }
              ],
              "internalType": "struct case3.Patient",
              "name": "patient",
              "type": "tuple"
            },
            {
              "components": [
                {
                  "internalType": "string",
                  "name": "id",
                  "type": "string"
                },
                {
                  "internalType": "string",
                  "name": "hasType",
                  "type": "string"
                },
                {
                  "components": [
                    {
                      "internalType": "string",
                      "name": "id",
                      "type": "string"
                    },
                    {
                      "internalType": "string",
                      "name": "hasType",
                      "type": "string"
                    },
                    {
                      "internalType": "bool",
                      "name": "exists",
                      "type": "bool"
                    }
                  ],
                  "internalType": "struct case3.Insurer",
                  "name": "insurer",
                  "type": "tuple"
                },
                {
                  "components": [
                    {
                      "internalType": "string",
                      "name": "id",
                      "type": "string"
                    },
                    {
                      "internalType": "string",
                      "name": "hasType",
                      "type": "string"
                    },
                    {
                      "internalType": "bool",
                      "name": "exists",
                      "type": "bool"
                    }
                  ],
                  "internalType": "struct case3.Class",
                  "name": "class",
                  "type": "tuple"
                },
                {
                  "internalType": "bool",
                  "name": "exists",
                  "type": "bool"
                }
              ],
              "internalType": "struct case3.Coverage",
              "name": "covered",
              "type": "tuple"
            },
            {
              "internalType": "bool",
              "name": "exists",
              "type": "bool"
            }
          ],
          "indexed": false,
          "internalType": "struct case3.CoverageEligibilityResponse",
          "name": "evt",
          "type": "tuple"
        }
      ],
      "name": "ContractResponse",
      "type": "event"
    },
    {
      "anonymous": false,
      "inputs": [
        {
          "components": [
            {
              "components": [
                {
                  "internalType": "string",
                  "name": "id",
                  "type": "string"
                },
                {
                  "internalType": "string",
                  "name": "hasType",
                  "type": "string"
                },
                {
                  "components": [
                    {
                      "internalType": "string",
                      "name": "id",
                      "type": "string"
                    },
                    {
                      "internalType": "string",
                      "name": "hasType",
                      "type": "string"
                    },
                    {
                      "components": [
                        {
                          "internalType": "string",
                          "name": "id",
                          "type": "string"
                        },
                        {
                          "internalType": "string",
                          "name": "clinicalStatus",
                          "type": "string"
                        },
                        {
                          "internalType": "string",
                          "name": "hasType",
                          "type": "string"
                        },
                        {
                          "internalType": "int256",
                          "name": "code",
                          "type": "int256"
                        },
                        {
                          "internalType": "string",
                          "name": "verificationStatus",
                          "type": "string"
                        },
                        {
                          "internalType": "bool",
                          "name": "exists",
                          "type": "bool"
                        }
                      ],
                      "internalType": "struct case3.Condition[]",
                      "name": "subjectOf",
                      "type": "tuple[]"
                    },
                    {
                      "internalType": "string",
                      "name": "gender",
                      "type": "string"
                    },
                    {
                      "components": [
                        {
                          "internalType": "string",
                          "name": "id",
                          "type": "string"
                        },
                        {
                          "internalType": "string",
                          "name": "hasType",
                          "type": "string"
                        },
                        {
                          "components": [
                            {
                              "internalType": "string",
                              "name": "id",
                              "type": "string"
                            },
                            {
                              "internalType": "string",
                              "name": "hasType",
                              "type": "string"
                            },
                            {
                              "internalType": "bool",
                              "name": "exists",
                              "type": "bool"
                            }
                          ],
                          "internalType": "struct case3.Insurer",
                          "name": "insurer",
                          "type": "tuple"
                        },
                        {
                          "components": [
                            {
                              "internalType": "string",
                              "name": "id",
                              "type": "string"
                            },
                            {
                              "internalType": "string",
                              "name": "hasType",
                              "type": "string"
                            },
                            {
                              "internalType": "bool",
                              "name": "exists",
                              "type": "bool"
                            }
                          ],
                          "internalType": "struct case3.Class",
                          "name": "class",
                          "type": "tuple"
                        },
                        {
                          "internalType": "bool",
                          "name": "exists",
                          "type": "bool"
                        }
                      ],
                      "internalType": "struct case3.Coverage[]",
                      "name": "policyHolderOf",
                      "type": "tuple[]"
                    },
                    {
                      "internalType": "bool",
                      "name": "exists",
                      "type": "bool"
                    }
                  ],
                  "internalType": "struct case3.Patient",
                  "name": "patient",
                  "type": "tuple"
                },
                {
                  "components": [
                    {
                      "internalType": "string",
                      "name": "id",
                      "type": "string"
                    },
                    {
                      "internalType": "string",
                      "name": "clinicalStatus",
                      "type": "string"
                    },
                    {
                      "internalType": "string",
                      "name": "hasType",
                      "type": "string"
                    },
                    {
                      "internalType": "int256",
                      "name": "code",
                      "type": "int256"
                    },
                    {
                      "internalType": "string",
                      "name": "verificationStatus",
                      "type": "string"
                    },
                    {
                      "internalType": "bool",
                      "name": "exists",
                      "type": "bool"
                    }
                  ],
                  "internalType": "struct case3.Condition",
                  "name": "pmOsteo",
                  "type": "tuple"
                },
                {
                  "components": [
                    {
                      "internalType": "string",
                      "name": "id",
                      "type": "string"
                    },
                    {
                      "internalType": "string",
                      "name": "clinicalStatus",
                      "type": "string"
                    },
                    {
                      "internalType": "string",
                      "name": "hasType",
                      "type": "string"
                    },
                    {
                      "internalType": "int256",
                      "name": "code",
                      "type": "int256"
                    },
                    {
                      "internalType": "string",
                      "name": "verificationStatus",
                      "type": "string"
                    },
                    {
                      "internalType": "bool",
                      "name": "exists",
                      "type": "bool"
                    }
                  ],
                  "internalType": "struct case3.Condition",
                  "name": "osteoBoneFracture",
                  "type": "tuple"
                },
                {
                  "components": [
                    {
                      "internalType": "string",
                      "name": "id",
                      "type": "string"
                    },
                    {
                      "internalType": "string",
                      "name": "hasType",
                      "type": "string"
                    },
                    {
                      "internalType": "bool",
                      "name": "exists",
                      "type": "bool"
                    }
                  ],
                  "internalType": "struct case3.Practitioner",
                  "name": "provider",
                  "type": "tuple"
                },
                {
                  "internalType": "string",
                  "name": "purpose",
                  "type": "string"
                },
                {
                  "components": [
                    {
                      "internalType": "string",
                      "name": "id",
                      "type": "string"
                    },
                    {
                      "internalType": "string",
                      "name": "hasType",
                      "type": "string"
                    },
                    {
                      "components": [
                        {
                          "internalType": "string",
                          "name": "id",
                          "type": "string"
                        },
                        {
                          "internalType": "string",
                          "name": "clinicalStatus",
                          "type": "string"
                        },
                        {
                          "internalType": "string",
                          "name": "hasType",
                          "type": "string"
                        },
                        {
                          "internalType": "int256",
                          "name": "code",
                          "type": "int256"
                        },
                        {
                          "internalType": "string",
                          "name": "verificationStatus",
                          "type": "string"
                        },
                        {
                          "internalType": "bool",
                          "name": "exists",
                          "type": "bool"
                        }
                      ],
                      "internalType": "struct case3.Condition",
                      "name": "reason",
                      "type": "tuple"
                    },
                    {
                      "components": [
                        {
                          "internalType": "string",
                          "name": "id",
                          "type": "string"
                        },
                        {
                          "internalType": "string",
                          "name": "hasType",
                          "type": "string"
                        },
                        {
                          "components": [
                            {
                              "internalType": "string",
                              "name": "id",
                              "type": "string"
                            },
                            {
                              "internalType": "string",
                              "name": "clinicalStatus",
                              "type": "string"
                            },
                            {
                              "internalType": "string",
                              "name": "hasType",
                              "type": "string"
                            },
                            {
                              "internalType": "int256",
                              "name": "code",
                              "type": "int256"
                            },
                            {
                              "internalType": "string",
                              "name": "verificationStatus",
                              "type": "string"
                            },
                            {
                              "internalType": "bool",
                              "name": "exists",
                              "type": "bool"
                            }
                          ],
                          "internalType": "struct case3.Condition[]",
                          "name": "subjectOf",
                          "type": "tuple[]"
                        },
                        {
                          "internalType": "string",
                          "name": "gender",
                          "type": "string"
                        },
                        {
                          "components": [
                            {
                              "internalType": "string",
                              "name": "id",
                              "type": "string"
                            },
                            {
                              "internalType": "string",
                              "name": "hasType",
                              "type": "string"
                            },
                            {
                              "components": [
                                {
                                  "internalType": "string",
                                  "name": "id",
                                  "type": "string"
                                },
                                {
                                  "internalType": "string",
                                  "name": "hasType",
                                  "type": "string"
                                },
                                {
                                  "internalType": "bool",
                                  "name": "exists",
                                  "type": "bool"
                                }
                              ],
                              "internalType": "struct case3.Insurer",
                              "name": "insurer",
                              "type": "tuple"
                            },
                            {
                              "components": [
                                {
                                  "internalType": "string",
                                  "name": "id",
                                  "type": "string"
                                },
                                {
                                  "internalType": "string",
                                  "name": "hasType",
                                  "type": "string"
                                },
                                {
                                  "internalType": "bool",
                                  "name": "exists",
                                  "type": "bool"
                                }
                              ],
                              "internalType": "struct case3.Class",
                              "name": "class",
                              "type": "tuple"
                            },
                            {
                              "internalType": "bool",
                              "name": "exists",
                              "type": "bool"
                            }
                          ],
                          "internalType": "struct case3.Coverage[]",
                          "name": "policyHolderOf",
                          "type": "tuple[]"
                        },
                        {
                          "internalType": "bool",
                          "name": "exists",
                          "type": "bool"
                        }
                      ],
                      "internalType": "struct case3.Patient",
                      "name": "subject",
                      "type": "tuple"
                    },
                    {
                      "components": [
                        {
                          "internalType": "string",
                          "name": "id",
                          "type": "string"
                        },
                        {
                          "internalType": "string",
                          "name": "hasType",
                          "type": "string"
                        },
                        {
                          "internalType": "int256",
                          "name": "concept",
                          "type": "int256"
                        },
                        {
                          "internalType": "bool",
                          "name": "exists",
                          "type": "bool"
                        }
                      ],
                      "internalType": "struct case3.Medication[]",
                      "name": "medication",
                      "type": "tuple[]"
                    },
                    {
                      "internalType": "bool",
                      "name": "exists",
                      "type": "bool"
                    }
                  ],
                  "internalType": "struct case3.MedicationRequest[]",
                  "name": "item",
                  "type": "tuple[]"
                },
                {
                  "components": [
                    {
                      "internalType": "string",
                      "name": "id",
                      "type": "string"
                    },
                    {
                      "internalType": "string",
                      "name": "hasType",
                      "type": "string"
                    },
                    {
                      "components": [
                        {
                          "internalType": "string",
                          "name": "id",
                          "type": "string"
                        },
                        {
                          "internalType": "string",
                          "name": "clinicalStatus",
                          "type": "string"
                        },
                        {
                          "internalType": "string",
                          "name": "hasType",
                          "type": "string"
                        },
                        {
                          "internalType": "int256",
                          "name": "code",
                          "type": "int256"
                        },
                        {
                          "internalType": "string",
                          "name": "verificationStatus",
                          "type": "string"
                        },
                        {
                          "internalType": "bool",
                          "name": "exists",
                          "type": "bool"
                        }
                      ],
                      "internalType": "struct case3.Condition",
                      "name": "reason",
                      "type": "tuple"
                    },
                    {
                      "components": [
                        {
                          "internalType": "string",
                          "name": "id",
                          "type": "string"
                        },
                        {
                          "internalType": "string",
                          "name": "hasType",
                          "type": "string"
                        },
                        {
                          "components": [
                            {
                              "internalType": "string",
                              "name": "id",
                              "type": "string"
                            },
                            {
                              "internalType": "string",
                              "name": "clinicalStatus",
                              "type": "string"
                            },
                            {
                              "internalType": "string",
                              "name": "hasType",
                              "type": "string"
                            },
                            {
                              "internalType": "int256",
                              "name": "code",
                              "type": "int256"
                            },
                            {
                              "internalType": "string",
                              "name": "verificationStatus",
                              "type": "string"
                            },
                            {
                              "internalType": "bool",
                              "name": "exists",
                              "type": "bool"
                            }
                          ],
                          "internalType": "struct case3.Condition[]",
                          "name": "subjectOf",
                          "type": "tuple[]"
                        },
                        {
                          "internalType": "string",
                          "name": "gender",
                          "type": "string"
                        },
                        {
                          "components": [
                            {
                              "internalType": "string",
                              "name": "id",
                              "type": "string"
                            },
                            {
                              "internalType": "string",
                              "name": "hasType",
                              "type": "string"
                            },
                            {
                              "components": [
                                {
                                  "internalType": "string",
                                  "name": "id",
                                  "type": "string"
                                },
                                {
                                  "internalType": "string",
                                  "name": "hasType",
                                  "type": "string"
                                },
                                {
                                  "internalType": "bool",
                                  "name": "exists",
                                  "type": "bool"
                                }
                              ],
                              "internalType": "struct case3.Insurer",
                              "name": "insurer",
                              "type": "tuple"
                            },
                            {
                              "components": [
                                {
                                  "internalType": "string",
                                  "name": "id",
                                  "type": "string"
                                },
                                {
                                  "internalType": "string",
                                  "name": "hasType",
                                  "type": "string"
                                },
                                {
                                  "internalType": "bool",
                                  "name": "exists",
                                  "type": "bool"
                                }
                              ],
                              "internalType": "struct case3.Class",
                              "name": "class",
                              "type": "tuple"
                            },
                            {
                              "internalType": "bool",
                              "name": "exists",
                              "type": "bool"
                            }
                          ],
                          "internalType": "struct case3.Coverage[]",
                          "name": "policyHolderOf",
                          "type": "tuple[]"
                        },
                        {
                          "internalType": "bool",
                          "name": "exists",
                          "type": "bool"
                        }
                      ],
                      "internalType": "struct case3.Patient",
                      "name": "subject",
                      "type": "tuple"
                    },
                    {
                      "components": [
                        {
                          "internalType": "string",
                          "name": "id",
                          "type": "string"
                        },
                        {
                          "internalType": "string",
                          "name": "hasType",
                          "type": "string"
                        },
                        {
                          "internalType": "int256",
                          "name": "concept",
                          "type": "int256"
                        },
                        {
                          "internalType": "bool",
                          "name": "exists",
                          "type": "bool"
                        }
                      ],
                      "internalType": "struct case3.Medication[]",
                      "name": "medication",
                      "type": "tuple[]"
                    },
                    {
                      "internalType": "bool",
                      "name": "exists",
                      "type": "bool"
                    }
                  ],
                  "internalType": "struct case3.MedicationRequest",
                  "name": "osteoDrugItem",
                  "type": "tuple"
                },
                {
                  "components": [
                    {
                      "internalType": "string",
                      "name": "id",
                      "type": "string"
                    },
                    {
                      "internalType": "string",
                      "name": "hasType",
                      "type": "string"
                    },
                    {
                      "internalType": "string",
                      "name": "outcome",
                      "type": "string"
                    },
                    {
                      "components": [
                        {
                          "internalType": "string",
                          "name": "id",
                          "type": "string"
                        },
                        {
                          "internalType": "string",
                          "name": "hasType",
                          "type": "string"
                        },
                        {
                          "components": [
                            {
                              "internalType": "string",
                              "name": "id",
                              "type": "string"
                            },
                            {
                              "internalType": "string",
                              "name": "clinicalStatus",
                              "type": "string"
                            },
                            {
                              "internalType": "string",
                              "name": "hasType",
                              "type": "string"
                            },
                            {
                              "internalType": "int256",
                              "name": "code",
                              "type": "int256"
                            },
                            {
                              "internalType": "string",
                              "name": "verificationStatus",
                              "type": "string"
                            },
                            {
                              "internalType": "bool",
                              "name": "exists",
                              "type": "bool"
                            }
                          ],
                          "internalType": "struct case3.Condition",
                          "name": "reason",
                          "type": "tuple"
                        },
                        {
                          "components": [
                            {
                              "internalType": "string",
                              "name": "id",
                              "type": "string"
                            },
                            {
                              "internalType": "string",
                              "name": "hasType",
                              "type": "string"
                            },
                            {
                              "components": [
                                {
                                  "internalType": "string",
                                  "name": "id",
                                  "type": "string"
                                },
                                {
                                  "internalType": "string",
                                  "name": "clinicalStatus",
                                  "type": "string"
                                },
                                {
                                  "internalType": "string",
                                  "name": "hasType",
                                  "type": "string"
                                },
                                {
                                  "internalType": "int256",
                                  "name": "code",
                                  "type": "int256"
                                },
                                {
                                  "internalType": "string",
                                  "name": "verificationStatus",
                                  "type": "string"
                                },
                                {
                                  "internalType": "bool",
                                  "name": "exists",
                                  "type": "bool"
                                }
                              ],
                              "internalType": "struct case3.Condition[]",
                              "name": "subjectOf",
                              "type": "tuple[]"
                            },
                            {
                              "internalType": "string",
                              "name": "gender",
                              "type": "string"
                            },
                            {
                              "components": [
                                {
                                  "internalType": "string",
                                  "name": "id",
                                  "type": "string"
                                },
                                {
                                  "internalType": "string",
                                  "name": "hasType",
                                  "type": "string"
                                },
                                {
                                  "components": [
                                    {
                                      "internalType": "string",
                                      "name": "id",
                                      "type": "string"
                                    },
                                    {
                                      "internalType": "string",
                                      "name": "hasType",
                                      "type": "string"
                                    },
                                    {
                                      "internalType": "bool",
                                      "name": "exists",
                                      "type": "bool"
                                    }
                                  ],
                                  "internalType": "struct case3.Insurer",
                                  "name": "insurer",
                                  "type": "tuple"
                                },
                                {
                                  "components": [
                                    {
                                      "internalType": "string",
                                      "name": "id",
                                      "type": "string"
                                    },
                                    {
                                      "internalType": "string",
                                      "name": "hasType",
                                      "type": "string"
                                    },
                                    {
                                      "internalType": "bool",
                                      "name": "exists",
                                      "type": "bool"
                                    }
                                  ],
                                  "internalType": "struct case3.Class",
                                  "name": "class",
                                  "type": "tuple"
                                },
                                {
                                  "internalType": "bool",
                                  "name": "exists",
                                  "type": "bool"
                                }
                              ],
                              "internalType": "struct case3.Coverage[]",
                              "name": "policyHolderOf",
                              "type": "tuple[]"
                            },
                            {
                              "internalType": "bool",
                              "name": "exists",
                              "type": "bool"
                            }
                          ],
                          "internalType": "struct case3.Patient",
                          "name": "subject",
                          "type": "tuple"
                        },
                        {
                          "components": [
                            {
                              "internalType": "string",
                              "name": "id",
                              "type": "string"
                            },
                            {
                              "internalType": "string",
                              "name": "hasType",
                              "type": "string"
                            },
                            {
                              "internalType": "int256",
                              "name": "concept",
                              "type": "int256"
                            },
                            {
                              "internalType": "bool",
                              "name": "exists",
                              "type": "bool"
                            }
                          ],
                          "internalType": "struct case3.Medication[]",
                          "name": "medication",
                          "type": "tuple[]"
                        },
                        {
                          "internalType": "bool",
                          "name": "exists",
                          "type": "bool"
                        }
                      ],
                      "internalType": "struct case3.MedicationRequest",
                      "name": "request",
                      "type": "tuple"
                    },
                    {
                      "components": [
                        {
                          "internalType": "string",
                          "name": "id",
                          "type": "string"
                        },
                        {
                          "internalType": "string",
                          "name": "hasType",
                          "type": "string"
                        },
                        {
                          "components": [
                            {
                              "internalType": "string",
                              "name": "id",
                              "type": "string"
                            },
                            {
                              "internalType": "string",
                              "name": "clinicalStatus",
                              "type": "string"
                            },
                            {
                              "internalType": "string",
                              "name": "hasType",
                              "type": "string"
                            },
                            {
                              "internalType": "int256",
                              "name": "code",
                              "type": "int256"
                            },
                            {
                              "internalType": "string",
                              "name": "verificationStatus",
                              "type": "string"
                            },
                            {
                              "internalType": "bool",
                              "name": "exists",
                              "type": "bool"
                            }
                          ],
                          "internalType": "struct case3.Condition[]",
                          "name": "subjectOf",
                          "type": "tuple[]"
                        },
                        {
                          "internalType": "string",
                          "name": "gender",
                          "type": "string"
                        },
                        {
                          "components": [
                            {
                              "internalType": "string",
                              "name": "id",
                              "type": "string"
                            },
                            {
                              "internalType": "string",
                              "name": "hasType",
                              "type": "string"
                            },
                            {
                              "components": [
                                {
                                  "internalType": "string",
                                  "name": "id",
                                  "type": "string"
                                },
                                {
                                  "internalType": "string",
                                  "name": "hasType",
                                  "type": "string"
                                },
                                {
                                  "internalType": "bool",
                                  "name": "exists",
                                  "type": "bool"
                                }
                              ],
                              "internalType": "struct case3.Insurer",
                              "name": "insurer",
                              "type": "tuple"
                            },
                            {
                              "components": [
                                {
                                  "internalType": "string",
                                  "name": "id",
                                  "type": "string"
                                },
                                {
                                  "internalType": "string",
                                  "name": "hasType",
                                  "type": "string"
                                },
                                {
                                  "internalType": "bool",
                                  "name": "exists",
                                  "type": "bool"
                                }
                              ],
                              "internalType": "struct case3.Class",
                              "name": "class",
                              "type": "tuple"
                            },
                            {
                              "internalType": "bool",
                              "name": "exists",
                              "type": "bool"
                            }
                          ],
                          "internalType": "struct case3.Coverage[]",
                          "name": "policyHolderOf",
                          "type": "tuple[]"
                        },
                        {
                          "internalType": "bool",
                          "name": "exists",
                          "type": "bool"
                        }
                      ],
                      "internalType": "struct case3.Patient",
                      "name": "patient",
                      "type": "tuple"
                    },
                    {
                      "components": [
                        {
                          "internalType": "string",
                          "name": "id",
                          "type": "string"
                        },
                        {
                          "internalType": "string",
                          "name": "hasType",
                          "type": "string"
                        },
                        {
                          "components": [
                            {
                              "internalType": "string",
                              "name": "id",
                              "type": "string"
                            },
                            {
                              "internalType": "string",
                              "name": "hasType",
                              "type": "string"
                            },
                            {
                              "internalType": "bool",
                              "name": "exists",
                              "type": "bool"
                            }
                          ],
                          "internalType": "struct case3.Insurer",
                          "name": "insurer",
                          "type": "tuple"
                        },
                        {
                          "components": [
                            {
                              "internalType": "string",
                              "name": "id",
                              "type": "string"
                            },
                            {
                              "internalType": "string",
                              "name": "hasType",
                              "type": "string"
                            },
                            {
                              "internalType": "bool",
                              "name": "exists",
                              "type": "bool"
                            }
                          ],
                          "internalType": "struct case3.Class",
                          "name": "class",
                          "type": "tuple"
                        },
                        {
                          "internalType": "bool",
                          "name": "exists",
                          "type": "bool"
                        }
                      ],
                      "internalType": "struct case3.Coverage",
                      "name": "covered",
                      "type": "tuple"
                    },
                    {
                      "internalType": "bool",
                      "name": "exists",
                      "type": "bool"
                    }
                  ],
                  "internalType": "struct case3.CoverageEligibilityResponse",
                  "name": "response",
                  "type": "tuple"
                },
                {
                  "internalType": "bool",
                  "name": "exists",
                  "type": "bool"
                }
              ],
              "internalType": "struct case3.CoverageEligibilityRequest",
              "name": "req",
              "type": "tuple"
            },
            {
              "internalType": "string",
              "name": "resource",
              "type": "string"
            },
            {
              "internalType": "string[2]",
              "name": "parameters",
              "type": "string[2]"
            },
            {
              "internalType": "string",
              "name": "callback",
              "type": "string"
            }
          ],
          "indexed": false,
          "internalType": "struct case3.RequestData",
          "name": "request",
          "type": "tuple"
        }
      ],
      "name": "OracleRequest",
      "type": "event"
    },
    {
      "inputs": [
        {
          "components": [
            {
              "internalType": "string",
              "name": "id",
              "type": "string"
            },
            {
              "internalType": "string",
              "name": "hasType",
              "type": "string"
            },
            {
              "components": [
                {
                  "internalType": "string",
                  "name": "id",
                  "type": "string"
                },
                {
                  "internalType": "string",
                  "name": "hasType",
                  "type": "string"
                },
                {
                  "components": [
                    {
                      "internalType": "string",
                      "name": "id",
                      "type": "string"
                    },
                    {
                      "internalType": "string",
                      "name": "clinicalStatus",
                      "type": "string"
                    },
                    {
                      "internalType": "string",
                      "name": "hasType",
                      "type": "string"
                    },
                    {
                      "internalType": "int256",
                      "name": "code",
                      "type": "int256"
                    },
                    {
                      "internalType": "string",
                      "name": "verificationStatus",
                      "type": "string"
                    },
                    {
                      "internalType": "bool",
                      "name": "exists",
                      "type": "bool"
                    }
                  ],
                  "internalType": "struct case3.Condition[]",
                  "name": "subjectOf",
                  "type": "tuple[]"
                },
                {
                  "internalType": "string",
                  "name": "gender",
                  "type": "string"
                },
                {
                  "components": [
                    {
                      "internalType": "string",
                      "name": "id",
                      "type": "string"
                    },
                    {
                      "internalType": "string",
                      "name": "hasType",
                      "type": "string"
                    },
                    {
                      "components": [
                        {
                          "internalType": "string",
                          "name": "id",
                          "type": "string"
                        },
                        {
                          "internalType": "string",
                          "name": "hasType",
                          "type": "string"
                        },
                        {
                          "internalType": "bool",
                          "name": "exists",
                          "type": "bool"
                        }
                      ],
                      "internalType": "struct case3.Insurer",
                      "name": "insurer",
                      "type": "tuple"
                    },
                    {
                      "components": [
                        {
                          "internalType": "string",
                          "name": "id",
                          "type": "string"
                        },
                        {
                          "internalType": "string",
                          "name": "hasType",
                          "type": "string"
                        },
                        {
                          "internalType": "bool",
                          "name": "exists",
                          "type": "bool"
                        }
                      ],
                      "internalType": "struct case3.Class",
                      "name": "class",
                      "type": "tuple"
                    },
                    {
                      "internalType": "bool",
                      "name": "exists",
                      "type": "bool"
                    }
                  ],
                  "internalType": "struct case3.Coverage[]",
                  "name": "policyHolderOf",
                  "type": "tuple[]"
                },
                {
                  "internalType": "bool",
                  "name": "exists",
                  "type": "bool"
                }
              ],
              "internalType": "struct case3.Patient",
              "name": "patient",
              "type": "tuple"
            },
            {
              "components": [
                {
                  "internalType": "string",
                  "name": "id",
                  "type": "string"
                },
                {
                  "internalType": "string",
                  "name": "clinicalStatus",
                  "type": "string"
                },
                {
                  "internalType": "string",
                  "name": "hasType",
                  "type": "string"
                },
                {
                  "internalType": "int256",
                  "name": "code",
                  "type": "int256"
                },
                {
                  "internalType": "string",
                  "name": "verificationStatus",
                  "type": "string"
                },
                {
                  "internalType": "bool",
                  "name": "exists",
                  "type": "bool"
                }
              ],
              "internalType": "struct case3.Condition",
              "name": "pmOsteo",
              "type": "tuple"
            },
            {
              "components": [
                {
                  "internalType": "string",
                  "name": "id",
                  "type": "string"
                },
                {
                  "internalType": "string",
                  "name": "clinicalStatus",
                  "type": "string"
                },
                {
                  "internalType": "string",
                  "name": "hasType",
                  "type": "string"
                },
                {
                  "internalType": "int256",
                  "name": "code",
                  "type": "int256"
                },
                {
                  "internalType": "string",
                  "name": "verificationStatus",
                  "type": "string"
                },
                {
                  "internalType": "bool",
                  "name": "exists",
                  "type": "bool"
                }
              ],
              "internalType": "struct case3.Condition",
              "name": "osteoBoneFracture",
              "type": "tuple"
            },
            {
              "components": [
                {
                  "internalType": "string",
                  "name": "id",
                  "type": "string"
                },
                {
                  "internalType": "string",
                  "name": "hasType",
                  "type": "string"
                },
                {
                  "internalType": "bool",
                  "name": "exists",
                  "type": "bool"
                }
              ],
              "internalType": "struct case3.Practitioner",
              "name": "provider",
              "type": "tuple"
            },
            {
              "internalType": "string",
              "name": "purpose",
              "type": "string"
            },
            {
              "components": [
                {
                  "internalType": "string",
                  "name": "id",
                  "type": "string"
                },
                {
                  "internalType": "string",
                  "name": "hasType",
                  "type": "string"
                },
                {
                  "components": [
                    {
                      "internalType": "string",
                      "name": "id",
                      "type": "string"
                    },
                    {
                      "internalType": "string",
                      "name": "clinicalStatus",
                      "type": "string"
                    },
                    {
                      "internalType": "string",
                      "name": "hasType",
                      "type": "string"
                    },
                    {
                      "internalType": "int256",
                      "name": "code",
                      "type": "int256"
                    },
                    {
                      "internalType": "string",
                      "name": "verificationStatus",
                      "type": "string"
                    },
                    {
                      "internalType": "bool",
                      "name": "exists",
                      "type": "bool"
                    }
                  ],
                  "internalType": "struct case3.Condition",
                  "name": "reason",
                  "type": "tuple"
                },
                {
                  "components": [
                    {
                      "internalType": "string",
                      "name": "id",
                      "type": "string"
                    },
                    {
                      "internalType": "string",
                      "name": "hasType",
                      "type": "string"
                    },
                    {
                      "components": [
                        {
                          "internalType": "string",
                          "name": "id",
                          "type": "string"
                        },
                        {
                          "internalType": "string",
                          "name": "clinicalStatus",
                          "type": "string"
                        },
                        {
                          "internalType": "string",
                          "name": "hasType",
                          "type": "string"
                        },
                        {
                          "internalType": "int256",
                          "name": "code",
                          "type": "int256"
                        },
                        {
                          "internalType": "string",
                          "name": "verificationStatus",
                          "type": "string"
                        },
                        {
                          "internalType": "bool",
                          "name": "exists",
                          "type": "bool"
                        }
                      ],
                      "internalType": "struct case3.Condition[]",
                      "name": "subjectOf",
                      "type": "tuple[]"
                    },
                    {
                      "internalType": "string",
                      "name": "gender",
                      "type": "string"
                    },
                    {
                      "components": [
                        {
                          "internalType": "string",
                          "name": "id",
                          "type": "string"
                        },
                        {
                          "internalType": "string",
                          "name": "hasType",
                          "type": "string"
                        },
                        {
                          "components": [
                            {
                              "internalType": "string",
                              "name": "id",
                              "type": "string"
                            },
                            {
                              "internalType": "string",
                              "name": "hasType",
                              "type": "string"
                            },
                            {
                              "internalType": "bool",
                              "name": "exists",
                              "type": "bool"
                            }
                          ],
                          "internalType": "struct case3.Insurer",
                          "name": "insurer",
                          "type": "tuple"
                        },
                        {
                          "components": [
                            {
                              "internalType": "string",
                              "name": "id",
                              "type": "string"
                            },
                            {
                              "internalType": "string",
                              "name": "hasType",
                              "type": "string"
                            },
                            {
                              "internalType": "bool",
                              "name": "exists",
                              "type": "bool"
                            }
                          ],
                          "internalType": "struct case3.Class",
                          "name": "class",
                          "type": "tuple"
                        },
                        {
                          "internalType": "bool",
                          "name": "exists",
                          "type": "bool"
                        }
                      ],
                      "internalType": "struct case3.Coverage[]",
                      "name": "policyHolderOf",
                      "type": "tuple[]"
                    },
                    {
                      "internalType": "bool",
                      "name": "exists",
                      "type": "bool"
                    }
                  ],
                  "internalType": "struct case3.Patient",
                  "name": "subject",
                  "type": "tuple"
                },
                {
                  "components": [
                    {
                      "internalType": "string",
                      "name": "id",
                      "type": "string"
                    },
                    {
                      "internalType": "string",
                      "name": "hasType",
                      "type": "string"
                    },
                    {
                      "internalType": "int256",
                      "name": "concept",
                      "type": "int256"
                    },
                    {
                      "internalType": "bool",
                      "name": "exists",
                      "type": "bool"
                    }
                  ],
                  "internalType": "struct case3.Medication[]",
                  "name": "medication",
                  "type": "tuple[]"
                },
                {
                  "internalType": "bool",
                  "name": "exists",
                  "type": "bool"
                }
              ],
              "internalType": "struct case3.MedicationRequest[]",
              "name": "item",
              "type": "tuple[]"
            },
            {
              "components": [
                {
                  "internalType": "string",
                  "name": "id",
                  "type": "string"
                },
                {
                  "internalType": "string",
                  "name": "hasType",
                  "type": "string"
                },
                {
                  "components": [
                    {
                      "internalType": "string",
                      "name": "id",
                      "type": "string"
                    },
                    {
                      "internalType": "string",
                      "name": "clinicalStatus",
                      "type": "string"
                    },
                    {
                      "internalType": "string",
                      "name": "hasType",
                      "type": "string"
                    },
                    {
                      "internalType": "int256",
                      "name": "code",
                      "type": "int256"
                    },
                    {
                      "internalType": "string",
                      "name": "verificationStatus",
                      "type": "string"
                    },
                    {
                      "internalType": "bool",
                      "name": "exists",
                      "type": "bool"
                    }
                  ],
                  "internalType": "struct case3.Condition",
                  "name": "reason",
                  "type": "tuple"
                },
                {
                  "components": [
                    {
                      "internalType": "string",
                      "name": "id",
                      "type": "string"
                    },
                    {
                      "internalType": "string",
                      "name": "hasType",
                      "type": "string"
                    },
                    {
                      "components": [
                        {
                          "internalType": "string",
                          "name": "id",
                          "type": "string"
                        },
                        {
                          "internalType": "string",
                          "name": "clinicalStatus",
                          "type": "string"
                        },
                        {
                          "internalType": "string",
                          "name": "hasType",
                          "type": "string"
                        },
                        {
                          "internalType": "int256",
                          "name": "code",
                          "type": "int256"
                        },
                        {
                          "internalType": "string",
                          "name": "verificationStatus",
                          "type": "string"
                        },
                        {
                          "internalType": "bool",
                          "name": "exists",
                          "type": "bool"
                        }
                      ],
                      "internalType": "struct case3.Condition[]",
                      "name": "subjectOf",
                      "type": "tuple[]"
                    },
                    {
                      "internalType": "string",
                      "name": "gender",
                      "type": "string"
                    },
                    {
                      "components": [
                        {
                          "internalType": "string",
                          "name": "id",
                          "type": "string"
                        },
                        {
                          "internalType": "string",
                          "name": "hasType",
                          "type": "string"
                        },
                        {
                          "components": [
                            {
                              "internalType": "string",
                              "name": "id",
                              "type": "string"
                            },
                            {
                              "internalType": "string",
                              "name": "hasType",
                              "type": "string"
                            },
                            {
                              "internalType": "bool",
                              "name": "exists",
                              "type": "bool"
                            }
                          ],
                          "internalType": "struct case3.Insurer",
                          "name": "insurer",
                          "type": "tuple"
                        },
                        {
                          "components": [
                            {
                              "internalType": "string",
                              "name": "id",
                              "type": "string"
                            },
                            {
                              "internalType": "string",
                              "name": "hasType",
                              "type": "string"
                            },
                            {
                              "internalType": "bool",
                              "name": "exists",
                              "type": "bool"
                            }
                          ],
                          "internalType": "struct case3.Class",
                          "name": "class",
                          "type": "tuple"
                        },
                        {
                          "internalType": "bool",
                          "name": "exists",
                          "type": "bool"
                        }
                      ],
                      "internalType": "struct case3.Coverage[]",
                      "name": "policyHolderOf",
                      "type": "tuple[]"
                    },
                    {
                      "internalType": "bool",
                      "name": "exists",
                      "type": "bool"
                    }
                  ],
                  "internalType": "struct case3.Patient",
                  "name": "subject",
                  "type": "tuple"
                },
                {
                  "components": [
                    {
                      "internalType": "string",
                      "name": "id",
                      "type": "string"
                    },
                    {
                      "internalType": "string",
                      "name": "hasType",
                      "type": "string"
                    },
                    {
                      "internalType": "int256",
                      "name": "concept",
                      "type": "int256"
                    },
                    {
                      "internalType": "bool",
                      "name": "exists",
                      "type": "bool"
                    }
                  ],
                  "internalType": "struct case3.Medication[]",
                  "name": "medication",
                  "type": "tuple[]"
                },
                {
                  "internalType": "bool",
                  "name": "exists",
                  "type": "bool"
                }
              ],
              "internalType": "struct case3.MedicationRequest",
              "name": "osteoDrugItem",
              "type": "tuple"
            },
            {
              "components": [
                {
                  "internalType": "string",
                  "name": "id",
                  "type": "string"
                },
                {
                  "internalType": "string",
                  "name": "hasType",
                  "type": "string"
                },
                {
                  "internalType": "string",
                  "name": "outcome",
                  "type": "string"
                },
                {
                  "components": [
                    {
                      "internalType": "string",
                      "name": "id",
                      "type": "string"
                    },
                    {
                      "internalType": "string",
                      "name": "hasType",
                      "type": "string"
                    },
                    {
                      "components": [
                        {
                          "internalType": "string",
                          "name": "id",
                          "type": "string"
                        },
                        {
                          "internalType": "string",
                          "name": "clinicalStatus",
                          "type": "string"
                        },
                        {
                          "internalType": "string",
                          "name": "hasType",
                          "type": "string"
                        },
                        {
                          "internalType": "int256",
                          "name": "code",
                          "type": "int256"
                        },
                        {
                          "internalType": "string",
                          "name": "verificationStatus",
                          "type": "string"
                        },
                        {
                          "internalType": "bool",
                          "name": "exists",
                          "type": "bool"
                        }
                      ],
                      "internalType": "struct case3.Condition",
                      "name": "reason",
                      "type": "tuple"
                    },
                    {
                      "components": [
                        {
                          "internalType": "string",
                          "name": "id",
                          "type": "string"
                        },
                        {
                          "internalType": "string",
                          "name": "hasType",
                          "type": "string"
                        },
                        {
                          "components": [
                            {
                              "internalType": "string",
                              "name": "id",
                              "type": "string"
                            },
                            {
                              "internalType": "string",
                              "name": "clinicalStatus",
                              "type": "string"
                            },
                            {
                              "internalType": "string",
                              "name": "hasType",
                              "type": "string"
                            },
                            {
                              "internalType": "int256",
                              "name": "code",
                              "type": "int256"
                            },
                            {
                              "internalType": "string",
                              "name": "verificationStatus",
                              "type": "string"
                            },
                            {
                              "internalType": "bool",
                              "name": "exists",
                              "type": "bool"
                            }
                          ],
                          "internalType": "struct case3.Condition[]",
                          "name": "subjectOf",
                          "type": "tuple[]"
                        },
                        {
                          "internalType": "string",
                          "name": "gender",
                          "type": "string"
                        },
                        {
                          "components": [
                            {
                              "internalType": "string",
                              "name": "id",
                              "type": "string"
                            },
                            {
                              "internalType": "string",
                              "name": "hasType",
                              "type": "string"
                            },
                            {
                              "components": [
                                {
                                  "internalType": "string",
                                  "name": "id",
                                  "type": "string"
                                },
                                {
                                  "internalType": "string",
                                  "name": "hasType",
                                  "type": "string"
                                },
                                {
                                  "internalType": "bool",
                                  "name": "exists",
                                  "type": "bool"
                                }
                              ],
                              "internalType": "struct case3.Insurer",
                              "name": "insurer",
                              "type": "tuple"
                            },
                            {
                              "components": [
                                {
                                  "internalType": "string",
                                  "name": "id",
                                  "type": "string"
                                },
                                {
                                  "internalType": "string",
                                  "name": "hasType",
                                  "type": "string"
                                },
                                {
                                  "internalType": "bool",
                                  "name": "exists",
                                  "type": "bool"
                                }
                              ],
                              "internalType": "struct case3.Class",
                              "name": "class",
                              "type": "tuple"
                            },
                            {
                              "internalType": "bool",
                              "name": "exists",
                              "type": "bool"
                            }
                          ],
                          "internalType": "struct case3.Coverage[]",
                          "name": "policyHolderOf",
                          "type": "tuple[]"
                        },
                        {
                          "internalType": "bool",
                          "name": "exists",
                          "type": "bool"
                        }
                      ],
                      "internalType": "struct case3.Patient",
                      "name": "subject",
                      "type": "tuple"
                    },
                    {
                      "components": [
                        {
                          "internalType": "string",
                          "name": "id",
                          "type": "string"
                        },
                        {
                          "internalType": "string",
                          "name": "hasType",
                          "type": "string"
                        },
                        {
                          "internalType": "int256",
                          "name": "concept",
                          "type": "int256"
                        },
                        {
                          "internalType": "bool",
                          "name": "exists",
                          "type": "bool"
                        }
                      ],
                      "internalType": "struct case3.Medication[]",
                      "name": "medication",
                      "type": "tuple[]"
                    },
                    {
                      "internalType": "bool",
                      "name": "exists",
                      "type": "bool"
                    }
                  ],
                  "internalType": "struct case3.MedicationRequest",
                  "name": "request",
                  "type": "tuple"
                },
                {
                  "components": [
                    {
                      "internalType": "string",
                      "name": "id",
                      "type": "string"
                    },
                    {
                      "internalType": "string",
                      "name": "hasType",
                      "type": "string"
                    },
                    {
                      "components": [
                        {
                          "internalType": "string",
                          "name": "id",
                          "type": "string"
                        },
                        {
                          "internalType": "string",
                          "name": "clinicalStatus",
                          "type": "string"
                        },
                        {
                          "internalType": "string",
                          "name": "hasType",
                          "type": "string"
                        },
                        {
                          "internalType": "int256",
                          "name": "code",
                          "type": "int256"
                        },
                        {
                          "internalType": "string",
                          "name": "verificationStatus",
                          "type": "string"
                        },
                        {
                          "internalType": "bool",
                          "name": "exists",
                          "type": "bool"
                        }
                      ],
                      "internalType": "struct case3.Condition[]",
                      "name": "subjectOf",
                      "type": "tuple[]"
                    },
                    {
                      "internalType": "string",
                      "name": "gender",
                      "type": "string"
                    },
                    {
                      "components": [
                        {
                          "internalType": "string",
                          "name": "id",
                          "type": "string"
                        },
                        {
                          "internalType": "string",
                          "name": "hasType",
                          "type": "string"
                        },
                        {
                          "components": [
                            {
                              "internalType": "string",
                              "name": "id",
                              "type": "string"
                            },
                            {
                              "internalType": "string",
                              "name": "hasType",
                              "type": "string"
                            },
                            {
                              "internalType": "bool",
                              "name": "exists",
                              "type": "bool"
                            }
                          ],
                          "internalType": "struct case3.Insurer",
                          "name": "insurer",
                          "type": "tuple"
                        },
                        {
                          "components": [
                            {
                              "internalType": "string",
                              "name": "id",
                              "type": "string"
                            },
                            {
                              "internalType": "string",
                              "name": "hasType",
                              "type": "string"
                            },
                            {
                              "internalType": "bool",
                              "name": "exists",
                              "type": "bool"
                            }
                          ],
                          "internalType": "struct case3.Class",
                          "name": "class",
                          "type": "tuple"
                        },
                        {
                          "internalType": "bool",
                          "name": "exists",
                          "type": "bool"
                        }
                      ],
                      "internalType": "struct case3.Coverage[]",
                      "name": "policyHolderOf",
                      "type": "tuple[]"
                    },
                    {
                      "internalType": "bool",
                      "name": "exists",
                      "type": "bool"
                    }
                  ],
                  "internalType": "struct case3.Patient",
                  "name": "patient",
                  "type": "tuple"
                },
                {
                  "components": [
                    {
                      "internalType": "string",
                      "name": "id",
                      "type": "string"
                    },
                    {
                      "internalType": "string",
                      "name": "hasType",
                      "type": "string"
                    },
                    {
                      "components": [
                        {
                          "internalType": "string",
                          "name": "id",
                          "type": "string"
                        },
                        {
                          "internalType": "string",
                          "name": "hasType",
                          "type": "string"
                        },
                        {
                          "internalType": "bool",
                          "name": "exists",
                          "type": "bool"
                        }
                      ],
                      "internalType": "struct case3.Insurer",
                      "name": "insurer",
                      "type": "tuple"
                    },
                    {
                      "components": [
                        {
                          "internalType": "string",
                          "name": "id",
                          "type": "string"
                        },
                        {
                          "internalType": "string",
                          "name": "hasType",
                          "type": "string"
                        },
                        {
                          "internalType": "bool",
                          "name": "exists",
                          "type": "bool"
                        }
                      ],
                      "internalType": "struct case3.Class",
                      "name": "class",
                      "type": "tuple"
                    },
                    {
                      "internalType": "bool",
                      "name": "exists",
                      "type": "bool"
                    }
                  ],
                  "internalType": "struct case3.Coverage",
                  "name": "covered",
                  "type": "tuple"
                },
                {
                  "internalType": "bool",
                  "name": "exists",
                  "type": "bool"
                }
              ],
              "internalType": "struct case3.CoverageEligibilityResponse",
              "name": "response",
              "type": "tuple"
            },
            {
              "internalType": "bool",
              "name": "exists",
              "type": "bool"
            }
          ],
          "internalType": "struct case3.CoverageEligibilityRequest",
          "name": "req",
          "type": "tuple"
        }
      ],
      "name": "process",
      "outputs": [],
      "stateMutability": "nonpayable",
      "type": "function"
    },
    {
      "inputs": [
        {
          "components": [
            {
              "internalType": "string",
              "name": "id",
              "type": "string"
            },
            {
              "internalType": "string",
              "name": "hasType",
              "type": "string"
            },
            {
              "components": [
                {
                  "internalType": "string",
                  "name": "id",
                  "type": "string"
                },
                {
                  "internalType": "string",
                  "name": "hasType",
                  "type": "string"
                },
                {
                  "components": [
                    {
                      "internalType": "string",
                      "name": "id",
                      "type": "string"
                    },
                    {
                      "internalType": "string",
                      "name": "clinicalStatus",
                      "type": "string"
                    },
                    {
                      "internalType": "string",
                      "name": "hasType",
                      "type": "string"
                    },
                    {
                      "internalType": "int256",
                      "name": "code",
                      "type": "int256"
                    },
                    {
                      "internalType": "string",
                      "name": "verificationStatus",
                      "type": "string"
                    },
                    {
                      "internalType": "bool",
                      "name": "exists",
                      "type": "bool"
                    }
                  ],
                  "internalType": "struct case3.Condition[]",
                  "name": "subjectOf",
                  "type": "tuple[]"
                },
                {
                  "internalType": "string",
                  "name": "gender",
                  "type": "string"
                },
                {
                  "components": [
                    {
                      "internalType": "string",
                      "name": "id",
                      "type": "string"
                    },
                    {
                      "internalType": "string",
                      "name": "hasType",
                      "type": "string"
                    },
                    {
                      "components": [
                        {
                          "internalType": "string",
                          "name": "id",
                          "type": "string"
                        },
                        {
                          "internalType": "string",
                          "name": "hasType",
                          "type": "string"
                        },
                        {
                          "internalType": "bool",
                          "name": "exists",
                          "type": "bool"
                        }
                      ],
                      "internalType": "struct case3.Insurer",
                      "name": "insurer",
                      "type": "tuple"
                    },
                    {
                      "components": [
                        {
                          "internalType": "string",
                          "name": "id",
                          "type": "string"
                        },
                        {
                          "internalType": "string",
                          "name": "hasType",
                          "type": "string"
                        },
                        {
                          "internalType": "bool",
                          "name": "exists",
                          "type": "bool"
                        }
                      ],
                      "internalType": "struct case3.Class",
                      "name": "class",
                      "type": "tuple"
                    },
                    {
                      "internalType": "bool",
                      "name": "exists",
                      "type": "bool"
                    }
                  ],
                  "internalType": "struct case3.Coverage[]",
                  "name": "policyHolderOf",
                  "type": "tuple[]"
                },
                {
                  "internalType": "bool",
                  "name": "exists",
                  "type": "bool"
                }
              ],
              "internalType": "struct case3.Patient",
              "name": "patient",
              "type": "tuple"
            },
            {
              "components": [
                {
                  "internalType": "string",
                  "name": "id",
                  "type": "string"
                },
                {
                  "internalType": "string",
                  "name": "clinicalStatus",
                  "type": "string"
                },
                {
                  "internalType": "string",
                  "name": "hasType",
                  "type": "string"
                },
                {
                  "internalType": "int256",
                  "name": "code",
                  "type": "int256"
                },
                {
                  "internalType": "string",
                  "name": "verificationStatus",
                  "type": "string"
                },
                {
                  "internalType": "bool",
                  "name": "exists",
                  "type": "bool"
                }
              ],
              "internalType": "struct case3.Condition",
              "name": "pmOsteo",
              "type": "tuple"
            },
            {
              "components": [
                {
                  "internalType": "string",
                  "name": "id",
                  "type": "string"
                },
                {
                  "internalType": "string",
                  "name": "clinicalStatus",
                  "type": "string"
                },
                {
                  "internalType": "string",
                  "name": "hasType",
                  "type": "string"
                },
                {
                  "internalType": "int256",
                  "name": "code",
                  "type": "int256"
                },
                {
                  "internalType": "string",
                  "name": "verificationStatus",
                  "type": "string"
                },
                {
                  "internalType": "bool",
                  "name": "exists",
                  "type": "bool"
                }
              ],
              "internalType": "struct case3.Condition",
              "name": "osteoBoneFracture",
              "type": "tuple"
            },
            {
              "components": [
                {
                  "internalType": "string",
                  "name": "id",
                  "type": "string"
                },
                {
                  "internalType": "string",
                  "name": "hasType",
                  "type": "string"
                },
                {
                  "internalType": "bool",
                  "name": "exists",
                  "type": "bool"
                }
              ],
              "internalType": "struct case3.Practitioner",
              "name": "provider",
              "type": "tuple"
            },
            {
              "internalType": "string",
              "name": "purpose",
              "type": "string"
            },
            {
              "components": [
                {
                  "internalType": "string",
                  "name": "id",
                  "type": "string"
                },
                {
                  "internalType": "string",
                  "name": "hasType",
                  "type": "string"
                },
                {
                  "components": [
                    {
                      "internalType": "string",
                      "name": "id",
                      "type": "string"
                    },
                    {
                      "internalType": "string",
                      "name": "clinicalStatus",
                      "type": "string"
                    },
                    {
                      "internalType": "string",
                      "name": "hasType",
                      "type": "string"
                    },
                    {
                      "internalType": "int256",
                      "name": "code",
                      "type": "int256"
                    },
                    {
                      "internalType": "string",
                      "name": "verificationStatus",
                      "type": "string"
                    },
                    {
                      "internalType": "bool",
                      "name": "exists",
                      "type": "bool"
                    }
                  ],
                  "internalType": "struct case3.Condition",
                  "name": "reason",
                  "type": "tuple"
                },
                {
                  "components": [
                    {
                      "internalType": "string",
                      "name": "id",
                      "type": "string"
                    },
                    {
                      "internalType": "string",
                      "name": "hasType",
                      "type": "string"
                    },
                    {
                      "components": [
                        {
                          "internalType": "string",
                          "name": "id",
                          "type": "string"
                        },
                        {
                          "internalType": "string",
                          "name": "clinicalStatus",
                          "type": "string"
                        },
                        {
                          "internalType": "string",
                          "name": "hasType",
                          "type": "string"
                        },
                        {
                          "internalType": "int256",
                          "name": "code",
                          "type": "int256"
                        },
                        {
                          "internalType": "string",
                          "name": "verificationStatus",
                          "type": "string"
                        },
                        {
                          "internalType": "bool",
                          "name": "exists",
                          "type": "bool"
                        }
                      ],
                      "internalType": "struct case3.Condition[]",
                      "name": "subjectOf",
                      "type": "tuple[]"
                    },
                    {
                      "internalType": "string",
                      "name": "gender",
                      "type": "string"
                    },
                    {
                      "components": [
                        {
                          "internalType": "string",
                          "name": "id",
                          "type": "string"
                        },
                        {
                          "internalType": "string",
                          "name": "hasType",
                          "type": "string"
                        },
                        {
                          "components": [
                            {
                              "internalType": "string",
                              "name": "id",
                              "type": "string"
                            },
                            {
                              "internalType": "string",
                              "name": "hasType",
                              "type": "string"
                            },
                            {
                              "internalType": "bool",
                              "name": "exists",
                              "type": "bool"
                            }
                          ],
                          "internalType": "struct case3.Insurer",
                          "name": "insurer",
                          "type": "tuple"
                        },
                        {
                          "components": [
                            {
                              "internalType": "string",
                              "name": "id",
                              "type": "string"
                            },
                            {
                              "internalType": "string",
                              "name": "hasType",
                              "type": "string"
                            },
                            {
                              "internalType": "bool",
                              "name": "exists",
                              "type": "bool"
                            }
                          ],
                          "internalType": "struct case3.Class",
                          "name": "class",
                          "type": "tuple"
                        },
                        {
                          "internalType": "bool",
                          "name": "exists",
                          "type": "bool"
                        }
                      ],
                      "internalType": "struct case3.Coverage[]",
                      "name": "policyHolderOf",
                      "type": "tuple[]"
                    },
                    {
                      "internalType": "bool",
                      "name": "exists",
                      "type": "bool"
                    }
                  ],
                  "internalType": "struct case3.Patient",
                  "name": "subject",
                  "type": "tuple"
                },
                {
                  "components": [
                    {
                      "internalType": "string",
                      "name": "id",
                      "type": "string"
                    },
                    {
                      "internalType": "string",
                      "name": "hasType",
                      "type": "string"
                    },
                    {
                      "internalType": "int256",
                      "name": "concept",
                      "type": "int256"
                    },
                    {
                      "internalType": "bool",
                      "name": "exists",
                      "type": "bool"
                    }
                  ],
                  "internalType": "struct case3.Medication[]",
                  "name": "medication",
                  "type": "tuple[]"
                },
                {
                  "internalType": "bool",
                  "name": "exists",
                  "type": "bool"
                }
              ],
              "internalType": "struct case3.MedicationRequest[]",
              "name": "item",
              "type": "tuple[]"
            },
            {
              "components": [
                {
                  "internalType": "string",
                  "name": "id",
                  "type": "string"
                },
                {
                  "internalType": "string",
                  "name": "hasType",
                  "type": "string"
                },
                {
                  "components": [
                    {
                      "internalType": "string",
                      "name": "id",
                      "type": "string"
                    },
                    {
                      "internalType": "string",
                      "name": "clinicalStatus",
                      "type": "string"
                    },
                    {
                      "internalType": "string",
                      "name": "hasType",
                      "type": "string"
                    },
                    {
                      "internalType": "int256",
                      "name": "code",
                      "type": "int256"
                    },
                    {
                      "internalType": "string",
                      "name": "verificationStatus",
                      "type": "string"
                    },
                    {
                      "internalType": "bool",
                      "name": "exists",
                      "type": "bool"
                    }
                  ],
                  "internalType": "struct case3.Condition",
                  "name": "reason",
                  "type": "tuple"
                },
                {
                  "components": [
                    {
                      "internalType": "string",
                      "name": "id",
                      "type": "string"
                    },
                    {
                      "internalType": "string",
                      "name": "hasType",
                      "type": "string"
                    },
                    {
                      "components": [
                        {
                          "internalType": "string",
                          "name": "id",
                          "type": "string"
                        },
                        {
                          "internalType": "string",
                          "name": "clinicalStatus",
                          "type": "string"
                        },
                        {
                          "internalType": "string",
                          "name": "hasType",
                          "type": "string"
                        },
                        {
                          "internalType": "int256",
                          "name": "code",
                          "type": "int256"
                        },
                        {
                          "internalType": "string",
                          "name": "verificationStatus",
                          "type": "string"
                        },
                        {
                          "internalType": "bool",
                          "name": "exists",
                          "type": "bool"
                        }
                      ],
                      "internalType": "struct case3.Condition[]",
                      "name": "subjectOf",
                      "type": "tuple[]"
                    },
                    {
                      "internalType": "string",
                      "name": "gender",
                      "type": "string"
                    },
                    {
                      "components": [
                        {
                          "internalType": "string",
                          "name": "id",
                          "type": "string"
                        },
                        {
                          "internalType": "string",
                          "name": "hasType",
                          "type": "string"
                        },
                        {
                          "components": [
                            {
                              "internalType": "string",
                              "name": "id",
                              "type": "string"
                            },
                            {
                              "internalType": "string",
                              "name": "hasType",
                              "type": "string"
                            },
                            {
                              "internalType": "bool",
                              "name": "exists",
                              "type": "bool"
                            }
                          ],
                          "internalType": "struct case3.Insurer",
                          "name": "insurer",
                          "type": "tuple"
                        },
                        {
                          "components": [
                            {
                              "internalType": "string",
                              "name": "id",
                              "type": "string"
                            },
                            {
                              "internalType": "string",
                              "name": "hasType",
                              "type": "string"
                            },
                            {
                              "internalType": "bool",
                              "name": "exists",
                              "type": "bool"
                            }
                          ],
                          "internalType": "struct case3.Class",
                          "name": "class",
                          "type": "tuple"
                        },
                        {
                          "internalType": "bool",
                          "name": "exists",
                          "type": "bool"
                        }
                      ],
                      "internalType": "struct case3.Coverage[]",
                      "name": "policyHolderOf",
                      "type": "tuple[]"
                    },
                    {
                      "internalType": "bool",
                      "name": "exists",
                      "type": "bool"
                    }
                  ],
                  "internalType": "struct case3.Patient",
                  "name": "subject",
                  "type": "tuple"
                },
                {
                  "components": [
                    {
                      "internalType": "string",
                      "name": "id",
                      "type": "string"
                    },
                    {
                      "internalType": "string",
                      "name": "hasType",
                      "type": "string"
                    },
                    {
                      "internalType": "int256",
                      "name": "concept",
                      "type": "int256"
                    },
                    {
                      "internalType": "bool",
                      "name": "exists",
                      "type": "bool"
                    }
                  ],
                  "internalType": "struct case3.Medication[]",
                  "name": "medication",
                  "type": "tuple[]"
                },
                {
                  "internalType": "bool",
                  "name": "exists",
                  "type": "bool"
                }
              ],
              "internalType": "struct case3.MedicationRequest",
              "name": "osteoDrugItem",
              "type": "tuple"
            },
            {
              "components": [
                {
                  "internalType": "string",
                  "name": "id",
                  "type": "string"
                },
                {
                  "internalType": "string",
                  "name": "hasType",
                  "type": "string"
                },
                {
                  "internalType": "string",
                  "name": "outcome",
                  "type": "string"
                },
                {
                  "components": [
                    {
                      "internalType": "string",
                      "name": "id",
                      "type": "string"
                    },
                    {
                      "internalType": "string",
                      "name": "hasType",
                      "type": "string"
                    },
                    {
                      "components": [
                        {
                          "internalType": "string",
                          "name": "id",
                          "type": "string"
                        },
                        {
                          "internalType": "string",
                          "name": "clinicalStatus",
                          "type": "string"
                        },
                        {
                          "internalType": "string",
                          "name": "hasType",
                          "type": "string"
                        },
                        {
                          "internalType": "int256",
                          "name": "code",
                          "type": "int256"
                        },
                        {
                          "internalType": "string",
                          "name": "verificationStatus",
                          "type": "string"
                        },
                        {
                          "internalType": "bool",
                          "name": "exists",
                          "type": "bool"
                        }
                      ],
                      "internalType": "struct case3.Condition",
                      "name": "reason",
                      "type": "tuple"
                    },
                    {
                      "components": [
                        {
                          "internalType": "string",
                          "name": "id",
                          "type": "string"
                        },
                        {
                          "internalType": "string",
                          "name": "hasType",
                          "type": "string"
                        },
                        {
                          "components": [
                            {
                              "internalType": "string",
                              "name": "id",
                              "type": "string"
                            },
                            {
                              "internalType": "string",
                              "name": "clinicalStatus",
                              "type": "string"
                            },
                            {
                              "internalType": "string",
                              "name": "hasType",
                              "type": "string"
                            },
                            {
                              "internalType": "int256",
                              "name": "code",
                              "type": "int256"
                            },
                            {
                              "internalType": "string",
                              "name": "verificationStatus",
                              "type": "string"
                            },
                            {
                              "internalType": "bool",
                              "name": "exists",
                              "type": "bool"
                            }
                          ],
                          "internalType": "struct case3.Condition[]",
                          "name": "subjectOf",
                          "type": "tuple[]"
                        },
                        {
                          "internalType": "string",
                          "name": "gender",
                          "type": "string"
                        },
                        {
                          "components": [
                            {
                              "internalType": "string",
                              "name": "id",
                              "type": "string"
                            },
                            {
                              "internalType": "string",
                              "name": "hasType",
                              "type": "string"
                            },
                            {
                              "components": [
                                {
                                  "internalType": "string",
                                  "name": "id",
                                  "type": "string"
                                },
                                {
                                  "internalType": "string",
                                  "name": "hasType",
                                  "type": "string"
                                },
                                {
                                  "internalType": "bool",
                                  "name": "exists",
                                  "type": "bool"
                                }
                              ],
                              "internalType": "struct case3.Insurer",
                              "name": "insurer",
                              "type": "tuple"
                            },
                            {
                              "components": [
                                {
                                  "internalType": "string",
                                  "name": "id",
                                  "type": "string"
                                },
                                {
                                  "internalType": "string",
                                  "name": "hasType",
                                  "type": "string"
                                },
                                {
                                  "internalType": "bool",
                                  "name": "exists",
                                  "type": "bool"
                                }
                              ],
                              "internalType": "struct case3.Class",
                              "name": "class",
                              "type": "tuple"
                            },
                            {
                              "internalType": "bool",
                              "name": "exists",
                              "type": "bool"
                            }
                          ],
                          "internalType": "struct case3.Coverage[]",
                          "name": "policyHolderOf",
                          "type": "tuple[]"
                        },
                        {
                          "internalType": "bool",
                          "name": "exists",
                          "type": "bool"
                        }
                      ],
                      "internalType": "struct case3.Patient",
                      "name": "subject",
                      "type": "tuple"
                    },
                    {
                      "components": [
                        {
                          "internalType": "string",
                          "name": "id",
                          "type": "string"
                        },
                        {
                          "internalType": "string",
                          "name": "hasType",
                          "type": "string"
                        },
                        {
                          "internalType": "int256",
                          "name": "concept",
                          "type": "int256"
                        },
                        {
                          "internalType": "bool",
                          "name": "exists",
                          "type": "bool"
                        }
                      ],
                      "internalType": "struct case3.Medication[]",
                      "name": "medication",
                      "type": "tuple[]"
                    },
                    {
                      "internalType": "bool",
                      "name": "exists",
                      "type": "bool"
                    }
                  ],
                  "internalType": "struct case3.MedicationRequest",
                  "name": "request",
                  "type": "tuple"
                },
                {
                  "components": [
                    {
                      "internalType": "string",
                      "name": "id",
                      "type": "string"
                    },
                    {
                      "internalType": "string",
                      "name": "hasType",
                      "type": "string"
                    },
                    {
                      "components": [
                        {
                          "internalType": "string",
                          "name": "id",
                          "type": "string"
                        },
                        {
                          "internalType": "string",
                          "name": "clinicalStatus",
                          "type": "string"
                        },
                        {
                          "internalType": "string",
                          "name": "hasType",
                          "type": "string"
                        },
                        {
                          "internalType": "int256",
                          "name": "code",
                          "type": "int256"
                        },
                        {
                          "internalType": "string",
                          "name": "verificationStatus",
                          "type": "string"
                        },
                        {
                          "internalType": "bool",
                          "name": "exists",
                          "type": "bool"
                        }
                      ],
                      "internalType": "struct case3.Condition[]",
                      "name": "subjectOf",
                      "type": "tuple[]"
                    },
                    {
                      "internalType": "string",
                      "name": "gender",
                      "type": "string"
                    },
                    {
                      "components": [
                        {
                          "internalType": "string",
                          "name": "id",
                          "type": "string"
                        },
                        {
                          "internalType": "string",
                          "name": "hasType",
                          "type": "string"
                        },
                        {
                          "components": [
                            {
                              "internalType": "string",
                              "name": "id",
                              "type": "string"
                            },
                            {
                              "internalType": "string",
                              "name": "hasType",
                              "type": "string"
                            },
                            {
                              "internalType": "bool",
                              "name": "exists",
                              "type": "bool"
                            }
                          ],
                          "internalType": "struct case3.Insurer",
                          "name": "insurer",
                          "type": "tuple"
                        },
                        {
                          "components": [
                            {
                              "internalType": "string",
                              "name": "id",
                              "type": "string"
                            },
                            {
                              "internalType": "string",
                              "name": "hasType",
                              "type": "string"
                            },
                            {
                              "internalType": "bool",
                              "name": "exists",
                              "type": "bool"
                            }
                          ],
                          "internalType": "struct case3.Class",
                          "name": "class",
                          "type": "tuple"
                        },
                        {
                          "internalType": "bool",
                          "name": "exists",
                          "type": "bool"
                        }
                      ],
                      "internalType": "struct case3.Coverage[]",
                      "name": "policyHolderOf",
                      "type": "tuple[]"
                    },
                    {
                      "internalType": "bool",
                      "name": "exists",
                      "type": "bool"
                    }
                  ],
                  "internalType": "struct case3.Patient",
                  "name": "patient",
                  "type": "tuple"
                },
                {
                  "components": [
                    {
                      "internalType": "string",
                      "name": "id",
                      "type": "string"
                    },
                    {
                      "internalType": "string",
                      "name": "hasType",
                      "type": "string"
                    },
                    {
                      "components": [
                        {
                          "internalType": "string",
                          "name": "id",
                          "type": "string"
                        },
                        {
                          "internalType": "string",
                          "name": "hasType",
                          "type": "string"
                        },
                        {
                          "internalType": "bool",
                          "name": "exists",
                          "type": "bool"
                        }
                      ],
                      "internalType": "struct case3.Insurer",
                      "name": "insurer",
                      "type": "tuple"
                    },
                    {
                      "components": [
                        {
                          "internalType": "string",
                          "name": "id",
                          "type": "string"
                        },
                        {
                          "internalType": "string",
                          "name": "hasType",
                          "type": "string"
                        },
                        {
                          "internalType": "bool",
                          "name": "exists",
                          "type": "bool"
                        }
                      ],
                      "internalType": "struct case3.Class",
                      "name": "class",
                      "type": "tuple"
                    },
                    {
                      "internalType": "bool",
                      "name": "exists",
                      "type": "bool"
                    }
                  ],
                  "internalType": "struct case3.Coverage",
                  "name": "covered",
                  "type": "tuple"
                },
                {
                  "internalType": "bool",
                  "name": "exists",
                  "type": "bool"
                }
              ],
              "internalType": "struct case3.CoverageEligibilityResponse",
              "name": "response",
              "type": "tuple"
            },
            {
              "internalType": "bool",
              "name": "exists",
              "type": "bool"
            }
          ],
          "internalType": "struct case3.CoverageEligibilityRequest",
          "name": "req",
          "type": "tuple"
        },
        {
          "components": [
            {
              "internalType": "string",
              "name": "id",
              "type": "string"
            },
            {
              "internalType": "string",
              "name": "hasType",
              "type": "string"
            },
            {
              "components": [
                {
                  "internalType": "string",
                  "name": "id",
                  "type": "string"
                },
                {
                  "internalType": "string",
                  "name": "hasType",
                  "type": "string"
                },
                {
                  "internalType": "bool",
                  "name": "exists",
                  "type": "bool"
                }
              ],
              "internalType": "struct case3.Insurer",
              "name": "insurer",
              "type": "tuple"
            },
            {
              "components": [
                {
                  "internalType": "string",
                  "name": "id",
                  "type": "string"
                },
                {
                  "internalType": "string",
                  "name": "hasType",
                  "type": "string"
                },
                {
                  "internalType": "bool",
                  "name": "exists",
                  "type": "bool"
                }
              ],
              "internalType": "struct case3.Class",
              "name": "class",
              "type": "tuple"
            },
            {
              "internalType": "bool",
              "name": "exists",
              "type": "bool"
            }
          ],
          "internalType": "struct case3.Coverage[]",
          "name": "results",
          "type": "tuple[]"
        }
      ],
      "name": "callback1",
      "outputs": [],
      "stateMutability": "nonpayable",
      "type": "function"
    }
  ],
  "bytecode": "0x608060405234801561001057600080fd5b50612679806100206000396000f3fe608060405234801561001057600080fd5b50600436106100365760003560e01c80637977479e1461003b578063feb3b48d14610057575b600080fd5b610055600480360381019061005091906118da565b610073565b005b610071600480360381019061006c9190611923565b61062c565b005b806040015160a0015180156100915750600081604001516040015151115b156101565760005b8160400151604001515181101561015457600082604001516040015182815181106100c7576100c661199b565b5b6020026020010151905063061b37a1816060015114801561013157507f9651c33eb23976f7c15240e86443dc2ded40546fa9ba457a14abab4090e023b581602001516040516020016101199190611a3b565b60405160208183030381529060405280519060200120145b15610140578083606001819052505b50808061014c90611a8b565b915050610099565b505b806040015160a0015180156101745750600081604001516040015151115b1561028e5760005b8160400151604001515181101561028c57600082604001516040015182815181106101aa576101a961199b565b5b60200260200101519050631a6a294e816060015114801561021457507f8fbb8dad9e3865f36bbe2a27c9cb2cb4c4e3db9188c84707107220db2318a41881608001516040516020016101fc9190611a3b565b60405160208183030381529060405280519060200120145b801561026957507f9651c33eb23976f7c15240e86443dc2ded40546fa9ba457a14abab4090e023b581602001516040516020016102519190611a3b565b60405160208183030381529060405280519060200120145b15610278578083608001819052505b50808061028490611a8b565b91505061017c565b505b60008160e00151511180156102a85750806080015160a001515b80156102b95750806060015160a001515b801561030e57507f9abeb3b79933c80ba266c7bfae4e1552e05b2e8f4b11e956d6d744b05e5b613e8160c001516040516020016102f69190611a3b565b60405160208183030381529060405280519060200120145b801561031f57508060a00151604001515b80156103305750806040015160a001515b156104f65760005b8160e00151518110156104f45760008260e00151828151811061035e5761035d61199b565b5b60200260200101519050600081608001515111801561038757506103868382608001516108ad565b5b80156103985750806060015160a001515b80156103f157507f4dfaf292412d13601e73526ca8124b4807dfd849266a924b97aab94fdf589d738160600151606001516040516020016103d99190611a3b565b60405160208183030381529060405280519060200120145b80156104025750806040015160a001515b801561046957508060400151600001516040516020016104229190611a3b565b604051602081830303815290604052805190602001208360600151600001516040516020016104519190611a3b565b60405160208183030381529060405280519060200120145b80156104d057508060600151600001516040516020016104899190611a3b565b604051602081830303815290604052805190602001208360400151600001516040516020016104b89190611a3b565b60405160208183030381529060405280519060200120145b156104e057808361010001819052505b5080806104ec90611a8b565b915050610338565b505b806040015160a001518015610511575080610100015160a001515b15610629577fc7d849fff2fd51196b9bdc77254f2cf7f5266d277a277f2379fa61c21110e16560405180608001604052808381526020016040518060400160405280600881526020017f436f766572616765000000000000000000000000000000000000000000000000815250815260200160405180604001604052806040518060400160405280600c81526020017f706f6c696379486f6c6465720000000000000000000000000000000000000000815250815260200185604001516000015181525081526020016040518060400160405280600981526020017f63616c6c6261636b3100000000000000000000000000000000000000000000008152508152506040516106209190612540565b60405180910390a15b50565b60005b81518110156108a857600082828151811061064d5761064c61199b565b5b60200260200101519050806060015160400151801561071157507f824a601788f3d0a04585f55a613ffaffd162509f93b945ef80b0918440d34af18160600151602001516040516020016106a19190611a3b565b60405160208183030381529060405280519060200120148061071057507f80cfe4b2e33aa2ecec5602fb0e83faf23fe69611bd42e8ca1cfd506ca3969d268160600151602001516040516020016106f89190611a3b565b60405160208183030381529060405280519060200120145b5b801561076a57507f90f2283f05cd1bf6bfc18816cac0883ed8cba4b8d071671ed37de9e4863137288160400151602001516040516020016107529190611a3b565b60405160208183030381529060405280519060200120145b156108945760006040518060e001604052806040518060400160405280600381526020017f313233000000000000000000000000000000000000000000000000000000000081525081526020016040518060400160405280600381526020017f313233000000000000000000000000000000000000000000000000000000000081525081526020016040518060400160405280600881526020017f636f6d706c6574650000000000000000000000000000000000000000000000008152508152602001866101000151815260200186604001518152602001838152602001600115158152509050808561012001819052507f537199e4630742abe3fe6a24a1d9e3507c23f25869c99a8b99a9a5c2f356ec198160405161088a9190612621565b60405180910390a1505b5080806108a090611a8b565b91505061062f565b505050565b600080600090505b825181101561090b5760008382815181106108d3576108d261199b565b5b602002602001015190506317c58e598160400151036108f757600192505050610911565b50808061090390611a8b565b9150506108b5565b50600090505b92915050565b6000604051905090565b600080fd5b600080fd5b600080fd5b6000601f19601f8301169050919050565b7f4e487b7100000000000000000000000000000000000000000000000000000000600052604160045260246000fd5b61097982610930565b810181811067ffffffffffffffff8211171561099857610997610941565b5b80604052505050565b60006109ab610917565b90506109b78282610970565b919050565b600080fd5b600080fd5b600080fd5b600067ffffffffffffffff8211156109e6576109e5610941565b5b6109ef82610930565b9050602081019050919050565b82818337600083830152505050565b6000610a1e610a19846109cb565b6109a1565b905082815260208101848484011115610a3a57610a396109c6565b5b610a458482856109fc565b509392505050565b600082601f830112610a6257610a616109c1565b5b8135610a72848260208601610a0b565b91505092915050565b600067ffffffffffffffff821115610a9657610a95610941565b5b602082029050602081019050919050565b600080fd5b6000819050919050565b610abf81610aac565b8114610aca57600080fd5b50565b600081359050610adc81610ab6565b92915050565b60008115159050919050565b610af781610ae2565b8114610b0257600080fd5b50565b600081359050610b1481610aee565b92915050565b600060c08284031215610b3057610b2f61092b565b5b610b3a60c06109a1565b9050600082013567ffffffffffffffff811115610b5a57610b596109bc565b5b610b6684828501610a4d565b600083015250602082013567ffffffffffffffff811115610b8a57610b896109bc565b5b610b9684828501610a4d565b602083015250604082013567ffffffffffffffff811115610bba57610bb96109bc565b5b610bc684828501610a4d565b6040830152506060610bda84828501610acd565b606083015250608082013567ffffffffffffffff811115610bfe57610bfd6109bc565b5b610c0a84828501610a4d565b60808301525060a0610c1e84828501610b05565b60a08301525092915050565b6000610c3d610c3884610a7b565b6109a1565b90508083825260208201905060208402830185811115610c6057610c5f610aa7565b5b835b81811015610ca757803567ffffffffffffffff811115610c8557610c846109c1565b5b808601610c928982610b1a565b85526020850194505050602081019050610c62565b5050509392505050565b600082601f830112610cc657610cc56109c1565b5b8135610cd6848260208601610c2a565b91505092915050565b600067ffffffffffffffff821115610cfa57610cf9610941565b5b602082029050602081019050919050565b600060608284031215610d2157610d2061092b565b5b610d2b60606109a1565b9050600082013567ffffffffffffffff811115610d4b57610d4a6109bc565b5b610d5784828501610a4d565b600083015250602082013567ffffffffffffffff811115610d7b57610d7a6109bc565b5b610d8784828501610a4d565b6020830152506040610d9b84828501610b05565b60408301525092915050565b600060608284031215610dbd57610dbc61092b565b5b610dc760606109a1565b9050600082013567ffffffffffffffff811115610de757610de66109bc565b5b610df384828501610a4d565b600083015250602082013567ffffffffffffffff811115610e1757610e166109bc565b5b610e2384828501610a4d565b6020830152506040610e3784828501610b05565b60408301525092915050565b600060a08284031215610e5957610e5861092b565b5b610e6360a06109a1565b9050600082013567ffffffffffffffff811115610e8357610e826109bc565b5b610e8f84828501610a4d565b600083015250602082013567ffffffffffffffff811115610eb357610eb26109bc565b5b610ebf84828501610a4d565b602083015250604082013567ffffffffffffffff811115610ee357610ee26109bc565b5b610eef84828501610d0b565b604083015250606082013567ffffffffffffffff811115610f1357610f126109bc565b5b610f1f84828501610da7565b6060830152506080610f3384828501610b05565b60808301525092915050565b6000610f52610f4d84610cdf565b6109a1565b90508083825260208201905060208402830185811115610f7557610f74610aa7565b5b835b81811015610fbc57803567ffffffffffffffff811115610f9a57610f996109c1565b5b808601610fa78982610e43565b85526020850194505050602081019050610f77565b5050509392505050565b600082601f830112610fdb57610fda6109c1565b5b8135610feb848260208601610f3f565b91505092915050565b600060c0828403121561100a5761100961092b565b5b61101460c06109a1565b9050600082013567ffffffffffffffff811115611034576110336109bc565b5b61104084828501610a4d565b600083015250602082013567ffffffffffffffff811115611064576110636109bc565b5b61107084828501610a4d565b602083015250604082013567ffffffffffffffff811115611094576110936109bc565b5b6110a084828501610cb1565b604083015250606082013567ffffffffffffffff8111156110c4576110c36109bc565b5b6110d084828501610a4d565b606083015250608082013567ffffffffffffffff8111156110f4576110f36109bc565b5b61110084828501610fc6565b60808301525060a061111484828501610b05565b60a08301525092915050565b6000606082840312156111365761113561092b565b5b61114060606109a1565b9050600082013567ffffffffffffffff8111156111605761115f6109bc565b5b61116c84828501610a4d565b600083015250602082013567ffffffffffffffff8111156111905761118f6109bc565b5b61119c84828501610a4d565b60208301525060406111b084828501610b05565b60408301525092915050565b600067ffffffffffffffff8211156111d7576111d6610941565b5b602082029050602081019050919050565b600067ffffffffffffffff82111561120357611202610941565b5b602082029050602081019050919050565b60006080828403121561122a5761122961092b565b5b61123460806109a1565b9050600082013567ffffffffffffffff811115611254576112536109bc565b5b61126084828501610a4d565b600083015250602082013567ffffffffffffffff811115611284576112836109bc565b5b61129084828501610a4d565b60208301525060406112a484828501610acd565b60408301525060606112b884828501610b05565b60608301525092915050565b60006112d76112d2846111e8565b6109a1565b905080838252602082019050602084028301858111156112fa576112f9610aa7565b5b835b8181101561134157803567ffffffffffffffff81111561131f5761131e6109c1565b5b80860161132c8982611214565b855260208501945050506020810190506112fc565b5050509392505050565b600082601f8301126113605761135f6109c1565b5b81356113708482602086016112c4565b91505092915050565b600060c0828403121561138f5761138e61092b565b5b61139960c06109a1565b9050600082013567ffffffffffffffff8111156113b9576113b86109bc565b5b6113c584828501610a4d565b600083015250602082013567ffffffffffffffff8111156113e9576113e86109bc565b5b6113f584828501610a4d565b602083015250604082013567ffffffffffffffff811115611419576114186109bc565b5b61142584828501610b1a565b604083015250606082013567ffffffffffffffff811115611449576114486109bc565b5b61145584828501610ff4565b606083015250608082013567ffffffffffffffff811115611479576114786109bc565b5b6114858482850161134b565b60808301525060a061149984828501610b05565b60a08301525092915050565b60006114b86114b3846111bc565b6109a1565b905080838252602082019050602084028301858111156114db576114da610aa7565b5b835b8181101561152257803567ffffffffffffffff811115611500576114ff6109c1565b5b80860161150d8982611379565b855260208501945050506020810190506114dd565b5050509392505050565b600082601f830112611541576115406109c1565b5b81356115518482602086016114a5565b91505092915050565b600060e082840312156115705761156f61092b565b5b61157a60e06109a1565b9050600082013567ffffffffffffffff81111561159a576115996109bc565b5b6115a684828501610a4d565b600083015250602082013567ffffffffffffffff8111156115ca576115c96109bc565b5b6115d684828501610a4d565b602083015250604082013567ffffffffffffffff8111156115fa576115f96109bc565b5b61160684828501610a4d565b604083015250606082013567ffffffffffffffff81111561162a576116296109bc565b5b61163684828501611379565b606083015250608082013567ffffffffffffffff81111561165a576116596109bc565b5b61166684828501610ff4565b60808301525060a082013567ffffffffffffffff81111561168a576116896109bc565b5b61169684828501610e43565b60a08301525060c06116aa84828501610b05565b60c08301525092915050565b600061016082840312156116cd576116cc61092b565b5b6116d86101606109a1565b9050600082013567ffffffffffffffff8111156116f8576116f76109bc565b5b61170484828501610a4d565b600083015250602082013567ffffffffffffffff811115611728576117276109bc565b5b61173484828501610a4d565b602083015250604082013567ffffffffffffffff811115611758576117576109bc565b5b61176484828501610ff4565b604083015250606082013567ffffffffffffffff811115611788576117876109bc565b5b61179484828501610b1a565b606083015250608082013567ffffffffffffffff8111156117b8576117b76109bc565b5b6117c484828501610b1a565b60808301525060a082013567ffffffffffffffff8111156117e8576117e76109bc565b5b6117f484828501611120565b60a08301525060c082013567ffffffffffffffff811115611818576118176109bc565b5b61182484828501610a4d565b60c08301525060e082013567ffffffffffffffff811115611848576118476109bc565b5b6118548482850161152c565b60e08301525061010082013567ffffffffffffffff811115611879576118786109bc565b5b61188584828501611379565b6101008301525061012082013567ffffffffffffffff8111156118ab576118aa6109bc565b5b6118b78482850161155a565b610120830152506101406118cd84828501610b05565b6101408301525092915050565b6000602082840312156118f0576118ef610921565b5b600082013567ffffffffffffffff81111561190e5761190d610926565b5b61191a848285016116b6565b91505092915050565b6000806040838503121561193a57611939610921565b5b600083013567ffffffffffffffff81111561195857611957610926565b5b611964858286016116b6565b925050602083013567ffffffffffffffff81111561198557611984610926565b5b61199185828601610fc6565b9150509250929050565b7f4e487b7100000000000000000000000000000000000000000000000000000000600052603260045260246000fd5b600081519050919050565b600081905092915050565b60005b838110156119fe5780820151818401526020810190506119e3565b60008484015250505050565b6000611a15826119ca565b611a1f81856119d5565b9350611a2f8185602086016119e0565b80840191505092915050565b6000611a478284611a0a565b915081905092915050565b7f4e487b7100000000000000000000000000000000000000000000000000000000600052601160045260246000fd5b6000819050919050565b6000611a9682611a81565b91507fffffffffffffffffffffffffffffffffffffffffffffffffffffffffffffffff8203611ac857611ac7611a52565b5b600182019050919050565b600082825260208201905092915050565b6000611aef826119ca565b611af98185611ad3565b9350611b098185602086016119e0565b611b1281610930565b840191505092915050565b600081519050919050565b600082825260208201905092915050565b6000819050602082019050919050565b611b5281610aac565b82525050565b611b6181610ae2565b82525050565b600060c0830160008301518482036000860152611b848282611ae4565b91505060208301518482036020860152611b9e8282611ae4565b91505060408301518482036040860152611bb88282611ae4565b9150506060830151611bcd6060860182611b49565b5060808301518482036080860152611be58282611ae4565b91505060a0830151611bfa60a0860182611b58565b508091505092915050565b6000611c118383611b67565b905092915050565b6000602082019050919050565b6000611c3182611b1d565b611c3b8185611b28565b935083602082028501611c4d85611b39565b8060005b85811015611c895784840389528151611c6a8582611c05565b9450611c7583611c19565b925060208a01995050600181019050611c51565b50829750879550505050505092915050565b600081519050919050565b600082825260208201905092915050565b6000819050602082019050919050565b60006060830160008301518482036000860152611ce48282611ae4565b91505060208301518482036020860152611cfe8282611ae4565b9150506040830151611d136040860182611b58565b508091505092915050565b60006060830160008301518482036000860152611d3b8282611ae4565b91505060208301518482036020860152611d558282611ae4565b9150506040830151611d6a6040860182611b58565b508091505092915050565b600060a0830160008301518482036000860152611d928282611ae4565b91505060208301518482036020860152611dac8282611ae4565b91505060408301518482036040860152611dc68282611cc7565b91505060608301518482036060860152611de08282611d1e565b9150506080830151611df56080860182611b58565b508091505092915050565b6000611e0c8383611d75565b905092915050565b6000602082019050919050565b6000611e2c82611c9b565b611e368185611ca6565b935083602082028501611e4885611cb7565b8060005b85811015611e845784840389528151611e658582611e00565b9450611e7083611e14565b925060208a01995050600181019050611e4c565b50829750879550505050505092915050565b600060c0830160008301518482036000860152611eb38282611ae4565b91505060208301518482036020860152611ecd8282611ae4565b91505060408301518482036040860152611ee78282611c26565b91505060608301518482036060860152611f018282611ae4565b91505060808301518482036080860152611f1b8282611e21565b91505060a0830151611f3060a0860182611b58565b508091505092915050565b60006060830160008301518482036000860152611f588282611ae4565b91505060208301518482036020860152611f728282611ae4565b9150506040830151611f876040860182611b58565b508091505092915050565b600081519050919050565b600082825260208201905092915050565b6000819050602082019050919050565b600081519050919050565b600082825260208201905092915050565b6000819050602082019050919050565b600060808301600083015184820360008601526120078282611ae4565b915050602083015184820360208601526120218282611ae4565b91505060408301516120366040860182611b49565b5060608301516120496060860182611b58565b508091505092915050565b60006120608383611fea565b905092915050565b6000602082019050919050565b600061208082611fbe565b61208a8185611fc9565b93508360208202850161209c85611fda565b8060005b858110156120d857848403895281516120b98582612054565b94506120c483612068565b925060208a019950506001810190506120a0565b50829750879550505050505092915050565b600060c08301600083015184820360008601526121078282611ae4565b915050602083015184820360208601526121218282611ae4565b9150506040830151848203604086015261213b8282611b67565b915050606083015184820360608601526121558282611e96565b9150506080830151848203608086015261216f8282612075565b91505060a083015161218460a0860182611b58565b508091505092915050565b600061219b83836120ea565b905092915050565b6000602082019050919050565b60006121bb82611f92565b6121c58185611f9d565b9350836020820285016121d785611fae565b8060005b8581101561221357848403895281516121f4858261218f565b94506121ff836121a3565b925060208a019950506001810190506121db565b50829750879550505050505092915050565b600060e08301600083015184820360008601526122428282611ae4565b9150506020830151848203602086015261225c8282611ae4565b915050604083015184820360408601526122768282611ae4565b9150506060830151848203606086015261229082826120ea565b915050608083015184820360808601526122aa8282611e96565b91505060a083015184820360a08601526122c48282611d75565b91505060c08301516122d960c0860182611b58565b508091505092915050565b60006101608301600083015184820360008601526123028282611ae4565b9150506020830151848203602086015261231c8282611ae4565b915050604083015184820360408601526123368282611e96565b915050606083015184820360608601526123508282611b67565b9150506080830151848203608086015261236a8282611b67565b91505060a083015184820360a08601526123848282611f3b565b91505060c083015184820360c086015261239e8282611ae4565b91505060e083015184820360e08601526123b882826121b0565b9150506101008301518482036101008601526123d482826120ea565b9150506101208301518482036101208601526123f08282612225565b915050610140830151612407610140860182611b58565b508091505092915050565b600060029050919050565b600081905092915050565b6000819050919050565b600061243e8383611ae4565b905092915050565b6000602082019050919050565b600061245e82612412565b612468818561241d565b93508360208202850161247a85612428565b8060005b858110156124b657848403895281516124978582612432565b94506124a283612446565b925060208a0199505060018101905061247e565b50829750879550505050505092915050565b600060808301600083015184820360008601526124e582826122e4565b915050602083015184820360208601526124ff8282611ae4565b915050604083015184820360408601526125198282612453565b915050606083015184820360608601526125338282611ae4565b9150508091505092915050565b6000602082019050818103600083015261255a81846124c8565b905092915050565b600060e083016000830151848203600086015261257f8282611ae4565b915050602083015184820360208601526125998282611ae4565b915050604083015184820360408601526125b38282611ae4565b915050606083015184820360608601526125cd82826120ea565b915050608083015184820360808601526125e78282611e96565b91505060a083015184820360a08601526126018282611d75565b91505060c083015161261660c0860182611b58565b508091505092915050565b6000602082019050818103600083015261263b8184612562565b90509291505056fea2646970667358221220c39c105416d71baf74f82023098216148cd504cd9270343885ba480ce9cf4bf864736f6c63430008110033",
  "immutableReferences": {},
  "source": "// SPDX-License-Identifier: MIT\npragma solidity >=0.4.22 <0.9.0;pragma abicoder v2;\n\n\n\ncontract case3 {\n\n\tconstructor() {}\n\t\n\t\n\tevent ContractResponse(CoverageEligibilityResponse evt);\n\tevent OracleRequest(RequestData request);\n\t\n\t\n\tstruct CoverageEligibilityRequest {\n\t\tstring id;\n\t\tstring hasType;\n\t\tPatient patient;\n\t\tCondition pmOsteo;\n\t\tCondition osteoBoneFracture;\n\t\tPractitioner provider;\n\t\tstring purpose;\n\t\tMedicationRequest[] item;\n\t\tMedicationRequest osteoDrugItem;\n\t\tCoverageEligibilityResponse response;\n\t\tbool exists;\n\t}\n\t\n\tstruct Patient {\n\t\tstring id;\n\t\tstring hasType;\n\t\tCondition[] subjectOf;\n\t\tstring gender;\n\t\tCoverage[] policyHolderOf;\n\t\tbool exists;\n\t}\n\t\n\tstruct Condition {\n\t\tstring id;\n\t\tstring clinicalStatus;\n\t\tstring hasType;\n\t\tint code;\n\t\tstring verificationStatus;\n\t\tbool exists;\n\t}\n\t\n\tstruct Practitioner {\n\t\tstring id;\n\t\tstring hasType;\n\t\tbool exists;\n\t}\n\t\n\tstruct MedicationRequest {\n\t\tstring id;\n\t\tstring hasType;\n\t\tCondition reason;\n\t\tPatient subject;\n\t\tMedication[] medication;\n\t\tbool exists;\n\t}\n\t\n\tstruct Medication {\n\t\tstring id;\n\t\tstring hasType;\n\t\tint concept;\n\t\tbool exists;\n\t}\n\t\n\tstruct Coverage {\n\t\tstring id;\n\t\tstring hasType;\n\t\tInsurer insurer;\n\t\tClass class;\n\t\tbool exists;\n\t}\n\t\n\tstruct Insurer {\n\t\tstring id;\n\t\tstring hasType;\n\t\tbool exists;\n\t}\n\t\n\tstruct Class {\n\t\tstring id;\n\t\tstring hasType;\n\t\tbool exists;\n\t}\n\t\n\tstruct CoverageEligibilityResponse {\n\t\tstring id;\n\t\tstring hasType;\n\t\tstring outcome;\n\t\tMedicationRequest request;\n\t\tPatient patient;\n\t\tCoverage covered;\n\t\tbool exists;\n\t}\n\t\n\tstruct RequestData {\n\t\tCoverageEligibilityRequest req;\n\t\tstring resource;\n\t\tstring[2] parameters;\n\t\tstring callback;\n\t}\n\t\n\t\n\tfunction check0(CoverageEligibilityRequest memory req, Medication[] memory medications) private pure returns (bool) {\n\t\tfor (uint i = 0; i < medications.length; i++) {\n\t\t\tMedication memory v3 = medications[i];\n\t\t\tif (v3.concept == 398823001) {\n\t\t\t\n\t\t\t\treturn true;\n\t\t\t}\n\t\t}\n\t\treturn false;\n\t}\n\t\n\tfunction process(CoverageEligibilityRequest memory req) public {\n\t\tif (req.patient.exists\n\t\t\t&& req.patient.subjectOf.length > 0) {\n\t\t\n\t\t\tfor (uint i = 0; i < req.patient.subjectOf.length; i++) {\n\t\t\t\tCondition memory v0 = req.patient.subjectOf[i];\n\t\t\t\tif (v0.code == 102447009\n\t\t\t\t\t&& keccak256(abi.encodePacked(v0.clinicalStatus)) == keccak256(\"active\")) {\n\t\t\t\t\n\t\t\t\t\treq.pmOsteo = v0;\n\t\t\t\t}\n\t\t\t}\n\t\t}\n\t\t\n\t\tif (req.patient.exists\n\t\t\t&& req.patient.subjectOf.length > 0) {\n\t\t\n\t\t\tfor (uint i = 0; i < req.patient.subjectOf.length; i++) {\n\t\t\t\tCondition memory v1 = req.patient.subjectOf[i];\n\t\t\t\tif (v1.code == 443165006\n\t\t\t\t\t&& keccak256(abi.encodePacked(v1.verificationStatus)) == keccak256(\"confirmed\")\n\t\t\t\t\t&& keccak256(abi.encodePacked(v1.clinicalStatus)) == keccak256(\"active\")) {\n\t\t\t\t\n\t\t\t\t\treq.osteoBoneFracture = v1;\n\t\t\t\t}\n\t\t\t}\n\t\t}\n\t\t\n\t\tif (req.item.length > 0\n\t\t\t&& req.osteoBoneFracture.exists\n\t\t\t&& req.pmOsteo.exists\n\t\t\t&& keccak256(abi.encodePacked(req.purpose)) == keccak256(\"validation\")\n\t\t\t&& req.provider.exists\n\t\t\t&& req.patient.exists) {\n\t\t\n\t\t\tfor (uint i = 0; i < req.item.length; i++) {\n\t\t\t\tMedicationRequest memory v2 = req.item[i];\n\t\t\t\tif (v2.medication.length > 0\n\t\t\t\t\t&& check0(req, v2.medication)\n\t\t\t\t\t&& v2.subject.exists\n\t\t\t\t\t&& keccak256(abi.encodePacked(v2.subject.gender)) == keccak256(\"female\")\n\t\t\t\t\t&& v2.reason.exists\n\t\t\t\t\t&& keccak256(abi.encodePacked(req.pmOsteo.id)) == keccak256(abi.encodePacked(v2.reason.id))\n\t\t\t\t\t&& keccak256(abi.encodePacked(req.patient.id)) == keccak256(abi.encodePacked(v2.subject.id))) {\n\t\t\t\t\n\t\t\t\t\treq.osteoDrugItem = v2;\n\t\t\t\t}\n\t\t\t}\n\t\t}\n\t\t\n\t\tif (req.patient.exists\n\t\t\t&& req.osteoDrugItem.exists) {\n\t\t\n\t\t\temit OracleRequest(RequestData({ req: req, resource: \"Coverage\", parameters: [ \"policyHolder\", req.patient.id ], callback: \"callback1\" }));\n\t\t}\n\t}\n\t\n\tfunction callback1(CoverageEligibilityRequest memory req, Coverage[] memory results) public {\n\t\tfor (uint i = 0; i < results.length; i++) {\n\t\t\tCoverage memory v4 = results[i];\n\t\t\tif (v4.class.exists\n\t\t\t\t&& (keccak256(abi.encodePacked(v4.class.hasType)) == keccak256(\"PartB\")\n\t\t\t\t|| keccak256(abi.encodePacked(v4.class.hasType)) == keccak256(\"HomeHealthBenefit\"))\n\t\t\t\t&& keccak256(abi.encodePacked(v4.insurer.hasType)) == keccak256(\"Medicare\")) {\n\t\t\t\n\t\t\t\tCoverageEligibilityResponse memory v5 = CoverageEligibilityResponse({ id: \"123\", hasType: \"123\", outcome: \"complete\", request: req.osteoDrugItem, patient: req.patient, covered: v4, exists: true });\n\t\t\t\treq.response = v5;\n\t\t\t\temit ContractResponse(v5);\n\t\t\t}\n\t\t}\n\t}\n\t\n\t\n}",
  "sourcePath": "/Users/wvw/git/n3/blockiot-cds/smart_code_gen/Local Deployment/contract/contracts/case3.sol",
  "compiler": {
    "name": "solc",
    "version": "0.8.17+commit.8df45f5f.Emscripten.clang"
  },
  "schemaVersion": "3.4.16",
  "updatedAt": "2024-02-25T14:34:56.110Z",
  "networkType": "ethereum",
  "devdoc": {
    "kind": "dev",
    "methods": {},
    "version": 1
  },
  "userdoc": {
    "kind": "user",
    "methods": {},
    "version": 1
  }
}