{
  "contractName": "case2",
  "abi": [
    {
      "inputs": [],
      "stateMutability": "nonpayable",
      "type": "constructor"
    },
    {
      "anonymous": false,
      "inputs": [
        {
          "components": [
            {
              "internalType": "string",
              "name": "id",
              "type": "string"
            },
            {
              "internalType": "string",
              "name": "hasType",
              "type": "string"
            },
            {
              "internalType": "string",
              "name": "outcome",
              "type": "string"
            },
            {
              "components": [
                {
                  "internalType": "string",
                  "name": "id",
                  "type": "string"
                },
                {
                  "internalType": "string",
                  "name": "hasType",
                  "type": "string"
                },
                {
                  "components": [
                    {
                      "internalType": "string",
                      "name": "id",
                      "type": "string"
                    },
                    {
                      "internalType": "string",
                      "name": "hasType",
                      "type": "string"
                    },
                    {
                      "internalType": "string",
                      "name": "clinicalStatus",
                      "type": "string"
                    },
                    {
                      "internalType": "int256",
                      "name": "code",
                      "type": "int256"
                    },
                    {
                      "internalType": "bool",
                      "name": "exists",
                      "type": "bool"
                    }
                  ],
                  "internalType": "struct case2.Condition",
                  "name": "reason",
                  "type": "tuple"
                },
                {
                  "components": [
                    {
                      "internalType": "string",
                      "name": "id",
                      "type": "string"
                    },
                    {
                      "internalType": "string",
                      "name": "hasType",
                      "type": "string"
                    },
                    {
                      "components": [
                        {
                          "internalType": "string",
                          "name": "id",
                          "type": "string"
                        },
                        {
                          "internalType": "string",
                          "name": "hasType",
                          "type": "string"
                        },
                        {
                          "internalType": "string",
                          "name": "clinicalStatus",
                          "type": "string"
                        },
                        {
                          "internalType": "int256",
                          "name": "code",
                          "type": "int256"
                        },
                        {
                          "internalType": "bool",
                          "name": "exists",
                          "type": "bool"
                        }
                      ],
                      "internalType": "struct case2.Condition[]",
                      "name": "subjectOf",
                      "type": "tuple[]"
                    },
                    {
                      "components": [
                        {
                          "internalType": "string",
                          "name": "id",
                          "type": "string"
                        },
                        {
                          "internalType": "string",
                          "name": "hasType",
                          "type": "string"
                        },
                        {
                          "components": [
                            {
                              "internalType": "string",
                              "name": "id",
                              "type": "string"
                            },
                            {
                              "internalType": "string",
                              "name": "hasType",
                              "type": "string"
                            },
                            {
                              "internalType": "bool",
                              "name": "exists",
                              "type": "bool"
                            }
                          ],
                          "internalType": "struct case2.Insurer",
                          "name": "insurer",
                          "type": "tuple"
                        },
                        {
                          "components": [
                            {
                              "internalType": "string",
                              "name": "id",
                              "type": "string"
                            },
                            {
                              "internalType": "string",
                              "name": "hasType",
                              "type": "string"
                            },
                            {
                              "internalType": "bool",
                              "name": "exists",
                              "type": "bool"
                            }
                          ],
                          "internalType": "struct case2.Class",
                          "name": "class",
                          "type": "tuple"
                        },
                        {
                          "internalType": "bool",
                          "name": "exists",
                          "type": "bool"
                        }
                      ],
                      "internalType": "struct case2.Coverage[]",
                      "name": "policyHolderOf",
                      "type": "tuple[]"
                    },
                    {
                      "internalType": "bool",
                      "name": "exists",
                      "type": "bool"
                    }
                  ],
                  "internalType": "struct case2.Patient",
                  "name": "subject",
                  "type": "tuple"
                },
                {
                  "components": [
                    {
                      "internalType": "string",
                      "name": "id",
                      "type": "string"
                    },
                    {
                      "internalType": "string",
                      "name": "hasType",
                      "type": "string"
                    },
                    {
                      "internalType": "int256",
                      "name": "concept",
                      "type": "int256"
                    },
                    {
                      "internalType": "bool",
                      "name": "exists",
                      "type": "bool"
                    }
                  ],
                  "internalType": "struct case2.Medication[]",
                  "name": "medication",
                  "type": "tuple[]"
                },
                {
                  "components": [
                    {
                      "internalType": "string",
                      "name": "id",
                      "type": "string"
                    },
                    {
                      "internalType": "string",
                      "name": "hasType",
                      "type": "string"
                    },
                    {
                      "internalType": "int256",
                      "name": "route",
                      "type": "int256"
                    },
                    {
                      "components": [
                        {
                          "internalType": "string",
                          "name": "id",
                          "type": "string"
                        },
                        {
                          "internalType": "string",
                          "name": "hasType",
                          "type": "string"
                        },
                        {
                          "internalType": "bool",
                          "name": "exists",
                          "type": "bool"
                        }
                      ],
                      "internalType": "struct case2.Practitioner[]",
                      "name": "requester",
                      "type": "tuple[]"
                    },
                    {
                      "components": [
                        {
                          "internalType": "string",
                          "name": "id",
                          "type": "string"
                        },
                        {
                          "internalType": "string",
                          "name": "hasType",
                          "type": "string"
                        },
                        {
                          "components": [
                            {
                              "internalType": "string",
                              "name": "id",
                              "type": "string"
                            },
                            {
                              "internalType": "string",
                              "name": "hasType",
                              "type": "string"
                            },
                            {
                              "internalType": "string",
                              "name": "clinicalStatus",
                              "type": "string"
                            },
                            {
                              "internalType": "int256",
                              "name": "code",
                              "type": "int256"
                            },
                            {
                              "internalType": "bool",
                              "name": "exists",
                              "type": "bool"
                            }
                          ],
                          "internalType": "struct case2.Condition[]",
                          "name": "subjectOf",
                          "type": "tuple[]"
                        },
                        {
                          "components": [
                            {
                              "internalType": "string",
                              "name": "id",
                              "type": "string"
                            },
                            {
                              "internalType": "string",
                              "name": "hasType",
                              "type": "string"
                            },
                            {
                              "components": [
                                {
                                  "internalType": "string",
                                  "name": "id",
                                  "type": "string"
                                },
                                {
                                  "internalType": "string",
                                  "name": "hasType",
                                  "type": "string"
                                },
                                {
                                  "internalType": "bool",
                                  "name": "exists",
                                  "type": "bool"
                                }
                              ],
                              "internalType": "struct case2.Insurer",
                              "name": "insurer",
                              "type": "tuple"
                            },
                            {
                              "components": [
                                {
                                  "internalType": "string",
                                  "name": "id",
                                  "type": "string"
                                },
                                {
                                  "internalType": "string",
                                  "name": "hasType",
                                  "type": "string"
                                },
                                {
                                  "internalType": "bool",
                                  "name": "exists",
                                  "type": "bool"
                                }
                              ],
                              "internalType": "struct case2.Class",
                              "name": "class",
                              "type": "tuple"
                            },
                            {
                              "internalType": "bool",
                              "name": "exists",
                              "type": "bool"
                            }
                          ],
                          "internalType": "struct case2.Coverage[]",
                          "name": "policyHolderOf",
                          "type": "tuple[]"
                        },
                        {
                          "internalType": "bool",
                          "name": "exists",
                          "type": "bool"
                        }
                      ],
                      "internalType": "struct case2.Patient[]",
                      "name": "performer",
                      "type": "tuple[]"
                    },
                    {
                      "internalType": "int256",
                      "name": "method",
                      "type": "int256"
                    },
                    {
                      "internalType": "bool",
                      "name": "exists",
                      "type": "bool"
                    }
                  ],
                  "internalType": "struct case2.Dosage[]",
                  "name": "dosageInstruction",
                  "type": "tuple[]"
                },
                {
                  "internalType": "bool",
                  "name": "exists",
                  "type": "bool"
                }
              ],
              "internalType": "struct case2.MedicationRequest",
              "name": "request",
              "type": "tuple"
            },
            {
              "components": [
                {
                  "internalType": "string",
                  "name": "id",
                  "type": "string"
                },
                {
                  "internalType": "string",
                  "name": "hasType",
                  "type": "string"
                },
                {
                  "components": [
                    {
                      "internalType": "string",
                      "name": "id",
                      "type": "string"
                    },
                    {
                      "internalType": "string",
                      "name": "hasType",
                      "type": "string"
                    },
                    {
                      "internalType": "string",
                      "name": "clinicalStatus",
                      "type": "string"
                    },
                    {
                      "internalType": "int256",
                      "name": "code",
                      "type": "int256"
                    },
                    {
                      "internalType": "bool",
                      "name": "exists",
                      "type": "bool"
                    }
                  ],
                  "internalType": "struct case2.Condition[]",
                  "name": "subjectOf",
                  "type": "tuple[]"
                },
                {
                  "components": [
                    {
                      "internalType": "string",
                      "name": "id",
                      "type": "string"
                    },
                    {
                      "internalType": "string",
                      "name": "hasType",
                      "type": "string"
                    },
                    {
                      "components": [
                        {
                          "internalType": "string",
                          "name": "id",
                          "type": "string"
                        },
                        {
                          "internalType": "string",
                          "name": "hasType",
                          "type": "string"
                        },
                        {
                          "internalType": "bool",
                          "name": "exists",
                          "type": "bool"
                        }
                      ],
                      "internalType": "struct case2.Insurer",
                      "name": "insurer",
                      "type": "tuple"
                    },
                    {
                      "components": [
                        {
                          "internalType": "string",
                          "name": "id",
                          "type": "string"
                        },
                        {
                          "internalType": "string",
                          "name": "hasType",
                          "type": "string"
                        },
                        {
                          "internalType": "bool",
                          "name": "exists",
                          "type": "bool"
                        }
                      ],
                      "internalType": "struct case2.Class",
                      "name": "class",
                      "type": "tuple"
                    },
                    {
                      "internalType": "bool",
                      "name": "exists",
                      "type": "bool"
                    }
                  ],
                  "internalType": "struct case2.Coverage[]",
                  "name": "policyHolderOf",
                  "type": "tuple[]"
                },
                {
                  "internalType": "bool",
                  "name": "exists",
                  "type": "bool"
                }
              ],
              "internalType": "struct case2.Patient",
              "name": "patient",
              "type": "tuple"
            },
            {
              "components": [
                {
                  "internalType": "string",
                  "name": "id",
                  "type": "string"
                },
                {
                  "internalType": "string",
                  "name": "hasType",
                  "type": "string"
                },
                {
                  "components": [
                    {
                      "internalType": "string",
                      "name": "id",
                      "type": "string"
                    },
                    {
                      "internalType": "string",
                      "name": "hasType",
                      "type": "string"
                    },
                    {
                      "internalType": "bool",
                      "name": "exists",
                      "type": "bool"
                    }
                  ],
                  "internalType": "struct case2.Insurer",
                  "name": "insurer",
                  "type": "tuple"
                },
                {
                  "components": [
                    {
                      "internalType": "string",
                      "name": "id",
                      "type": "string"
                    },
                    {
                      "internalType": "string",
                      "name": "hasType",
                      "type": "string"
                    },
                    {
                      "internalType": "bool",
                      "name": "exists",
                      "type": "bool"
                    }
                  ],
                  "internalType": "struct case2.Class",
                  "name": "class",
                  "type": "tuple"
                },
                {
                  "internalType": "bool",
                  "name": "exists",
                  "type": "bool"
                }
              ],
              "internalType": "struct case2.Coverage",
              "name": "covered",
              "type": "tuple"
            },
            {
              "internalType": "bool",
              "name": "exists",
              "type": "bool"
            }
          ],
          "indexed": false,
          "internalType": "struct case2.CoverageEligibilityResponse",
          "name": "evt",
          "type": "tuple"
        }
      ],
      "name": "ContractResponse",
      "type": "event"
    },
    {
      "anonymous": false,
      "inputs": [
        {
          "components": [
            {
              "components": [
                {
                  "internalType": "string",
                  "name": "id",
                  "type": "string"
                },
                {
                  "internalType": "string",
                  "name": "status",
                  "type": "string"
                },
                {
                  "internalType": "string",
                  "name": "hasType",
                  "type": "string"
                },
                {
                  "components": [
                    {
                      "internalType": "string",
                      "name": "id",
                      "type": "string"
                    },
                    {
                      "internalType": "string",
                      "name": "hasType",
                      "type": "string"
                    },
                    {
                      "components": [
                        {
                          "internalType": "string",
                          "name": "id",
                          "type": "string"
                        },
                        {
                          "internalType": "string",
                          "name": "hasType",
                          "type": "string"
                        },
                        {
                          "internalType": "string",
                          "name": "clinicalStatus",
                          "type": "string"
                        },
                        {
                          "internalType": "int256",
                          "name": "code",
                          "type": "int256"
                        },
                        {
                          "internalType": "bool",
                          "name": "exists",
                          "type": "bool"
                        }
                      ],
                      "internalType": "struct case2.Condition[]",
                      "name": "subjectOf",
                      "type": "tuple[]"
                    },
                    {
                      "components": [
                        {
                          "internalType": "string",
                          "name": "id",
                          "type": "string"
                        },
                        {
                          "internalType": "string",
                          "name": "hasType",
                          "type": "string"
                        },
                        {
                          "components": [
                            {
                              "internalType": "string",
                              "name": "id",
                              "type": "string"
                            },
                            {
                              "internalType": "string",
                              "name": "hasType",
                              "type": "string"
                            },
                            {
                              "internalType": "bool",
                              "name": "exists",
                              "type": "bool"
                            }
                          ],
                          "internalType": "struct case2.Insurer",
                          "name": "insurer",
                          "type": "tuple"
                        },
                        {
                          "components": [
                            {
                              "internalType": "string",
                              "name": "id",
                              "type": "string"
                            },
                            {
                              "internalType": "string",
                              "name": "hasType",
                              "type": "string"
                            },
                            {
                              "internalType": "bool",
                              "name": "exists",
                              "type": "bool"
                            }
                          ],
                          "internalType": "struct case2.Class",
                          "name": "class",
                          "type": "tuple"
                        },
                        {
                          "internalType": "bool",
                          "name": "exists",
                          "type": "bool"
                        }
                      ],
                      "internalType": "struct case2.Coverage[]",
                      "name": "policyHolderOf",
                      "type": "tuple[]"
                    },
                    {
                      "internalType": "bool",
                      "name": "exists",
                      "type": "bool"
                    }
                  ],
                  "internalType": "struct case2.Patient",
                  "name": "patient",
                  "type": "tuple"
                },
                {
                  "internalType": "string",
                  "name": "purpose",
                  "type": "string"
                },
                {
                  "components": [
                    {
                      "internalType": "string",
                      "name": "id",
                      "type": "string"
                    },
                    {
                      "internalType": "string",
                      "name": "hasType",
                      "type": "string"
                    },
                    {
                      "internalType": "string",
                      "name": "clinicalStatus",
                      "type": "string"
                    },
                    {
                      "internalType": "int256",
                      "name": "code",
                      "type": "int256"
                    },
                    {
                      "internalType": "bool",
                      "name": "exists",
                      "type": "bool"
                    }
                  ],
                  "internalType": "struct case2.Condition",
                  "name": "immuneDeficiencyDisease",
                  "type": "tuple"
                },
                {
                  "components": [
                    {
                      "internalType": "string",
                      "name": "id",
                      "type": "string"
                    },
                    {
                      "internalType": "string",
                      "name": "hasType",
                      "type": "string"
                    },
                    {
                      "internalType": "bool",
                      "name": "exists",
                      "type": "bool"
                    }
                  ],
                  "internalType": "struct case2.Practitioner",
                  "name": "provider",
                  "type": "tuple"
                },
                {
                  "components": [
                    {
                      "internalType": "string",
                      "name": "id",
                      "type": "string"
                    },
                    {
                      "internalType": "string",
                      "name": "hasType",
                      "type": "string"
                    },
                    {
                      "components": [
                        {
                          "internalType": "string",
                          "name": "id",
                          "type": "string"
                        },
                        {
                          "internalType": "string",
                          "name": "hasType",
                          "type": "string"
                        },
                        {
                          "internalType": "string",
                          "name": "clinicalStatus",
                          "type": "string"
                        },
                        {
                          "internalType": "int256",
                          "name": "code",
                          "type": "int256"
                        },
                        {
                          "internalType": "bool",
                          "name": "exists",
                          "type": "bool"
                        }
                      ],
                      "internalType": "struct case2.Condition",
                      "name": "reason",
                      "type": "tuple"
                    },
                    {
                      "components": [
                        {
                          "internalType": "string",
                          "name": "id",
                          "type": "string"
                        },
                        {
                          "internalType": "string",
                          "name": "hasType",
                          "type": "string"
                        },
                        {
                          "components": [
                            {
                              "internalType": "string",
                              "name": "id",
                              "type": "string"
                            },
                            {
                              "internalType": "string",
                              "name": "hasType",
                              "type": "string"
                            },
                            {
                              "internalType": "string",
                              "name": "clinicalStatus",
                              "type": "string"
                            },
                            {
                              "internalType": "int256",
                              "name": "code",
                              "type": "int256"
                            },
                            {
                              "internalType": "bool",
                              "name": "exists",
                              "type": "bool"
                            }
                          ],
                          "internalType": "struct case2.Condition[]",
                          "name": "subjectOf",
                          "type": "tuple[]"
                        },
                        {
                          "components": [
                            {
                              "internalType": "string",
                              "name": "id",
                              "type": "string"
                            },
                            {
                              "internalType": "string",
                              "name": "hasType",
                              "type": "string"
                            },
                            {
                              "components": [
                                {
                                  "internalType": "string",
                                  "name": "id",
                                  "type": "string"
                                },
                                {
                                  "internalType": "string",
                                  "name": "hasType",
                                  "type": "string"
                                },
                                {
                                  "internalType": "bool",
                                  "name": "exists",
                                  "type": "bool"
                                }
                              ],
                              "internalType": "struct case2.Insurer",
                              "name": "insurer",
                              "type": "tuple"
                            },
                            {
                              "components": [
                                {
                                  "internalType": "string",
                                  "name": "id",
                                  "type": "string"
                                },
                                {
                                  "internalType": "string",
                                  "name": "hasType",
                                  "type": "string"
                                },
                                {
                                  "internalType": "bool",
                                  "name": "exists",
                                  "type": "bool"
                                }
                              ],
                              "internalType": "struct case2.Class",
                              "name": "class",
                              "type": "tuple"
                            },
                            {
                              "internalType": "bool",
                              "name": "exists",
                              "type": "bool"
                            }
                          ],
                          "internalType": "struct case2.Coverage[]",
                          "name": "policyHolderOf",
                          "type": "tuple[]"
                        },
                        {
                          "internalType": "bool",
                          "name": "exists",
                          "type": "bool"
                        }
                      ],
                      "internalType": "struct case2.Patient",
                      "name": "subject",
                      "type": "tuple"
                    },
                    {
                      "components": [
                        {
                          "internalType": "string",
                          "name": "id",
                          "type": "string"
                        },
                        {
                          "internalType": "string",
                          "name": "hasType",
                          "type": "string"
                        },
                        {
                          "internalType": "int256",
                          "name": "concept",
                          "type": "int256"
                        },
                        {
                          "internalType": "bool",
                          "name": "exists",
                          "type": "bool"
                        }
                      ],
                      "internalType": "struct case2.Medication[]",
                      "name": "medication",
                      "type": "tuple[]"
                    },
                    {
                      "components": [
                        {
                          "internalType": "string",
                          "name": "id",
                          "type": "string"
                        },
                        {
                          "internalType": "string",
                          "name": "hasType",
                          "type": "string"
                        },
                        {
                          "internalType": "int256",
                          "name": "route",
                          "type": "int256"
                        },
                        {
                          "components": [
                            {
                              "internalType": "string",
                              "name": "id",
                              "type": "string"
                            },
                            {
                              "internalType": "string",
                              "name": "hasType",
                              "type": "string"
                            },
                            {
                              "internalType": "bool",
                              "name": "exists",
                              "type": "bool"
                            }
                          ],
                          "internalType": "struct case2.Practitioner[]",
                          "name": "requester",
                          "type": "tuple[]"
                        },
                        {
                          "components": [
                            {
                              "internalType": "string",
                              "name": "id",
                              "type": "string"
                            },
                            {
                              "internalType": "string",
                              "name": "hasType",
                              "type": "string"
                            },
                            {
                              "components": [
                                {
                                  "internalType": "string",
                                  "name": "id",
                                  "type": "string"
                                },
                                {
                                  "internalType": "string",
                                  "name": "hasType",
                                  "type": "string"
                                },
                                {
                                  "internalType": "string",
                                  "name": "clinicalStatus",
                                  "type": "string"
                                },
                                {
                                  "internalType": "int256",
                                  "name": "code",
                                  "type": "int256"
                                },
                                {
                                  "internalType": "bool",
                                  "name": "exists",
                                  "type": "bool"
                                }
                              ],
                              "internalType": "struct case2.Condition[]",
                              "name": "subjectOf",
                              "type": "tuple[]"
                            },
                            {
                              "components": [
                                {
                                  "internalType": "string",
                                  "name": "id",
                                  "type": "string"
                                },
                                {
                                  "internalType": "string",
                                  "name": "hasType",
                                  "type": "string"
                                },
                                {
                                  "components": [
                                    {
                                      "internalType": "string",
                                      "name": "id",
                                      "type": "string"
                                    },
                                    {
                                      "internalType": "string",
                                      "name": "hasType",
                                      "type": "string"
                                    },
                                    {
                                      "internalType": "bool",
                                      "name": "exists",
                                      "type": "bool"
                                    }
                                  ],
                                  "internalType": "struct case2.Insurer",
                                  "name": "insurer",
                                  "type": "tuple"
                                },
                                {
                                  "components": [
                                    {
                                      "internalType": "string",
                                      "name": "id",
                                      "type": "string"
                                    },
                                    {
                                      "internalType": "string",
                                      "name": "hasType",
                                      "type": "string"
                                    },
                                    {
                                      "internalType": "bool",
                                      "name": "exists",
                                      "type": "bool"
                                    }
                                  ],
                                  "internalType": "struct case2.Class",
                                  "name": "class",
                                  "type": "tuple"
                                },
                                {
                                  "internalType": "bool",
                                  "name": "exists",
                                  "type": "bool"
                                }
                              ],
                              "internalType": "struct case2.Coverage[]",
                              "name": "policyHolderOf",
                              "type": "tuple[]"
                            },
                            {
                              "internalType": "bool",
                              "name": "exists",
                              "type": "bool"
                            }
                          ],
                          "internalType": "struct case2.Patient[]",
                          "name": "performer",
                          "type": "tuple[]"
                        },
                        {
                          "internalType": "int256",
                          "name": "method",
                          "type": "int256"
                        },
                        {
                          "internalType": "bool",
                          "name": "exists",
                          "type": "bool"
                        }
                      ],
                      "internalType": "struct case2.Dosage[]",
                      "name": "dosageInstruction",
                      "type": "tuple[]"
                    },
                    {
                      "internalType": "bool",
                      "name": "exists",
                      "type": "bool"
                    }
                  ],
                  "internalType": "struct case2.MedicationRequest[]",
                  "name": "item",
                  "type": "tuple[]"
                },
                {
                  "components": [
                    {
                      "internalType": "string",
                      "name": "id",
                      "type": "string"
                    },
                    {
                      "internalType": "string",
                      "name": "hasType",
                      "type": "string"
                    },
                    {
                      "components": [
                        {
                          "internalType": "string",
                          "name": "id",
                          "type": "string"
                        },
                        {
                          "internalType": "string",
                          "name": "hasType",
                          "type": "string"
                        },
                        {
                          "internalType": "string",
                          "name": "clinicalStatus",
                          "type": "string"
                        },
                        {
                          "internalType": "int256",
                          "name": "code",
                          "type": "int256"
                        },
                        {
                          "internalType": "bool",
                          "name": "exists",
                          "type": "bool"
                        }
                      ],
                      "internalType": "struct case2.Condition",
                      "name": "reason",
                      "type": "tuple"
                    },
                    {
                      "components": [
                        {
                          "internalType": "string",
                          "name": "id",
                          "type": "string"
                        },
                        {
                          "internalType": "string",
                          "name": "hasType",
                          "type": "string"
                        },
                        {
                          "components": [
                            {
                              "internalType": "string",
                              "name": "id",
                              "type": "string"
                            },
                            {
                              "internalType": "string",
                              "name": "hasType",
                              "type": "string"
                            },
                            {
                              "internalType": "string",
                              "name": "clinicalStatus",
                              "type": "string"
                            },
                            {
                              "internalType": "int256",
                              "name": "code",
                              "type": "int256"
                            },
                            {
                              "internalType": "bool",
                              "name": "exists",
                              "type": "bool"
                            }
                          ],
                          "internalType": "struct case2.Condition[]",
                          "name": "subjectOf",
                          "type": "tuple[]"
                        },
                        {
                          "components": [
                            {
                              "internalType": "string",
                              "name": "id",
                              "type": "string"
                            },
                            {
                              "internalType": "string",
                              "name": "hasType",
                              "type": "string"
                            },
                            {
                              "components": [
                                {
                                  "internalType": "string",
                                  "name": "id",
                                  "type": "string"
                                },
                                {
                                  "internalType": "string",
                                  "name": "hasType",
                                  "type": "string"
                                },
                                {
                                  "internalType": "bool",
                                  "name": "exists",
                                  "type": "bool"
                                }
                              ],
                              "internalType": "struct case2.Insurer",
                              "name": "insurer",
                              "type": "tuple"
                            },
                            {
                              "components": [
                                {
                                  "internalType": "string",
                                  "name": "id",
                                  "type": "string"
                                },
                                {
                                  "internalType": "string",
                                  "name": "hasType",
                                  "type": "string"
                                },
                                {
                                  "internalType": "bool",
                                  "name": "exists",
                                  "type": "bool"
                                }
                              ],
                              "internalType": "struct case2.Class",
                              "name": "class",
                              "type": "tuple"
                            },
                            {
                              "internalType": "bool",
                              "name": "exists",
                              "type": "bool"
                            }
                          ],
                          "internalType": "struct case2.Coverage[]",
                          "name": "policyHolderOf",
                          "type": "tuple[]"
                        },
                        {
                          "internalType": "bool",
                          "name": "exists",
                          "type": "bool"
                        }
                      ],
                      "internalType": "struct case2.Patient",
                      "name": "subject",
                      "type": "tuple"
                    },
                    {
                      "components": [
                        {
                          "internalType": "string",
                          "name": "id",
                          "type": "string"
                        },
                        {
                          "internalType": "string",
                          "name": "hasType",
                          "type": "string"
                        },
                        {
                          "internalType": "int256",
                          "name": "concept",
                          "type": "int256"
                        },
                        {
                          "internalType": "bool",
                          "name": "exists",
                          "type": "bool"
                        }
                      ],
                      "internalType": "struct case2.Medication[]",
                      "name": "medication",
                      "type": "tuple[]"
                    },
                    {
                      "components": [
                        {
                          "internalType": "string",
                          "name": "id",
                          "type": "string"
                        },
                        {
                          "internalType": "string",
                          "name": "hasType",
                          "type": "string"
                        },
                        {
                          "internalType": "int256",
                          "name": "route",
                          "type": "int256"
                        },
                        {
                          "components": [
                            {
                              "internalType": "string",
                              "name": "id",
                              "type": "string"
                            },
                            {
                              "internalType": "string",
                              "name": "hasType",
                              "type": "string"
                            },
                            {
                              "internalType": "bool",
                              "name": "exists",
                              "type": "bool"
                            }
                          ],
                          "internalType": "struct case2.Practitioner[]",
                          "name": "requester",
                          "type": "tuple[]"
                        },
                        {
                          "components": [
                            {
                              "internalType": "string",
                              "name": "id",
                              "type": "string"
                            },
                            {
                              "internalType": "string",
                              "name": "hasType",
                              "type": "string"
                            },
                            {
                              "components": [
                                {
                                  "internalType": "string",
                                  "name": "id",
                                  "type": "string"
                                },
                                {
                                  "internalType": "string",
                                  "name": "hasType",
                                  "type": "string"
                                },
                                {
                                  "internalType": "string",
                                  "name": "clinicalStatus",
                                  "type": "string"
                                },
                                {
                                  "internalType": "int256",
                                  "name": "code",
                                  "type": "int256"
                                },
                                {
                                  "internalType": "bool",
                                  "name": "exists",
                                  "type": "bool"
                                }
                              ],
                              "internalType": "struct case2.Condition[]",
                              "name": "subjectOf",
                              "type": "tuple[]"
                            },
                            {
                              "components": [
                                {
                                  "internalType": "string",
                                  "name": "id",
                                  "type": "string"
                                },
                                {
                                  "internalType": "string",
                                  "name": "hasType",
                                  "type": "string"
                                },
                                {
                                  "components": [
                                    {
                                      "internalType": "string",
                                      "name": "id",
                                      "type": "string"
                                    },
                                    {
                                      "internalType": "string",
                                      "name": "hasType",
                                      "type": "string"
                                    },
                                    {
                                      "internalType": "bool",
                                      "name": "exists",
                                      "type": "bool"
                                    }
                                  ],
                                  "internalType": "struct case2.Insurer",
                                  "name": "insurer",
                                  "type": "tuple"
                                },
                                {
                                  "components": [
                                    {
                                      "internalType": "string",
                                      "name": "id",
                                      "type": "string"
                                    },
                                    {
                                      "internalType": "string",
                                      "name": "hasType",
                                      "type": "string"
                                    },
                                    {
                                      "internalType": "bool",
                                      "name": "exists",
                                      "type": "bool"
                                    }
                                  ],
                                  "internalType": "struct case2.Class",
                                  "name": "class",
                                  "type": "tuple"
                                },
                                {
                                  "internalType": "bool",
                                  "name": "exists",
                                  "type": "bool"
                                }
                              ],
                              "internalType": "struct case2.Coverage[]",
                              "name": "policyHolderOf",
                              "type": "tuple[]"
                            },
                            {
                              "internalType": "bool",
                              "name": "exists",
                              "type": "bool"
                            }
                          ],
                          "internalType": "struct case2.Patient[]",
                          "name": "performer",
                          "type": "tuple[]"
                        },
                        {
                          "internalType": "int256",
                          "name": "method",
                          "type": "int256"
                        },
                        {
                          "internalType": "bool",
                          "name": "exists",
                          "type": "bool"
                        }
                      ],
                      "internalType": "struct case2.Dosage[]",
                      "name": "dosageInstruction",
                      "type": "tuple[]"
                    },
                    {
                      "internalType": "bool",
                      "name": "exists",
                      "type": "bool"
                    }
                  ],
                  "internalType": "struct case2.MedicationRequest",
                  "name": "ivigDrugItem",
                  "type": "tuple"
                },
                {
                  "components": [
                    {
                      "internalType": "string",
                      "name": "id",
                      "type": "string"
                    },
                    {
                      "internalType": "string",
                      "name": "hasType",
                      "type": "string"
                    },
                    {
                      "internalType": "string",
                      "name": "outcome",
                      "type": "string"
                    },
                    {
                      "components": [
                        {
                          "internalType": "string",
                          "name": "id",
                          "type": "string"
                        },
                        {
                          "internalType": "string",
                          "name": "hasType",
                          "type": "string"
                        },
                        {
                          "components": [
                            {
                              "internalType": "string",
                              "name": "id",
                              "type": "string"
                            },
                            {
                              "internalType": "string",
                              "name": "hasType",
                              "type": "string"
                            },
                            {
                              "internalType": "string",
                              "name": "clinicalStatus",
                              "type": "string"
                            },
                            {
                              "internalType": "int256",
                              "name": "code",
                              "type": "int256"
                            },
                            {
                              "internalType": "bool",
                              "name": "exists",
                              "type": "bool"
                            }
                          ],
                          "internalType": "struct case2.Condition",
                          "name": "reason",
                          "type": "tuple"
                        },
                        {
                          "components": [
                            {
                              "internalType": "string",
                              "name": "id",
                              "type": "string"
                            },
                            {
                              "internalType": "string",
                              "name": "hasType",
                              "type": "string"
                            },
                            {
                              "components": [
                                {
                                  "internalType": "string",
                                  "name": "id",
                                  "type": "string"
                                },
                                {
                                  "internalType": "string",
                                  "name": "hasType",
                                  "type": "string"
                                },
                                {
                                  "internalType": "string",
                                  "name": "clinicalStatus",
                                  "type": "string"
                                },
                                {
                                  "internalType": "int256",
                                  "name": "code",
                                  "type": "int256"
                                },
                                {
                                  "internalType": "bool",
                                  "name": "exists",
                                  "type": "bool"
                                }
                              ],
                              "internalType": "struct case2.Condition[]",
                              "name": "subjectOf",
                              "type": "tuple[]"
                            },
                            {
                              "components": [
                                {
                                  "internalType": "string",
                                  "name": "id",
                                  "type": "string"
                                },
                                {
                                  "internalType": "string",
                                  "name": "hasType",
                                  "type": "string"
                                },
                                {
                                  "components": [
                                    {
                                      "internalType": "string",
                                      "name": "id",
                                      "type": "string"
                                    },
                                    {
                                      "internalType": "string",
                                      "name": "hasType",
                                      "type": "string"
                                    },
                                    {
                                      "internalType": "bool",
                                      "name": "exists",
                                      "type": "bool"
                                    }
                                  ],
                                  "internalType": "struct case2.Insurer",
                                  "name": "insurer",
                                  "type": "tuple"
                                },
                                {
                                  "components": [
                                    {
                                      "internalType": "string",
                                      "name": "id",
                                      "type": "string"
                                    },
                                    {
                                      "internalType": "string",
                                      "name": "hasType",
                                      "type": "string"
                                    },
                                    {
                                      "internalType": "bool",
                                      "name": "exists",
                                      "type": "bool"
                                    }
                                  ],
                                  "internalType": "struct case2.Class",
                                  "name": "class",
                                  "type": "tuple"
                                },
                                {
                                  "internalType": "bool",
                                  "name": "exists",
                                  "type": "bool"
                                }
                              ],
                              "internalType": "struct case2.Coverage[]",
                              "name": "policyHolderOf",
                              "type": "tuple[]"
                            },
                            {
                              "internalType": "bool",
                              "name": "exists",
                              "type": "bool"
                            }
                          ],
                          "internalType": "struct case2.Patient",
                          "name": "subject",
                          "type": "tuple"
                        },
                        {
                          "components": [
                            {
                              "internalType": "string",
                              "name": "id",
                              "type": "string"
                            },
                            {
                              "internalType": "string",
                              "name": "hasType",
                              "type": "string"
                            },
                            {
                              "internalType": "int256",
                              "name": "concept",
                              "type": "int256"
                            },
                            {
                              "internalType": "bool",
                              "name": "exists",
                              "type": "bool"
                            }
                          ],
                          "internalType": "struct case2.Medication[]",
                          "name": "medication",
                          "type": "tuple[]"
                        },
                        {
                          "components": [
                            {
                              "internalType": "string",
                              "name": "id",
                              "type": "string"
                            },
                            {
                              "internalType": "string",
                              "name": "hasType",
                              "type": "string"
                            },
                            {
                              "internalType": "int256",
                              "name": "route",
                              "type": "int256"
                            },
                            {
                              "components": [
                                {
                                  "internalType": "string",
                                  "name": "id",
                                  "type": "string"
                                },
                                {
                                  "internalType": "string",
                                  "name": "hasType",
                                  "type": "string"
                                },
                                {
                                  "internalType": "bool",
                                  "name": "exists",
                                  "type": "bool"
                                }
                              ],
                              "internalType": "struct case2.Practitioner[]",
                              "name": "requester",
                              "type": "tuple[]"
                            },
                            {
                              "components": [
                                {
                                  "internalType": "string",
                                  "name": "id",
                                  "type": "string"
                                },
                                {
                                  "internalType": "string",
                                  "name": "hasType",
                                  "type": "string"
                                },
                                {
                                  "components": [
                                    {
                                      "internalType": "string",
                                      "name": "id",
                                      "type": "string"
                                    },
                                    {
                                      "internalType": "string",
                                      "name": "hasType",
                                      "type": "string"
                                    },
                                    {
                                      "internalType": "string",
                                      "name": "clinicalStatus",
                                      "type": "string"
                                    },
                                    {
                                      "internalType": "int256",
                                      "name": "code",
                                      "type": "int256"
                                    },
                                    {
                                      "internalType": "bool",
                                      "name": "exists",
                                      "type": "bool"
                                    }
                                  ],
                                  "internalType": "struct case2.Condition[]",
                                  "name": "subjectOf",
                                  "type": "tuple[]"
                                },
                                {
                                  "components": [
                                    {
                                      "internalType": "string",
                                      "name": "id",
                                      "type": "string"
                                    },
                                    {
                                      "internalType": "string",
                                      "name": "hasType",
                                      "type": "string"
                                    },
                                    {
                                      "components": [
                                        {
                                          "internalType": "string",
                                          "name": "id",
                                          "type": "string"
                                        },
                                        {
                                          "internalType": "string",
                                          "name": "hasType",
                                          "type": "string"
                                        },
                                        {
                                          "internalType": "bool",
                                          "name": "exists",
                                          "type": "bool"
                                        }
                                      ],
                                      "internalType": "struct case2.Insurer",
                                      "name": "insurer",
                                      "type": "tuple"
                                    },
                                    {
                                      "components": [
                                        {
                                          "internalType": "string",
                                          "name": "id",
                                          "type": "string"
                                        },
                                        {
                                          "internalType": "string",
                                          "name": "hasType",
                                          "type": "string"
                                        },
                                        {
                                          "internalType": "bool",
                                          "name": "exists",
                                          "type": "bool"
                                        }
                                      ],
                                      "internalType": "struct case2.Class",
                                      "name": "class",
                                      "type": "tuple"
                                    },
                                    {
                                      "internalType": "bool",
                                      "name": "exists",
                                      "type": "bool"
                                    }
                                  ],
                                  "internalType": "struct case2.Coverage[]",
                                  "name": "policyHolderOf",
                                  "type": "tuple[]"
                                },
                                {
                                  "internalType": "bool",
                                  "name": "exists",
                                  "type": "bool"
                                }
                              ],
                              "internalType": "struct case2.Patient[]",
                              "name": "performer",
                              "type": "tuple[]"
                            },
                            {
                              "internalType": "int256",
                              "name": "method",
                              "type": "int256"
                            },
                            {
                              "internalType": "bool",
                              "name": "exists",
                              "type": "bool"
                            }
                          ],
                          "internalType": "struct case2.Dosage[]",
                          "name": "dosageInstruction",
                          "type": "tuple[]"
                        },
                        {
                          "internalType": "bool",
                          "name": "exists",
                          "type": "bool"
                        }
                      ],
                      "internalType": "struct case2.MedicationRequest",
                      "name": "request",
                      "type": "tuple"
                    },
                    {
                      "components": [
                        {
                          "internalType": "string",
                          "name": "id",
                          "type": "string"
                        },
                        {
                          "internalType": "string",
                          "name": "hasType",
                          "type": "string"
                        },
                        {
                          "components": [
                            {
                              "internalType": "string",
                              "name": "id",
                              "type": "string"
                            },
                            {
                              "internalType": "string",
                              "name": "hasType",
                              "type": "string"
                            },
                            {
                              "internalType": "string",
                              "name": "clinicalStatus",
                              "type": "string"
                            },
                            {
                              "internalType": "int256",
                              "name": "code",
                              "type": "int256"
                            },
                            {
                              "internalType": "bool",
                              "name": "exists",
                              "type": "bool"
                            }
                          ],
                          "internalType": "struct case2.Condition[]",
                          "name": "subjectOf",
                          "type": "tuple[]"
                        },
                        {
                          "components": [
                            {
                              "internalType": "string",
                              "name": "id",
                              "type": "string"
                            },
                            {
                              "internalType": "string",
                              "name": "hasType",
                              "type": "string"
                            },
                            {
                              "components": [
                                {
                                  "internalType": "string",
                                  "name": "id",
                                  "type": "string"
                                },
                                {
                                  "internalType": "string",
                                  "name": "hasType",
                                  "type": "string"
                                },
                                {
                                  "internalType": "bool",
                                  "name": "exists",
                                  "type": "bool"
                                }
                              ],
                              "internalType": "struct case2.Insurer",
                              "name": "insurer",
                              "type": "tuple"
                            },
                            {
                              "components": [
                                {
                                  "internalType": "string",
                                  "name": "id",
                                  "type": "string"
                                },
                                {
                                  "internalType": "string",
                                  "name": "hasType",
                                  "type": "string"
                                },
                                {
                                  "internalType": "bool",
                                  "name": "exists",
                                  "type": "bool"
                                }
                              ],
                              "internalType": "struct case2.Class",
                              "name": "class",
                              "type": "tuple"
                            },
                            {
                              "internalType": "bool",
                              "name": "exists",
                              "type": "bool"
                            }
                          ],
                          "internalType": "struct case2.Coverage[]",
                          "name": "policyHolderOf",
                          "type": "tuple[]"
                        },
                        {
                          "internalType": "bool",
                          "name": "exists",
                          "type": "bool"
                        }
                      ],
                      "internalType": "struct case2.Patient",
                      "name": "patient",
                      "type": "tuple"
                    },
                    {
                      "components": [
                        {
                          "internalType": "string",
                          "name": "id",
                          "type": "string"
                        },
                        {
                          "internalType": "string",
                          "name": "hasType",
                          "type": "string"
                        },
                        {
                          "components": [
                            {
                              "internalType": "string",
                              "name": "id",
                              "type": "string"
                            },
                            {
                              "internalType": "string",
                              "name": "hasType",
                              "type": "string"
                            },
                            {
                              "internalType": "bool",
                              "name": "exists",
                              "type": "bool"
                            }
                          ],
                          "internalType": "struct case2.Insurer",
                          "name": "insurer",
                          "type": "tuple"
                        },
                        {
                          "components": [
                            {
                              "internalType": "string",
                              "name": "id",
                              "type": "string"
                            },
                            {
                              "internalType": "string",
                              "name": "hasType",
                              "type": "string"
                            },
                            {
                              "internalType": "bool",
                              "name": "exists",
                              "type": "bool"
                            }
                          ],
                          "internalType": "struct case2.Class",
                          "name": "class",
                          "type": "tuple"
                        },
                        {
                          "internalType": "bool",
                          "name": "exists",
                          "type": "bool"
                        }
                      ],
                      "internalType": "struct case2.Coverage",
                      "name": "covered",
                      "type": "tuple"
                    },
                    {
                      "internalType": "bool",
                      "name": "exists",
                      "type": "bool"
                    }
                  ],
                  "internalType": "struct case2.CoverageEligibilityResponse",
                  "name": "response",
                  "type": "tuple"
                },
                {
                  "internalType": "bool",
                  "name": "exists",
                  "type": "bool"
                }
              ],
              "internalType": "struct case2.CoverageEligibilityRequest",
              "name": "req",
              "type": "tuple"
            },
            {
              "internalType": "string",
              "name": "resource",
              "type": "string"
            },
            {
              "internalType": "string[2]",
              "name": "parameters",
              "type": "string[2]"
            },
            {
              "internalType": "string",
              "name": "callback",
              "type": "string"
            }
          ],
          "indexed": false,
          "internalType": "struct case2.RequestData",
          "name": "request",
          "type": "tuple"
        }
      ],
      "name": "OracleRequest",
      "type": "event"
    },
    {
      "inputs": [
        {
          "components": [
            {
              "internalType": "string",
              "name": "id",
              "type": "string"
            },
            {
              "internalType": "string",
              "name": "status",
              "type": "string"
            },
            {
              "internalType": "string",
              "name": "hasType",
              "type": "string"
            },
            {
              "components": [
                {
                  "internalType": "string",
                  "name": "id",
                  "type": "string"
                },
                {
                  "internalType": "string",
                  "name": "hasType",
                  "type": "string"
                },
                {
                  "components": [
                    {
                      "internalType": "string",
                      "name": "id",
                      "type": "string"
                    },
                    {
                      "internalType": "string",
                      "name": "hasType",
                      "type": "string"
                    },
                    {
                      "internalType": "string",
                      "name": "clinicalStatus",
                      "type": "string"
                    },
                    {
                      "internalType": "int256",
                      "name": "code",
                      "type": "int256"
                    },
                    {
                      "internalType": "bool",
                      "name": "exists",
                      "type": "bool"
                    }
                  ],
                  "internalType": "struct case2.Condition[]",
                  "name": "subjectOf",
                  "type": "tuple[]"
                },
                {
                  "components": [
                    {
                      "internalType": "string",
                      "name": "id",
                      "type": "string"
                    },
                    {
                      "internalType": "string",
                      "name": "hasType",
                      "type": "string"
                    },
                    {
                      "components": [
                        {
                          "internalType": "string",
                          "name": "id",
                          "type": "string"
                        },
                        {
                          "internalType": "string",
                          "name": "hasType",
                          "type": "string"
                        },
                        {
                          "internalType": "bool",
                          "name": "exists",
                          "type": "bool"
                        }
                      ],
                      "internalType": "struct case2.Insurer",
                      "name": "insurer",
                      "type": "tuple"
                    },
                    {
                      "components": [
                        {
                          "internalType": "string",
                          "name": "id",
                          "type": "string"
                        },
                        {
                          "internalType": "string",
                          "name": "hasType",
                          "type": "string"
                        },
                        {
                          "internalType": "bool",
                          "name": "exists",
                          "type": "bool"
                        }
                      ],
                      "internalType": "struct case2.Class",
                      "name": "class",
                      "type": "tuple"
                    },
                    {
                      "internalType": "bool",
                      "name": "exists",
                      "type": "bool"
                    }
                  ],
                  "internalType": "struct case2.Coverage[]",
                  "name": "policyHolderOf",
                  "type": "tuple[]"
                },
                {
                  "internalType": "bool",
                  "name": "exists",
                  "type": "bool"
                }
              ],
              "internalType": "struct case2.Patient",
              "name": "patient",
              "type": "tuple"
            },
            {
              "internalType": "string",
              "name": "purpose",
              "type": "string"
            },
            {
              "components": [
                {
                  "internalType": "string",
                  "name": "id",
                  "type": "string"
                },
                {
                  "internalType": "string",
                  "name": "hasType",
                  "type": "string"
                },
                {
                  "internalType": "string",
                  "name": "clinicalStatus",
                  "type": "string"
                },
                {
                  "internalType": "int256",
                  "name": "code",
                  "type": "int256"
                },
                {
                  "internalType": "bool",
                  "name": "exists",
                  "type": "bool"
                }
              ],
              "internalType": "struct case2.Condition",
              "name": "immuneDeficiencyDisease",
              "type": "tuple"
            },
            {
              "components": [
                {
                  "internalType": "string",
                  "name": "id",
                  "type": "string"
                },
                {
                  "internalType": "string",
                  "name": "hasType",
                  "type": "string"
                },
                {
                  "internalType": "bool",
                  "name": "exists",
                  "type": "bool"
                }
              ],
              "internalType": "struct case2.Practitioner",
              "name": "provider",
              "type": "tuple"
            },
            {
              "components": [
                {
                  "internalType": "string",
                  "name": "id",
                  "type": "string"
                },
                {
                  "internalType": "string",
                  "name": "hasType",
                  "type": "string"
                },
                {
                  "components": [
                    {
                      "internalType": "string",
                      "name": "id",
                      "type": "string"
                    },
                    {
                      "internalType": "string",
                      "name": "hasType",
                      "type": "string"
                    },
                    {
                      "internalType": "string",
                      "name": "clinicalStatus",
                      "type": "string"
                    },
                    {
                      "internalType": "int256",
                      "name": "code",
                      "type": "int256"
                    },
                    {
                      "internalType": "bool",
                      "name": "exists",
                      "type": "bool"
                    }
                  ],
                  "internalType": "struct case2.Condition",
                  "name": "reason",
                  "type": "tuple"
                },
                {
                  "components": [
                    {
                      "internalType": "string",
                      "name": "id",
                      "type": "string"
                    },
                    {
                      "internalType": "string",
                      "name": "hasType",
                      "type": "string"
                    },
                    {
                      "components": [
                        {
                          "internalType": "string",
                          "name": "id",
                          "type": "string"
                        },
                        {
                          "internalType": "string",
                          "name": "hasType",
                          "type": "string"
                        },
                        {
                          "internalType": "string",
                          "name": "clinicalStatus",
                          "type": "string"
                        },
                        {
                          "internalType": "int256",
                          "name": "code",
                          "type": "int256"
                        },
                        {
                          "internalType": "bool",
                          "name": "exists",
                          "type": "bool"
                        }
                      ],
                      "internalType": "struct case2.Condition[]",
                      "name": "subjectOf",
                      "type": "tuple[]"
                    },
                    {
                      "components": [
                        {
                          "internalType": "string",
                          "name": "id",
                          "type": "string"
                        },
                        {
                          "internalType": "string",
                          "name": "hasType",
                          "type": "string"
                        },
                        {
                          "components": [
                            {
                              "internalType": "string",
                              "name": "id",
                              "type": "string"
                            },
                            {
                              "internalType": "string",
                              "name": "hasType",
                              "type": "string"
                            },
                            {
                              "internalType": "bool",
                              "name": "exists",
                              "type": "bool"
                            }
                          ],
                          "internalType": "struct case2.Insurer",
                          "name": "insurer",
                          "type": "tuple"
                        },
                        {
                          "components": [
                            {
                              "internalType": "string",
                              "name": "id",
                              "type": "string"
                            },
                            {
                              "internalType": "string",
                              "name": "hasType",
                              "type": "string"
                            },
                            {
                              "internalType": "bool",
                              "name": "exists",
                              "type": "bool"
                            }
                          ],
                          "internalType": "struct case2.Class",
                          "name": "class",
                          "type": "tuple"
                        },
                        {
                          "internalType": "bool",
                          "name": "exists",
                          "type": "bool"
                        }
                      ],
                      "internalType": "struct case2.Coverage[]",
                      "name": "policyHolderOf",
                      "type": "tuple[]"
                    },
                    {
                      "internalType": "bool",
                      "name": "exists",
                      "type": "bool"
                    }
                  ],
                  "internalType": "struct case2.Patient",
                  "name": "subject",
                  "type": "tuple"
                },
                {
                  "components": [
                    {
                      "internalType": "string",
                      "name": "id",
                      "type": "string"
                    },
                    {
                      "internalType": "string",
                      "name": "hasType",
                      "type": "string"
                    },
                    {
                      "internalType": "int256",
                      "name": "concept",
                      "type": "int256"
                    },
                    {
                      "internalType": "bool",
                      "name": "exists",
                      "type": "bool"
                    }
                  ],
                  "internalType": "struct case2.Medication[]",
                  "name": "medication",
                  "type": "tuple[]"
                },
                {
                  "components": [
                    {
                      "internalType": "string",
                      "name": "id",
                      "type": "string"
                    },
                    {
                      "internalType": "string",
                      "name": "hasType",
                      "type": "string"
                    },
                    {
                      "internalType": "int256",
                      "name": "route",
                      "type": "int256"
                    },
                    {
                      "components": [
                        {
                          "internalType": "string",
                          "name": "id",
                          "type": "string"
                        },
                        {
                          "internalType": "string",
                          "name": "hasType",
                          "type": "string"
                        },
                        {
                          "internalType": "bool",
                          "name": "exists",
                          "type": "bool"
                        }
                      ],
                      "internalType": "struct case2.Practitioner[]",
                      "name": "requester",
                      "type": "tuple[]"
                    },
                    {
                      "components": [
                        {
                          "internalType": "string",
                          "name": "id",
                          "type": "string"
                        },
                        {
                          "internalType": "string",
                          "name": "hasType",
                          "type": "string"
                        },
                        {
                          "components": [
                            {
                              "internalType": "string",
                              "name": "id",
                              "type": "string"
                            },
                            {
                              "internalType": "string",
                              "name": "hasType",
                              "type": "string"
                            },
                            {
                              "internalType": "string",
                              "name": "clinicalStatus",
                              "type": "string"
                            },
                            {
                              "internalType": "int256",
                              "name": "code",
                              "type": "int256"
                            },
                            {
                              "internalType": "bool",
                              "name": "exists",
                              "type": "bool"
                            }
                          ],
                          "internalType": "struct case2.Condition[]",
                          "name": "subjectOf",
                          "type": "tuple[]"
                        },
                        {
                          "components": [
                            {
                              "internalType": "string",
                              "name": "id",
                              "type": "string"
                            },
                            {
                              "internalType": "string",
                              "name": "hasType",
                              "type": "string"
                            },
                            {
                              "components": [
                                {
                                  "internalType": "string",
                                  "name": "id",
                                  "type": "string"
                                },
                                {
                                  "internalType": "string",
                                  "name": "hasType",
                                  "type": "string"
                                },
                                {
                                  "internalType": "bool",
                                  "name": "exists",
                                  "type": "bool"
                                }
                              ],
                              "internalType": "struct case2.Insurer",
                              "name": "insurer",
                              "type": "tuple"
                            },
                            {
                              "components": [
                                {
                                  "internalType": "string",
                                  "name": "id",
                                  "type": "string"
                                },
                                {
                                  "internalType": "string",
                                  "name": "hasType",
                                  "type": "string"
                                },
                                {
                                  "internalType": "bool",
                                  "name": "exists",
                                  "type": "bool"
                                }
                              ],
                              "internalType": "struct case2.Class",
                              "name": "class",
                              "type": "tuple"
                            },
                            {
                              "internalType": "bool",
                              "name": "exists",
                              "type": "bool"
                            }
                          ],
                          "internalType": "struct case2.Coverage[]",
                          "name": "policyHolderOf",
                          "type": "tuple[]"
                        },
                        {
                          "internalType": "bool",
                          "name": "exists",
                          "type": "bool"
                        }
                      ],
                      "internalType": "struct case2.Patient[]",
                      "name": "performer",
                      "type": "tuple[]"
                    },
                    {
                      "internalType": "int256",
                      "name": "method",
                      "type": "int256"
                    },
                    {
                      "internalType": "bool",
                      "name": "exists",
                      "type": "bool"
                    }
                  ],
                  "internalType": "struct case2.Dosage[]",
                  "name": "dosageInstruction",
                  "type": "tuple[]"
                },
                {
                  "internalType": "bool",
                  "name": "exists",
                  "type": "bool"
                }
              ],
              "internalType": "struct case2.MedicationRequest[]",
              "name": "item",
              "type": "tuple[]"
            },
            {
              "components": [
                {
                  "internalType": "string",
                  "name": "id",
                  "type": "string"
                },
                {
                  "internalType": "string",
                  "name": "hasType",
                  "type": "string"
                },
                {
                  "components": [
                    {
                      "internalType": "string",
                      "name": "id",
                      "type": "string"
                    },
                    {
                      "internalType": "string",
                      "name": "hasType",
                      "type": "string"
                    },
                    {
                      "internalType": "string",
                      "name": "clinicalStatus",
                      "type": "string"
                    },
                    {
                      "internalType": "int256",
                      "name": "code",
                      "type": "int256"
                    },
                    {
                      "internalType": "bool",
                      "name": "exists",
                      "type": "bool"
                    }
                  ],
                  "internalType": "struct case2.Condition",
                  "name": "reason",
                  "type": "tuple"
                },
                {
                  "components": [
                    {
                      "internalType": "string",
                      "name": "id",
                      "type": "string"
                    },
                    {
                      "internalType": "string",
                      "name": "hasType",
                      "type": "string"
                    },
                    {
                      "components": [
                        {
                          "internalType": "string",
                          "name": "id",
                          "type": "string"
                        },
                        {
                          "internalType": "string",
                          "name": "hasType",
                          "type": "string"
                        },
                        {
                          "internalType": "string",
                          "name": "clinicalStatus",
                          "type": "string"
                        },
                        {
                          "internalType": "int256",
                          "name": "code",
                          "type": "int256"
                        },
                        {
                          "internalType": "bool",
                          "name": "exists",
                          "type": "bool"
                        }
                      ],
                      "internalType": "struct case2.Condition[]",
                      "name": "subjectOf",
                      "type": "tuple[]"
                    },
                    {
                      "components": [
                        {
                          "internalType": "string",
                          "name": "id",
                          "type": "string"
                        },
                        {
                          "internalType": "string",
                          "name": "hasType",
                          "type": "string"
                        },
                        {
                          "components": [
                            {
                              "internalType": "string",
                              "name": "id",
                              "type": "string"
                            },
                            {
                              "internalType": "string",
                              "name": "hasType",
                              "type": "string"
                            },
                            {
                              "internalType": "bool",
                              "name": "exists",
                              "type": "bool"
                            }
                          ],
                          "internalType": "struct case2.Insurer",
                          "name": "insurer",
                          "type": "tuple"
                        },
                        {
                          "components": [
                            {
                              "internalType": "string",
                              "name": "id",
                              "type": "string"
                            },
                            {
                              "internalType": "string",
                              "name": "hasType",
                              "type": "string"
                            },
                            {
                              "internalType": "bool",
                              "name": "exists",
                              "type": "bool"
                            }
                          ],
                          "internalType": "struct case2.Class",
                          "name": "class",
                          "type": "tuple"
                        },
                        {
                          "internalType": "bool",
                          "name": "exists",
                          "type": "bool"
                        }
                      ],
                      "internalType": "struct case2.Coverage[]",
                      "name": "policyHolderOf",
                      "type": "tuple[]"
                    },
                    {
                      "internalType": "bool",
                      "name": "exists",
                      "type": "bool"
                    }
                  ],
                  "internalType": "struct case2.Patient",
                  "name": "subject",
                  "type": "tuple"
                },
                {
                  "components": [
                    {
                      "internalType": "string",
                      "name": "id",
                      "type": "string"
                    },
                    {
                      "internalType": "string",
                      "name": "hasType",
                      "type": "string"
                    },
                    {
                      "internalType": "int256",
                      "name": "concept",
                      "type": "int256"
                    },
                    {
                      "internalType": "bool",
                      "name": "exists",
                      "type": "bool"
                    }
                  ],
                  "internalType": "struct case2.Medication[]",
                  "name": "medication",
                  "type": "tuple[]"
                },
                {
                  "components": [
                    {
                      "internalType": "string",
                      "name": "id",
                      "type": "string"
                    },
                    {
                      "internalType": "string",
                      "name": "hasType",
                      "type": "string"
                    },
                    {
                      "internalType": "int256",
                      "name": "route",
                      "type": "int256"
                    },
                    {
                      "components": [
                        {
                          "internalType": "string",
                          "name": "id",
                          "type": "string"
                        },
                        {
                          "internalType": "string",
                          "name": "hasType",
                          "type": "string"
                        },
                        {
                          "internalType": "bool",
                          "name": "exists",
                          "type": "bool"
                        }
                      ],
                      "internalType": "struct case2.Practitioner[]",
                      "name": "requester",
                      "type": "tuple[]"
                    },
                    {
                      "components": [
                        {
                          "internalType": "string",
                          "name": "id",
                          "type": "string"
                        },
                        {
                          "internalType": "string",
                          "name": "hasType",
                          "type": "string"
                        },
                        {
                          "components": [
                            {
                              "internalType": "string",
                              "name": "id",
                              "type": "string"
                            },
                            {
                              "internalType": "string",
                              "name": "hasType",
                              "type": "string"
                            },
                            {
                              "internalType": "string",
                              "name": "clinicalStatus",
                              "type": "string"
                            },
                            {
                              "internalType": "int256",
                              "name": "code",
                              "type": "int256"
                            },
                            {
                              "internalType": "bool",
                              "name": "exists",
                              "type": "bool"
                            }
                          ],
                          "internalType": "struct case2.Condition[]",
                          "name": "subjectOf",
                          "type": "tuple[]"
                        },
                        {
                          "components": [
                            {
                              "internalType": "string",
                              "name": "id",
                              "type": "string"
                            },
                            {
                              "internalType": "string",
                              "name": "hasType",
                              "type": "string"
                            },
                            {
                              "components": [
                                {
                                  "internalType": "string",
                                  "name": "id",
                                  "type": "string"
                                },
                                {
                                  "internalType": "string",
                                  "name": "hasType",
                                  "type": "string"
                                },
                                {
                                  "internalType": "bool",
                                  "name": "exists",
                                  "type": "bool"
                                }
                              ],
                              "internalType": "struct case2.Insurer",
                              "name": "insurer",
                              "type": "tuple"
                            },
                            {
                              "components": [
                                {
                                  "internalType": "string",
                                  "name": "id",
                                  "type": "string"
                                },
                                {
                                  "internalType": "string",
                                  "name": "hasType",
                                  "type": "string"
                                },
                                {
                                  "internalType": "bool",
                                  "name": "exists",
                                  "type": "bool"
                                }
                              ],
                              "internalType": "struct case2.Class",
                              "name": "class",
                              "type": "tuple"
                            },
                            {
                              "internalType": "bool",
                              "name": "exists",
                              "type": "bool"
                            }
                          ],
                          "internalType": "struct case2.Coverage[]",
                          "name": "policyHolderOf",
                          "type": "tuple[]"
                        },
                        {
                          "internalType": "bool",
                          "name": "exists",
                          "type": "bool"
                        }
                      ],
                      "internalType": "struct case2.Patient[]",
                      "name": "performer",
                      "type": "tuple[]"
                    },
                    {
                      "internalType": "int256",
                      "name": "method",
                      "type": "int256"
                    },
                    {
                      "internalType": "bool",
                      "name": "exists",
                      "type": "bool"
                    }
                  ],
                  "internalType": "struct case2.Dosage[]",
                  "name": "dosageInstruction",
                  "type": "tuple[]"
                },
                {
                  "internalType": "bool",
                  "name": "exists",
                  "type": "bool"
                }
              ],
              "internalType": "struct case2.MedicationRequest",
              "name": "ivigDrugItem",
              "type": "tuple"
            },
            {
              "components": [
                {
                  "internalType": "string",
                  "name": "id",
                  "type": "string"
                },
                {
                  "internalType": "string",
                  "name": "hasType",
                  "type": "string"
                },
                {
                  "internalType": "string",
                  "name": "outcome",
                  "type": "string"
                },
                {
                  "components": [
                    {
                      "internalType": "string",
                      "name": "id",
                      "type": "string"
                    },
                    {
                      "internalType": "string",
                      "name": "hasType",
                      "type": "string"
                    },
                    {
                      "components": [
                        {
                          "internalType": "string",
                          "name": "id",
                          "type": "string"
                        },
                        {
                          "internalType": "string",
                          "name": "hasType",
                          "type": "string"
                        },
                        {
                          "internalType": "string",
                          "name": "clinicalStatus",
                          "type": "string"
                        },
                        {
                          "internalType": "int256",
                          "name": "code",
                          "type": "int256"
                        },
                        {
                          "internalType": "bool",
                          "name": "exists",
                          "type": "bool"
                        }
                      ],
                      "internalType": "struct case2.Condition",
                      "name": "reason",
                      "type": "tuple"
                    },
                    {
                      "components": [
                        {
                          "internalType": "string",
                          "name": "id",
                          "type": "string"
                        },
                        {
                          "internalType": "string",
                          "name": "hasType",
                          "type": "string"
                        },
                        {
                          "components": [
                            {
                              "internalType": "string",
                              "name": "id",
                              "type": "string"
                            },
                            {
                              "internalType": "string",
                              "name": "hasType",
                              "type": "string"
                            },
                            {
                              "internalType": "string",
                              "name": "clinicalStatus",
                              "type": "string"
                            },
                            {
                              "internalType": "int256",
                              "name": "code",
                              "type": "int256"
                            },
                            {
                              "internalType": "bool",
                              "name": "exists",
                              "type": "bool"
                            }
                          ],
                          "internalType": "struct case2.Condition[]",
                          "name": "subjectOf",
                          "type": "tuple[]"
                        },
                        {
                          "components": [
                            {
                              "internalType": "string",
                              "name": "id",
                              "type": "string"
                            },
                            {
                              "internalType": "string",
                              "name": "hasType",
                              "type": "string"
                            },
                            {
                              "components": [
                                {
                                  "internalType": "string",
                                  "name": "id",
                                  "type": "string"
                                },
                                {
                                  "internalType": "string",
                                  "name": "hasType",
                                  "type": "string"
                                },
                                {
                                  "internalType": "bool",
                                  "name": "exists",
                                  "type": "bool"
                                }
                              ],
                              "internalType": "struct case2.Insurer",
                              "name": "insurer",
                              "type": "tuple"
                            },
                            {
                              "components": [
                                {
                                  "internalType": "string",
                                  "name": "id",
                                  "type": "string"
                                },
                                {
                                  "internalType": "string",
                                  "name": "hasType",
                                  "type": "string"
                                },
                                {
                                  "internalType": "bool",
                                  "name": "exists",
                                  "type": "bool"
                                }
                              ],
                              "internalType": "struct case2.Class",
                              "name": "class",
                              "type": "tuple"
                            },
                            {
                              "internalType": "bool",
                              "name": "exists",
                              "type": "bool"
                            }
                          ],
                          "internalType": "struct case2.Coverage[]",
                          "name": "policyHolderOf",
                          "type": "tuple[]"
                        },
                        {
                          "internalType": "bool",
                          "name": "exists",
                          "type": "bool"
                        }
                      ],
                      "internalType": "struct case2.Patient",
                      "name": "subject",
                      "type": "tuple"
                    },
                    {
                      "components": [
                        {
                          "internalType": "string",
                          "name": "id",
                          "type": "string"
                        },
                        {
                          "internalType": "string",
                          "name": "hasType",
                          "type": "string"
                        },
                        {
                          "internalType": "int256",
                          "name": "concept",
                          "type": "int256"
                        },
                        {
                          "internalType": "bool",
                          "name": "exists",
                          "type": "bool"
                        }
                      ],
                      "internalType": "struct case2.Medication[]",
                      "name": "medication",
                      "type": "tuple[]"
                    },
                    {
                      "components": [
                        {
                          "internalType": "string",
                          "name": "id",
                          "type": "string"
                        },
                        {
                          "internalType": "string",
                          "name": "hasType",
                          "type": "string"
                        },
                        {
                          "internalType": "int256",
                          "name": "route",
                          "type": "int256"
                        },
                        {
                          "components": [
                            {
                              "internalType": "string",
                              "name": "id",
                              "type": "string"
                            },
                            {
                              "internalType": "string",
                              "name": "hasType",
                              "type": "string"
                            },
                            {
                              "internalType": "bool",
                              "name": "exists",
                              "type": "bool"
                            }
                          ],
                          "internalType": "struct case2.Practitioner[]",
                          "name": "requester",
                          "type": "tuple[]"
                        },
                        {
                          "components": [
                            {
                              "internalType": "string",
                              "name": "id",
                              "type": "string"
                            },
                            {
                              "internalType": "string",
                              "name": "hasType",
                              "type": "string"
                            },
                            {
                              "components": [
                                {
                                  "internalType": "string",
                                  "name": "id",
                                  "type": "string"
                                },
                                {
                                  "internalType": "string",
                                  "name": "hasType",
                                  "type": "string"
                                },
                                {
                                  "internalType": "string",
                                  "name": "clinicalStatus",
                                  "type": "string"
                                },
                                {
                                  "internalType": "int256",
                                  "name": "code",
                                  "type": "int256"
                                },
                                {
                                  "internalType": "bool",
                                  "name": "exists",
                                  "type": "bool"
                                }
                              ],
                              "internalType": "struct case2.Condition[]",
                              "name": "subjectOf",
                              "type": "tuple[]"
                            },
                            {
                              "components": [
                                {
                                  "internalType": "string",
                                  "name": "id",
                                  "type": "string"
                                },
                                {
                                  "internalType": "string",
                                  "name": "hasType",
                                  "type": "string"
                                },
                                {
                                  "components": [
                                    {
                                      "internalType": "string",
                                      "name": "id",
                                      "type": "string"
                                    },
                                    {
                                      "internalType": "string",
                                      "name": "hasType",
                                      "type": "string"
                                    },
                                    {
                                      "internalType": "bool",
                                      "name": "exists",
                                      "type": "bool"
                                    }
                                  ],
                                  "internalType": "struct case2.Insurer",
                                  "name": "insurer",
                                  "type": "tuple"
                                },
                                {
                                  "components": [
                                    {
                                      "internalType": "string",
                                      "name": "id",
                                      "type": "string"
                                    },
                                    {
                                      "internalType": "string",
                                      "name": "hasType",
                                      "type": "string"
                                    },
                                    {
                                      "internalType": "bool",
                                      "name": "exists",
                                      "type": "bool"
                                    }
                                  ],
                                  "internalType": "struct case2.Class",
                                  "name": "class",
                                  "type": "tuple"
                                },
                                {
                                  "internalType": "bool",
                                  "name": "exists",
                                  "type": "bool"
                                }
                              ],
                              "internalType": "struct case2.Coverage[]",
                              "name": "policyHolderOf",
                              "type": "tuple[]"
                            },
                            {
                              "internalType": "bool",
                              "name": "exists",
                              "type": "bool"
                            }
                          ],
                          "internalType": "struct case2.Patient[]",
                          "name": "performer",
                          "type": "tuple[]"
                        },
                        {
                          "internalType": "int256",
                          "name": "method",
                          "type": "int256"
                        },
                        {
                          "internalType": "bool",
                          "name": "exists",
                          "type": "bool"
                        }
                      ],
                      "internalType": "struct case2.Dosage[]",
                      "name": "dosageInstruction",
                      "type": "tuple[]"
                    },
                    {
                      "internalType": "bool",
                      "name": "exists",
                      "type": "bool"
                    }
                  ],
                  "internalType": "struct case2.MedicationRequest",
                  "name": "request",
                  "type": "tuple"
                },
                {
                  "components": [
                    {
                      "internalType": "string",
                      "name": "id",
                      "type": "string"
                    },
                    {
                      "internalType": "string",
                      "name": "hasType",
                      "type": "string"
                    },
                    {
                      "components": [
                        {
                          "internalType": "string",
                          "name": "id",
                          "type": "string"
                        },
                        {
                          "internalType": "string",
                          "name": "hasType",
                          "type": "string"
                        },
                        {
                          "internalType": "string",
                          "name": "clinicalStatus",
                          "type": "string"
                        },
                        {
                          "internalType": "int256",
                          "name": "code",
                          "type": "int256"
                        },
                        {
                          "internalType": "bool",
                          "name": "exists",
                          "type": "bool"
                        }
                      ],
                      "internalType": "struct case2.Condition[]",
                      "name": "subjectOf",
                      "type": "tuple[]"
                    },
                    {
                      "components": [
                        {
                          "internalType": "string",
                          "name": "id",
                          "type": "string"
                        },
                        {
                          "internalType": "string",
                          "name": "hasType",
                          "type": "string"
                        },
                        {
                          "components": [
                            {
                              "internalType": "string",
                              "name": "id",
                              "type": "string"
                            },
                            {
                              "internalType": "string",
                              "name": "hasType",
                              "type": "string"
                            },
                            {
                              "internalType": "bool",
                              "name": "exists",
                              "type": "bool"
                            }
                          ],
                          "internalType": "struct case2.Insurer",
                          "name": "insurer",
                          "type": "tuple"
                        },
                        {
                          "components": [
                            {
                              "internalType": "string",
                              "name": "id",
                              "type": "string"
                            },
                            {
                              "internalType": "string",
                              "name": "hasType",
                              "type": "string"
                            },
                            {
                              "internalType": "bool",
                              "name": "exists",
                              "type": "bool"
                            }
                          ],
                          "internalType": "struct case2.Class",
                          "name": "class",
                          "type": "tuple"
                        },
                        {
                          "internalType": "bool",
                          "name": "exists",
                          "type": "bool"
                        }
                      ],
                      "internalType": "struct case2.Coverage[]",
                      "name": "policyHolderOf",
                      "type": "tuple[]"
                    },
                    {
                      "internalType": "bool",
                      "name": "exists",
                      "type": "bool"
                    }
                  ],
                  "internalType": "struct case2.Patient",
                  "name": "patient",
                  "type": "tuple"
                },
                {
                  "components": [
                    {
                      "internalType": "string",
                      "name": "id",
                      "type": "string"
                    },
                    {
                      "internalType": "string",
                      "name": "hasType",
                      "type": "string"
                    },
                    {
                      "components": [
                        {
                          "internalType": "string",
                          "name": "id",
                          "type": "string"
                        },
                        {
                          "internalType": "string",
                          "name": "hasType",
                          "type": "string"
                        },
                        {
                          "internalType": "bool",
                          "name": "exists",
                          "type": "bool"
                        }
                      ],
                      "internalType": "struct case2.Insurer",
                      "name": "insurer",
                      "type": "tuple"
                    },
                    {
                      "components": [
                        {
                          "internalType": "string",
                          "name": "id",
                          "type": "string"
                        },
                        {
                          "internalType": "string",
                          "name": "hasType",
                          "type": "string"
                        },
                        {
                          "internalType": "bool",
                          "name": "exists",
                          "type": "bool"
                        }
                      ],
                      "internalType": "struct case2.Class",
                      "name": "class",
                      "type": "tuple"
                    },
                    {
                      "internalType": "bool",
                      "name": "exists",
                      "type": "bool"
                    }
                  ],
                  "internalType": "struct case2.Coverage",
                  "name": "covered",
                  "type": "tuple"
                },
                {
                  "internalType": "bool",
                  "name": "exists",
                  "type": "bool"
                }
              ],
              "internalType": "struct case2.CoverageEligibilityResponse",
              "name": "response",
              "type": "tuple"
            },
            {
              "internalType": "bool",
              "name": "exists",
              "type": "bool"
            }
          ],
          "internalType": "struct case2.CoverageEligibilityRequest",
          "name": "req",
          "type": "tuple"
        }
      ],
      "name": "process",
      "outputs": [],
      "stateMutability": "nonpayable",
      "type": "function"
    },
    {
      "inputs": [
        {
          "components": [
            {
              "internalType": "string",
              "name": "id",
              "type": "string"
            },
            {
              "internalType": "string",
              "name": "status",
              "type": "string"
            },
            {
              "internalType": "string",
              "name": "hasType",
              "type": "string"
            },
            {
              "components": [
                {
                  "internalType": "string",
                  "name": "id",
                  "type": "string"
                },
                {
                  "internalType": "string",
                  "name": "hasType",
                  "type": "string"
                },
                {
                  "components": [
                    {
                      "internalType": "string",
                      "name": "id",
                      "type": "string"
                    },
                    {
                      "internalType": "string",
                      "name": "hasType",
                      "type": "string"
                    },
                    {
                      "internalType": "string",
                      "name": "clinicalStatus",
                      "type": "string"
                    },
                    {
                      "internalType": "int256",
                      "name": "code",
                      "type": "int256"
                    },
                    {
                      "internalType": "bool",
                      "name": "exists",
                      "type": "bool"
                    }
                  ],
                  "internalType": "struct case2.Condition[]",
                  "name": "subjectOf",
                  "type": "tuple[]"
                },
                {
                  "components": [
                    {
                      "internalType": "string",
                      "name": "id",
                      "type": "string"
                    },
                    {
                      "internalType": "string",
                      "name": "hasType",
                      "type": "string"
                    },
                    {
                      "components": [
                        {
                          "internalType": "string",
                          "name": "id",
                          "type": "string"
                        },
                        {
                          "internalType": "string",
                          "name": "hasType",
                          "type": "string"
                        },
                        {
                          "internalType": "bool",
                          "name": "exists",
                          "type": "bool"
                        }
                      ],
                      "internalType": "struct case2.Insurer",
                      "name": "insurer",
                      "type": "tuple"
                    },
                    {
                      "components": [
                        {
                          "internalType": "string",
                          "name": "id",
                          "type": "string"
                        },
                        {
                          "internalType": "string",
                          "name": "hasType",
                          "type": "string"
                        },
                        {
                          "internalType": "bool",
                          "name": "exists",
                          "type": "bool"
                        }
                      ],
                      "internalType": "struct case2.Class",
                      "name": "class",
                      "type": "tuple"
                    },
                    {
                      "internalType": "bool",
                      "name": "exists",
                      "type": "bool"
                    }
                  ],
                  "internalType": "struct case2.Coverage[]",
                  "name": "policyHolderOf",
                  "type": "tuple[]"
                },
                {
                  "internalType": "bool",
                  "name": "exists",
                  "type": "bool"
                }
              ],
              "internalType": "struct case2.Patient",
              "name": "patient",
              "type": "tuple"
            },
            {
              "internalType": "string",
              "name": "purpose",
              "type": "string"
            },
            {
              "components": [
                {
                  "internalType": "string",
                  "name": "id",
                  "type": "string"
                },
                {
                  "internalType": "string",
                  "name": "hasType",
                  "type": "string"
                },
                {
                  "internalType": "string",
                  "name": "clinicalStatus",
                  "type": "string"
                },
                {
                  "internalType": "int256",
                  "name": "code",
                  "type": "int256"
                },
                {
                  "internalType": "bool",
                  "name": "exists",
                  "type": "bool"
                }
              ],
              "internalType": "struct case2.Condition",
              "name": "immuneDeficiencyDisease",
              "type": "tuple"
            },
            {
              "components": [
                {
                  "internalType": "string",
                  "name": "id",
                  "type": "string"
                },
                {
                  "internalType": "string",
                  "name": "hasType",
                  "type": "string"
                },
                {
                  "internalType": "bool",
                  "name": "exists",
                  "type": "bool"
                }
              ],
              "internalType": "struct case2.Practitioner",
              "name": "provider",
              "type": "tuple"
            },
            {
              "components": [
                {
                  "internalType": "string",
                  "name": "id",
                  "type": "string"
                },
                {
                  "internalType": "string",
                  "name": "hasType",
                  "type": "string"
                },
                {
                  "components": [
                    {
                      "internalType": "string",
                      "name": "id",
                      "type": "string"
                    },
                    {
                      "internalType": "string",
                      "name": "hasType",
                      "type": "string"
                    },
                    {
                      "internalType": "string",
                      "name": "clinicalStatus",
                      "type": "string"
                    },
                    {
                      "internalType": "int256",
                      "name": "code",
                      "type": "int256"
                    },
                    {
                      "internalType": "bool",
                      "name": "exists",
                      "type": "bool"
                    }
                  ],
                  "internalType": "struct case2.Condition",
                  "name": "reason",
                  "type": "tuple"
                },
                {
                  "components": [
                    {
                      "internalType": "string",
                      "name": "id",
                      "type": "string"
                    },
                    {
                      "internalType": "string",
                      "name": "hasType",
                      "type": "string"
                    },
                    {
                      "components": [
                        {
                          "internalType": "string",
                          "name": "id",
                          "type": "string"
                        },
                        {
                          "internalType": "string",
                          "name": "hasType",
                          "type": "string"
                        },
                        {
                          "internalType": "string",
                          "name": "clinicalStatus",
                          "type": "string"
                        },
                        {
                          "internalType": "int256",
                          "name": "code",
                          "type": "int256"
                        },
                        {
                          "internalType": "bool",
                          "name": "exists",
                          "type": "bool"
                        }
                      ],
                      "internalType": "struct case2.Condition[]",
                      "name": "subjectOf",
                      "type": "tuple[]"
                    },
                    {
                      "components": [
                        {
                          "internalType": "string",
                          "name": "id",
                          "type": "string"
                        },
                        {
                          "internalType": "string",
                          "name": "hasType",
                          "type": "string"
                        },
                        {
                          "components": [
                            {
                              "internalType": "string",
                              "name": "id",
                              "type": "string"
                            },
                            {
                              "internalType": "string",
                              "name": "hasType",
                              "type": "string"
                            },
                            {
                              "internalType": "bool",
                              "name": "exists",
                              "type": "bool"
                            }
                          ],
                          "internalType": "struct case2.Insurer",
                          "name": "insurer",
                          "type": "tuple"
                        },
                        {
                          "components": [
                            {
                              "internalType": "string",
                              "name": "id",
                              "type": "string"
                            },
                            {
                              "internalType": "string",
                              "name": "hasType",
                              "type": "string"
                            },
                            {
                              "internalType": "bool",
                              "name": "exists",
                              "type": "bool"
                            }
                          ],
                          "internalType": "struct case2.Class",
                          "name": "class",
                          "type": "tuple"
                        },
                        {
                          "internalType": "bool",
                          "name": "exists",
                          "type": "bool"
                        }
                      ],
                      "internalType": "struct case2.Coverage[]",
                      "name": "policyHolderOf",
                      "type": "tuple[]"
                    },
                    {
                      "internalType": "bool",
                      "name": "exists",
                      "type": "bool"
                    }
                  ],
                  "internalType": "struct case2.Patient",
                  "name": "subject",
                  "type": "tuple"
                },
                {
                  "components": [
                    {
                      "internalType": "string",
                      "name": "id",
                      "type": "string"
                    },
                    {
                      "internalType": "string",
                      "name": "hasType",
                      "type": "string"
                    },
                    {
                      "internalType": "int256",
                      "name": "concept",
                      "type": "int256"
                    },
                    {
                      "internalType": "bool",
                      "name": "exists",
                      "type": "bool"
                    }
                  ],
                  "internalType": "struct case2.Medication[]",
                  "name": "medication",
                  "type": "tuple[]"
                },
                {
                  "components": [
                    {
                      "internalType": "string",
                      "name": "id",
                      "type": "string"
                    },
                    {
                      "internalType": "string",
                      "name": "hasType",
                      "type": "string"
                    },
                    {
                      "internalType": "int256",
                      "name": "route",
                      "type": "int256"
                    },
                    {
                      "components": [
                        {
                          "internalType": "string",
                          "name": "id",
                          "type": "string"
                        },
                        {
                          "internalType": "string",
                          "name": "hasType",
                          "type": "string"
                        },
                        {
                          "internalType": "bool",
                          "name": "exists",
                          "type": "bool"
                        }
                      ],
                      "internalType": "struct case2.Practitioner[]",
                      "name": "requester",
                      "type": "tuple[]"
                    },
                    {
                      "components": [
                        {
                          "internalType": "string",
                          "name": "id",
                          "type": "string"
                        },
                        {
                          "internalType": "string",
                          "name": "hasType",
                          "type": "string"
                        },
                        {
                          "components": [
                            {
                              "internalType": "string",
                              "name": "id",
                              "type": "string"
                            },
                            {
                              "internalType": "string",
                              "name": "hasType",
                              "type": "string"
                            },
                            {
                              "internalType": "string",
                              "name": "clinicalStatus",
                              "type": "string"
                            },
                            {
                              "internalType": "int256",
                              "name": "code",
                              "type": "int256"
                            },
                            {
                              "internalType": "bool",
                              "name": "exists",
                              "type": "bool"
                            }
                          ],
                          "internalType": "struct case2.Condition[]",
                          "name": "subjectOf",
                          "type": "tuple[]"
                        },
                        {
                          "components": [
                            {
                              "internalType": "string",
                              "name": "id",
                              "type": "string"
                            },
                            {
                              "internalType": "string",
                              "name": "hasType",
                              "type": "string"
                            },
                            {
                              "components": [
                                {
                                  "internalType": "string",
                                  "name": "id",
                                  "type": "string"
                                },
                                {
                                  "internalType": "string",
                                  "name": "hasType",
                                  "type": "string"
                                },
                                {
                                  "internalType": "bool",
                                  "name": "exists",
                                  "type": "bool"
                                }
                              ],
                              "internalType": "struct case2.Insurer",
                              "name": "insurer",
                              "type": "tuple"
                            },
                            {
                              "components": [
                                {
                                  "internalType": "string",
                                  "name": "id",
                                  "type": "string"
                                },
                                {
                                  "internalType": "string",
                                  "name": "hasType",
                                  "type": "string"
                                },
                                {
                                  "internalType": "bool",
                                  "name": "exists",
                                  "type": "bool"
                                }
                              ],
                              "internalType": "struct case2.Class",
                              "name": "class",
                              "type": "tuple"
                            },
                            {
                              "internalType": "bool",
                              "name": "exists",
                              "type": "bool"
                            }
                          ],
                          "internalType": "struct case2.Coverage[]",
                          "name": "policyHolderOf",
                          "type": "tuple[]"
                        },
                        {
                          "internalType": "bool",
                          "name": "exists",
                          "type": "bool"
                        }
                      ],
                      "internalType": "struct case2.Patient[]",
                      "name": "performer",
                      "type": "tuple[]"
                    },
                    {
                      "internalType": "int256",
                      "name": "method",
                      "type": "int256"
                    },
                    {
                      "internalType": "bool",
                      "name": "exists",
                      "type": "bool"
                    }
                  ],
                  "internalType": "struct case2.Dosage[]",
                  "name": "dosageInstruction",
                  "type": "tuple[]"
                },
                {
                  "internalType": "bool",
                  "name": "exists",
                  "type": "bool"
                }
              ],
              "internalType": "struct case2.MedicationRequest[]",
              "name": "item",
              "type": "tuple[]"
            },
            {
              "components": [
                {
                  "internalType": "string",
                  "name": "id",
                  "type": "string"
                },
                {
                  "internalType": "string",
                  "name": "hasType",
                  "type": "string"
                },
                {
                  "components": [
                    {
                      "internalType": "string",
                      "name": "id",
                      "type": "string"
                    },
                    {
                      "internalType": "string",
                      "name": "hasType",
                      "type": "string"
                    },
                    {
                      "internalType": "string",
                      "name": "clinicalStatus",
                      "type": "string"
                    },
                    {
                      "internalType": "int256",
                      "name": "code",
                      "type": "int256"
                    },
                    {
                      "internalType": "bool",
                      "name": "exists",
                      "type": "bool"
                    }
                  ],
                  "internalType": "struct case2.Condition",
                  "name": "reason",
                  "type": "tuple"
                },
                {
                  "components": [
                    {
                      "internalType": "string",
                      "name": "id",
                      "type": "string"
                    },
                    {
                      "internalType": "string",
                      "name": "hasType",
                      "type": "string"
                    },
                    {
                      "components": [
                        {
                          "internalType": "string",
                          "name": "id",
                          "type": "string"
                        },
                        {
                          "internalType": "string",
                          "name": "hasType",
                          "type": "string"
                        },
                        {
                          "internalType": "string",
                          "name": "clinicalStatus",
                          "type": "string"
                        },
                        {
                          "internalType": "int256",
                          "name": "code",
                          "type": "int256"
                        },
                        {
                          "internalType": "bool",
                          "name": "exists",
                          "type": "bool"
                        }
                      ],
                      "internalType": "struct case2.Condition[]",
                      "name": "subjectOf",
                      "type": "tuple[]"
                    },
                    {
                      "components": [
                        {
                          "internalType": "string",
                          "name": "id",
                          "type": "string"
                        },
                        {
                          "internalType": "string",
                          "name": "hasType",
                          "type": "string"
                        },
                        {
                          "components": [
                            {
                              "internalType": "string",
                              "name": "id",
                              "type": "string"
                            },
                            {
                              "internalType": "string",
                              "name": "hasType",
                              "type": "string"
                            },
                            {
                              "internalType": "bool",
                              "name": "exists",
                              "type": "bool"
                            }
                          ],
                          "internalType": "struct case2.Insurer",
                          "name": "insurer",
                          "type": "tuple"
                        },
                        {
                          "components": [
                            {
                              "internalType": "string",
                              "name": "id",
                              "type": "string"
                            },
                            {
                              "internalType": "string",
                              "name": "hasType",
                              "type": "string"
                            },
                            {
                              "internalType": "bool",
                              "name": "exists",
                              "type": "bool"
                            }
                          ],
                          "internalType": "struct case2.Class",
                          "name": "class",
                          "type": "tuple"
                        },
                        {
                          "internalType": "bool",
                          "name": "exists",
                          "type": "bool"
                        }
                      ],
                      "internalType": "struct case2.Coverage[]",
                      "name": "policyHolderOf",
                      "type": "tuple[]"
                    },
                    {
                      "internalType": "bool",
                      "name": "exists",
                      "type": "bool"
                    }
                  ],
                  "internalType": "struct case2.Patient",
                  "name": "subject",
                  "type": "tuple"
                },
                {
                  "components": [
                    {
                      "internalType": "string",
                      "name": "id",
                      "type": "string"
                    },
                    {
                      "internalType": "string",
                      "name": "hasType",
                      "type": "string"
                    },
                    {
                      "internalType": "int256",
                      "name": "concept",
                      "type": "int256"
                    },
                    {
                      "internalType": "bool",
                      "name": "exists",
                      "type": "bool"
                    }
                  ],
                  "internalType": "struct case2.Medication[]",
                  "name": "medication",
                  "type": "tuple[]"
                },
                {
                  "components": [
                    {
                      "internalType": "string",
                      "name": "id",
                      "type": "string"
                    },
                    {
                      "internalType": "string",
                      "name": "hasType",
                      "type": "string"
                    },
                    {
                      "internalType": "int256",
                      "name": "route",
                      "type": "int256"
                    },
                    {
                      "components": [
                        {
                          "internalType": "string",
                          "name": "id",
                          "type": "string"
                        },
                        {
                          "internalType": "string",
                          "name": "hasType",
                          "type": "string"
                        },
                        {
                          "internalType": "bool",
                          "name": "exists",
                          "type": "bool"
                        }
                      ],
                      "internalType": "struct case2.Practitioner[]",
                      "name": "requester",
                      "type": "tuple[]"
                    },
                    {
                      "components": [
                        {
                          "internalType": "string",
                          "name": "id",
                          "type": "string"
                        },
                        {
                          "internalType": "string",
                          "name": "hasType",
                          "type": "string"
                        },
                        {
                          "components": [
                            {
                              "internalType": "string",
                              "name": "id",
                              "type": "string"
                            },
                            {
                              "internalType": "string",
                              "name": "hasType",
                              "type": "string"
                            },
                            {
                              "internalType": "string",
                              "name": "clinicalStatus",
                              "type": "string"
                            },
                            {
                              "internalType": "int256",
                              "name": "code",
                              "type": "int256"
                            },
                            {
                              "internalType": "bool",
                              "name": "exists",
                              "type": "bool"
                            }
                          ],
                          "internalType": "struct case2.Condition[]",
                          "name": "subjectOf",
                          "type": "tuple[]"
                        },
                        {
                          "components": [
                            {
                              "internalType": "string",
                              "name": "id",
                              "type": "string"
                            },
                            {
                              "internalType": "string",
                              "name": "hasType",
                              "type": "string"
                            },
                            {
                              "components": [
                                {
                                  "internalType": "string",
                                  "name": "id",
                                  "type": "string"
                                },
                                {
                                  "internalType": "string",
                                  "name": "hasType",
                                  "type": "string"
                                },
                                {
                                  "internalType": "bool",
                                  "name": "exists",
                                  "type": "bool"
                                }
                              ],
                              "internalType": "struct case2.Insurer",
                              "name": "insurer",
                              "type": "tuple"
                            },
                            {
                              "components": [
                                {
                                  "internalType": "string",
                                  "name": "id",
                                  "type": "string"
                                },
                                {
                                  "internalType": "string",
                                  "name": "hasType",
                                  "type": "string"
                                },
                                {
                                  "internalType": "bool",
                                  "name": "exists",
                                  "type": "bool"
                                }
                              ],
                              "internalType": "struct case2.Class",
                              "name": "class",
                              "type": "tuple"
                            },
                            {
                              "internalType": "bool",
                              "name": "exists",
                              "type": "bool"
                            }
                          ],
                          "internalType": "struct case2.Coverage[]",
                          "name": "policyHolderOf",
                          "type": "tuple[]"
                        },
                        {
                          "internalType": "bool",
                          "name": "exists",
                          "type": "bool"
                        }
                      ],
                      "internalType": "struct case2.Patient[]",
                      "name": "performer",
                      "type": "tuple[]"
                    },
                    {
                      "internalType": "int256",
                      "name": "method",
                      "type": "int256"
                    },
                    {
                      "internalType": "bool",
                      "name": "exists",
                      "type": "bool"
                    }
                  ],
                  "internalType": "struct case2.Dosage[]",
                  "name": "dosageInstruction",
                  "type": "tuple[]"
                },
                {
                  "internalType": "bool",
                  "name": "exists",
                  "type": "bool"
                }
              ],
              "internalType": "struct case2.MedicationRequest",
              "name": "ivigDrugItem",
              "type": "tuple"
            },
            {
              "components": [
                {
                  "internalType": "string",
                  "name": "id",
                  "type": "string"
                },
                {
                  "internalType": "string",
                  "name": "hasType",
                  "type": "string"
                },
                {
                  "internalType": "string",
                  "name": "outcome",
                  "type": "string"
                },
                {
                  "components": [
                    {
                      "internalType": "string",
                      "name": "id",
                      "type": "string"
                    },
                    {
                      "internalType": "string",
                      "name": "hasType",
                      "type": "string"
                    },
                    {
                      "components": [
                        {
                          "internalType": "string",
                          "name": "id",
                          "type": "string"
                        },
                        {
                          "internalType": "string",
                          "name": "hasType",
                          "type": "string"
                        },
                        {
                          "internalType": "string",
                          "name": "clinicalStatus",
                          "type": "string"
                        },
                        {
                          "internalType": "int256",
                          "name": "code",
                          "type": "int256"
                        },
                        {
                          "internalType": "bool",
                          "name": "exists",
                          "type": "bool"
                        }
                      ],
                      "internalType": "struct case2.Condition",
                      "name": "reason",
                      "type": "tuple"
                    },
                    {
                      "components": [
                        {
                          "internalType": "string",
                          "name": "id",
                          "type": "string"
                        },
                        {
                          "internalType": "string",
                          "name": "hasType",
                          "type": "string"
                        },
                        {
                          "components": [
                            {
                              "internalType": "string",
                              "name": "id",
                              "type": "string"
                            },
                            {
                              "internalType": "string",
                              "name": "hasType",
                              "type": "string"
                            },
                            {
                              "internalType": "string",
                              "name": "clinicalStatus",
                              "type": "string"
                            },
                            {
                              "internalType": "int256",
                              "name": "code",
                              "type": "int256"
                            },
                            {
                              "internalType": "bool",
                              "name": "exists",
                              "type": "bool"
                            }
                          ],
                          "internalType": "struct case2.Condition[]",
                          "name": "subjectOf",
                          "type": "tuple[]"
                        },
                        {
                          "components": [
                            {
                              "internalType": "string",
                              "name": "id",
                              "type": "string"
                            },
                            {
                              "internalType": "string",
                              "name": "hasType",
                              "type": "string"
                            },
                            {
                              "components": [
                                {
                                  "internalType": "string",
                                  "name": "id",
                                  "type": "string"
                                },
                                {
                                  "internalType": "string",
                                  "name": "hasType",
                                  "type": "string"
                                },
                                {
                                  "internalType": "bool",
                                  "name": "exists",
                                  "type": "bool"
                                }
                              ],
                              "internalType": "struct case2.Insurer",
                              "name": "insurer",
                              "type": "tuple"
                            },
                            {
                              "components": [
                                {
                                  "internalType": "string",
                                  "name": "id",
                                  "type": "string"
                                },
                                {
                                  "internalType": "string",
                                  "name": "hasType",
                                  "type": "string"
                                },
                                {
                                  "internalType": "bool",
                                  "name": "exists",
                                  "type": "bool"
                                }
                              ],
                              "internalType": "struct case2.Class",
                              "name": "class",
                              "type": "tuple"
                            },
                            {
                              "internalType": "bool",
                              "name": "exists",
                              "type": "bool"
                            }
                          ],
                          "internalType": "struct case2.Coverage[]",
                          "name": "policyHolderOf",
                          "type": "tuple[]"
                        },
                        {
                          "internalType": "bool",
                          "name": "exists",
                          "type": "bool"
                        }
                      ],
                      "internalType": "struct case2.Patient",
                      "name": "subject",
                      "type": "tuple"
                    },
                    {
                      "components": [
                        {
                          "internalType": "string",
                          "name": "id",
                          "type": "string"
                        },
                        {
                          "internalType": "string",
                          "name": "hasType",
                          "type": "string"
                        },
                        {
                          "internalType": "int256",
                          "name": "concept",
                          "type": "int256"
                        },
                        {
                          "internalType": "bool",
                          "name": "exists",
                          "type": "bool"
                        }
                      ],
                      "internalType": "struct case2.Medication[]",
                      "name": "medication",
                      "type": "tuple[]"
                    },
                    {
                      "components": [
                        {
                          "internalType": "string",
                          "name": "id",
                          "type": "string"
                        },
                        {
                          "internalType": "string",
                          "name": "hasType",
                          "type": "string"
                        },
                        {
                          "internalType": "int256",
                          "name": "route",
                          "type": "int256"
                        },
                        {
                          "components": [
                            {
                              "internalType": "string",
                              "name": "id",
                              "type": "string"
                            },
                            {
                              "internalType": "string",
                              "name": "hasType",
                              "type": "string"
                            },
                            {
                              "internalType": "bool",
                              "name": "exists",
                              "type": "bool"
                            }
                          ],
                          "internalType": "struct case2.Practitioner[]",
                          "name": "requester",
                          "type": "tuple[]"
                        },
                        {
                          "components": [
                            {
                              "internalType": "string",
                              "name": "id",
                              "type": "string"
                            },
                            {
                              "internalType": "string",
                              "name": "hasType",
                              "type": "string"
                            },
                            {
                              "components": [
                                {
                                  "internalType": "string",
                                  "name": "id",
                                  "type": "string"
                                },
                                {
                                  "internalType": "string",
                                  "name": "hasType",
                                  "type": "string"
                                },
                                {
                                  "internalType": "string",
                                  "name": "clinicalStatus",
                                  "type": "string"
                                },
                                {
                                  "internalType": "int256",
                                  "name": "code",
                                  "type": "int256"
                                },
                                {
                                  "internalType": "bool",
                                  "name": "exists",
                                  "type": "bool"
                                }
                              ],
                              "internalType": "struct case2.Condition[]",
                              "name": "subjectOf",
                              "type": "tuple[]"
                            },
                            {
                              "components": [
                                {
                                  "internalType": "string",
                                  "name": "id",
                                  "type": "string"
                                },
                                {
                                  "internalType": "string",
                                  "name": "hasType",
                                  "type": "string"
                                },
                                {
                                  "components": [
                                    {
                                      "internalType": "string",
                                      "name": "id",
                                      "type": "string"
                                    },
                                    {
                                      "internalType": "string",
                                      "name": "hasType",
                                      "type": "string"
                                    },
                                    {
                                      "internalType": "bool",
                                      "name": "exists",
                                      "type": "bool"
                                    }
                                  ],
                                  "internalType": "struct case2.Insurer",
                                  "name": "insurer",
                                  "type": "tuple"
                                },
                                {
                                  "components": [
                                    {
                                      "internalType": "string",
                                      "name": "id",
                                      "type": "string"
                                    },
                                    {
                                      "internalType": "string",
                                      "name": "hasType",
                                      "type": "string"
                                    },
                                    {
                                      "internalType": "bool",
                                      "name": "exists",
                                      "type": "bool"
                                    }
                                  ],
                                  "internalType": "struct case2.Class",
                                  "name": "class",
                                  "type": "tuple"
                                },
                                {
                                  "internalType": "bool",
                                  "name": "exists",
                                  "type": "bool"
                                }
                              ],
                              "internalType": "struct case2.Coverage[]",
                              "name": "policyHolderOf",
                              "type": "tuple[]"
                            },
                            {
                              "internalType": "bool",
                              "name": "exists",
                              "type": "bool"
                            }
                          ],
                          "internalType": "struct case2.Patient[]",
                          "name": "performer",
                          "type": "tuple[]"
                        },
                        {
                          "internalType": "int256",
                          "name": "method",
                          "type": "int256"
                        },
                        {
                          "internalType": "bool",
                          "name": "exists",
                          "type": "bool"
                        }
                      ],
                      "internalType": "struct case2.Dosage[]",
                      "name": "dosageInstruction",
                      "type": "tuple[]"
                    },
                    {
                      "internalType": "bool",
                      "name": "exists",
                      "type": "bool"
                    }
                  ],
                  "internalType": "struct case2.MedicationRequest",
                  "name": "request",
                  "type": "tuple"
                },
                {
                  "components": [
                    {
                      "internalType": "string",
                      "name": "id",
                      "type": "string"
                    },
                    {
                      "internalType": "string",
                      "name": "hasType",
                      "type": "string"
                    },
                    {
                      "components": [
                        {
                          "internalType": "string",
                          "name": "id",
                          "type": "string"
                        },
                        {
                          "internalType": "string",
                          "name": "hasType",
                          "type": "string"
                        },
                        {
                          "internalType": "string",
                          "name": "clinicalStatus",
                          "type": "string"
                        },
                        {
                          "internalType": "int256",
                          "name": "code",
                          "type": "int256"
                        },
                        {
                          "internalType": "bool",
                          "name": "exists",
                          "type": "bool"
                        }
                      ],
                      "internalType": "struct case2.Condition[]",
                      "name": "subjectOf",
                      "type": "tuple[]"
                    },
                    {
                      "components": [
                        {
                          "internalType": "string",
                          "name": "id",
                          "type": "string"
                        },
                        {
                          "internalType": "string",
                          "name": "hasType",
                          "type": "string"
                        },
                        {
                          "components": [
                            {
                              "internalType": "string",
                              "name": "id",
                              "type": "string"
                            },
                            {
                              "internalType": "string",
                              "name": "hasType",
                              "type": "string"
                            },
                            {
                              "internalType": "bool",
                              "name": "exists",
                              "type": "bool"
                            }
                          ],
                          "internalType": "struct case2.Insurer",
                          "name": "insurer",
                          "type": "tuple"
                        },
                        {
                          "components": [
                            {
                              "internalType": "string",
                              "name": "id",
                              "type": "string"
                            },
                            {
                              "internalType": "string",
                              "name": "hasType",
                              "type": "string"
                            },
                            {
                              "internalType": "bool",
                              "name": "exists",
                              "type": "bool"
                            }
                          ],
                          "internalType": "struct case2.Class",
                          "name": "class",
                          "type": "tuple"
                        },
                        {
                          "internalType": "bool",
                          "name": "exists",
                          "type": "bool"
                        }
                      ],
                      "internalType": "struct case2.Coverage[]",
                      "name": "policyHolderOf",
                      "type": "tuple[]"
                    },
                    {
                      "internalType": "bool",
                      "name": "exists",
                      "type": "bool"
                    }
                  ],
                  "internalType": "struct case2.Patient",
                  "name": "patient",
                  "type": "tuple"
                },
                {
                  "components": [
                    {
                      "internalType": "string",
                      "name": "id",
                      "type": "string"
                    },
                    {
                      "internalType": "string",
                      "name": "hasType",
                      "type": "string"
                    },
                    {
                      "components": [
                        {
                          "internalType": "string",
                          "name": "id",
                          "type": "string"
                        },
                        {
                          "internalType": "string",
                          "name": "hasType",
                          "type": "string"
                        },
                        {
                          "internalType": "bool",
                          "name": "exists",
                          "type": "bool"
                        }
                      ],
                      "internalType": "struct case2.Insurer",
                      "name": "insurer",
                      "type": "tuple"
                    },
                    {
                      "components": [
                        {
                          "internalType": "string",
                          "name": "id",
                          "type": "string"
                        },
                        {
                          "internalType": "string",
                          "name": "hasType",
                          "type": "string"
                        },
                        {
                          "internalType": "bool",
                          "name": "exists",
                          "type": "bool"
                        }
                      ],
                      "internalType": "struct case2.Class",
                      "name": "class",
                      "type": "tuple"
                    },
                    {
                      "internalType": "bool",
                      "name": "exists",
                      "type": "bool"
                    }
                  ],
                  "internalType": "struct case2.Coverage",
                  "name": "covered",
                  "type": "tuple"
                },
                {
                  "internalType": "bool",
                  "name": "exists",
                  "type": "bool"
                }
              ],
              "internalType": "struct case2.CoverageEligibilityResponse",
              "name": "response",
              "type": "tuple"
            },
            {
              "internalType": "bool",
              "name": "exists",
              "type": "bool"
            }
          ],
          "internalType": "struct case2.CoverageEligibilityRequest",
          "name": "req",
          "type": "tuple"
        },
        {
          "components": [
            {
              "internalType": "string",
              "name": "id",
              "type": "string"
            },
            {
              "internalType": "string",
              "name": "hasType",
              "type": "string"
            },
            {
              "components": [
                {
                  "internalType": "string",
                  "name": "id",
                  "type": "string"
                },
                {
                  "internalType": "string",
                  "name": "hasType",
                  "type": "string"
                },
                {
                  "internalType": "bool",
                  "name": "exists",
                  "type": "bool"
                }
              ],
              "internalType": "struct case2.Insurer",
              "name": "insurer",
              "type": "tuple"
            },
            {
              "components": [
                {
                  "internalType": "string",
                  "name": "id",
                  "type": "string"
                },
                {
                  "internalType": "string",
                  "name": "hasType",
                  "type": "string"
                },
                {
                  "internalType": "bool",
                  "name": "exists",
                  "type": "bool"
                }
              ],
              "internalType": "struct case2.Class",
              "name": "class",
              "type": "tuple"
            },
            {
              "internalType": "bool",
              "name": "exists",
              "type": "bool"
            }
          ],
          "internalType": "struct case2.Coverage[]",
          "name": "results",
          "type": "tuple[]"
        }
      ],
      "name": "callback3",
      "outputs": [],
      "stateMutability": "nonpayable",
      "type": "function"
    }
  ],
  "bytecode": "0x608060405234801561001057600080fd5b50612c79806100206000396000f3fe608060405234801561001057600080fd5b50600436106100365760003560e01c8063017c3c061461003b5780637dbbd95114610057575b600080fd5b61005560048036038101906100509190611bfd565b610073565b005b610071600480360381019061006c9190611c46565b6104c6565b005b7f9abeb3b79933c80ba266c7bfae4e1552e05b2e8f4b11e956d6d744b05e5b613e81608001516040516020016100a99190611d2f565b604051602081830303815290604052805190602001201480156100d157508060600151608001515b80156100e65750600081606001516040015151115b801561013b57507f9651c33eb23976f7c15240e86443dc2ded40546fa9ba457a14abab4090e023b581602001516040516020016101239190611d2f565b60405160208183030381529060405280519060200120145b156102005760005b816060015160400151518110156101fe576000826060015160400151828151811061017157610170611d46565b5b6020026020010151905063037e41b181606001511480156101db57507f9651c33eb23976f7c15240e86443dc2ded40546fa9ba457a14abab4090e023b581604001516040516020016101c39190611d2f565b60405160208183030381529060405280519060200120145b156101ea57808360a001819052505b5080806101f690611dae565b915050610143565b505b8060a0015160800151801561021a575060008160e0015151115b801561022b57508060c00151604001515b801561023c57508060600151608001515b156103695760005b8160e00151518110156103675760008260e00151828151811061026a57610269611d46565b5b6020026020010151905060008160a00151511180156102935750610292838260a001516106de565b5b80156102a457506000816080015151115b80156102ba57506102b983826080015161077e565b5b80156102cb57508060600151608001515b80156102dc57508060400151608001515b801561034357508260a00151600001516040516020016102fc9190611d2f565b6040516020818303038152906040528051906020012081604001516000015160405160200161032b9190611d2f565b60405160208183030381529060405280519060200120145b1561035357808361010001819052505b50808061035f90611dae565b915050610244565b505b80610100015160c001518015610384575060008160e0015151115b801561039a5750610399818260e001516107e8565b5b80156103ab57508060600151608001515b156104c3577faa75a197428ca677802dad0ecdf8a28cff169d58fdcebdfb7b81220db63a72e360405180608001604052808381526020016040518060400160405280600881526020017f436f766572616765000000000000000000000000000000000000000000000000815250815260200160405180604001604052806040518060400160405280600c81526020017f706f6c696379486f6c6465720000000000000000000000000000000000000000815250815260200185606001516000015181525081526020016040518060400160405280600981526020017f63616c6c6261636b3300000000000000000000000000000000000000000000008152508152506040516104ba9190612b40565b60405180910390a15b50565b60005b81518110156106d95760008282815181106104e7576104e6611d46565b5b602002602001015190507f824a601788f3d0a04585f55a613ffaffd162509f93b945ef80b0918440d34af181606001516020015160405160200161052b9190611d2f565b6040516020818303038152906040528051906020012014801561059b57507f90f2283f05cd1bf6bfc18816cac0883ed8cba4b8d071671ed37de9e4863137288160400151602001516040516020016105839190611d2f565b60405160208183030381529060405280519060200120145b156106c55760006040518060e001604052806040518060400160405280600381526020017f313233000000000000000000000000000000000000000000000000000000000081525081526020016040518060400160405280600381526020017f313233000000000000000000000000000000000000000000000000000000000081525081526020016040518060400160405280600881526020017f636f6d706c6574650000000000000000000000000000000000000000000000008152508152602001866101000151815260200186606001518152602001838152602001600115158152509050808561012001819052507f1342289430bbd7b3317fa839f5ee613b1505baed912350ef6b8ebef6cc357eb6816040516106bb9190612c21565b60405180910390a1505b5080806106d190611dae565b9150506104c9565b505050565b600080600090505b825181101561077257600083828151811061070457610703611d46565b5b60200260200101519050631701a9f08160a0015114801561072a57506000816080015151115b801561073b57506000816060015151115b801561074e5750630f3b89408160400151145b1561075e57600192505050610778565b50808061076a90611dae565b9150506106e6565b50600090505b92915050565b600080600090505b82518110156107dc5760008382815181106107a4576107a3611d46565b5b60200260200101519050630e7ee0648160400151036107c8576001925050506107e2565b5080806107d490611dae565b915050610786565b50600090505b92915050565b600080600090505b825181101561089757600083828151811061080e5761080d611d46565b5b60200260200101519050846101000151600001516040516020016108329190611d2f565b60405160208183030381529060405280519060200120816000015160405160200161085d9190611d2f565b60405160208183030381529060405280519060200120036108835760019250505061089d565b50808061088f90611dae565b9150506107f0565b50600090505b92915050565b6000604051905090565b600080fd5b600080fd5b600080fd5b6000601f19601f8301169050919050565b7f4e487b7100000000000000000000000000000000000000000000000000000000600052604160045260246000fd5b610905826108bc565b810181811067ffffffffffffffff82111715610924576109236108cd565b5b80604052505050565b60006109376108a3565b905061094382826108fc565b919050565b600080fd5b600080fd5b600080fd5b600067ffffffffffffffff821115610972576109716108cd565b5b61097b826108bc565b9050602081019050919050565b82818337600083830152505050565b60006109aa6109a584610957565b61092d565b9050828152602081018484840111156109c6576109c5610952565b5b6109d1848285610988565b509392505050565b600082601f8301126109ee576109ed61094d565b5b81356109fe848260208601610997565b91505092915050565b600067ffffffffffffffff821115610a2257610a216108cd565b5b602082029050602081019050919050565b600080fd5b6000819050919050565b610a4b81610a38565b8114610a5657600080fd5b50565b600081359050610a6881610a42565b92915050565b60008115159050919050565b610a8381610a6e565b8114610a8e57600080fd5b50565b600081359050610aa081610a7a565b92915050565b600060a08284031215610abc57610abb6108b7565b5b610ac660a061092d565b9050600082013567ffffffffffffffff811115610ae657610ae5610948565b5b610af2848285016109d9565b600083015250602082013567ffffffffffffffff811115610b1657610b15610948565b5b610b22848285016109d9565b602083015250604082013567ffffffffffffffff811115610b4657610b45610948565b5b610b52848285016109d9565b6040830152506060610b6684828501610a59565b6060830152506080610b7a84828501610a91565b60808301525092915050565b6000610b99610b9484610a07565b61092d565b90508083825260208201905060208402830185811115610bbc57610bbb610a33565b5b835b81811015610c0357803567ffffffffffffffff811115610be157610be061094d565b5b808601610bee8982610aa6565b85526020850194505050602081019050610bbe565b5050509392505050565b600082601f830112610c2257610c2161094d565b5b8135610c32848260208601610b86565b91505092915050565b600067ffffffffffffffff821115610c5657610c556108cd565b5b602082029050602081019050919050565b600060608284031215610c7d57610c7c6108b7565b5b610c87606061092d565b9050600082013567ffffffffffffffff811115610ca757610ca6610948565b5b610cb3848285016109d9565b600083015250602082013567ffffffffffffffff811115610cd757610cd6610948565b5b610ce3848285016109d9565b6020830152506040610cf784828501610a91565b60408301525092915050565b600060608284031215610d1957610d186108b7565b5b610d23606061092d565b9050600082013567ffffffffffffffff811115610d4357610d42610948565b5b610d4f848285016109d9565b600083015250602082013567ffffffffffffffff811115610d7357610d72610948565b5b610d7f848285016109d9565b6020830152506040610d9384828501610a91565b60408301525092915050565b600060a08284031215610db557610db46108b7565b5b610dbf60a061092d565b9050600082013567ffffffffffffffff811115610ddf57610dde610948565b5b610deb848285016109d9565b600083015250602082013567ffffffffffffffff811115610e0f57610e0e610948565b5b610e1b848285016109d9565b602083015250604082013567ffffffffffffffff811115610e3f57610e3e610948565b5b610e4b84828501610c67565b604083015250606082013567ffffffffffffffff811115610e6f57610e6e610948565b5b610e7b84828501610d03565b6060830152506080610e8f84828501610a91565b60808301525092915050565b6000610eae610ea984610c3b565b61092d565b90508083825260208201905060208402830185811115610ed157610ed0610a33565b5b835b81811015610f1857803567ffffffffffffffff811115610ef657610ef561094d565b5b808601610f038982610d9f565b85526020850194505050602081019050610ed3565b5050509392505050565b600082601f830112610f3757610f3661094d565b5b8135610f47848260208601610e9b565b91505092915050565b600060a08284031215610f6657610f656108b7565b5b610f7060a061092d565b9050600082013567ffffffffffffffff811115610f9057610f8f610948565b5b610f9c848285016109d9565b600083015250602082013567ffffffffffffffff811115610fc057610fbf610948565b5b610fcc848285016109d9565b602083015250604082013567ffffffffffffffff811115610ff057610fef610948565b5b610ffc84828501610c0d565b604083015250606082013567ffffffffffffffff8111156110205761101f610948565b5b61102c84828501610f22565b606083015250608061104084828501610a91565b60808301525092915050565b600060608284031215611062576110616108b7565b5b61106c606061092d565b9050600082013567ffffffffffffffff81111561108c5761108b610948565b5b611098848285016109d9565b600083015250602082013567ffffffffffffffff8111156110bc576110bb610948565b5b6110c8848285016109d9565b60208301525060406110dc84828501610a91565b60408301525092915050565b600067ffffffffffffffff821115611103576111026108cd565b5b602082029050602081019050919050565b600067ffffffffffffffff82111561112f5761112e6108cd565b5b602082029050602081019050919050565b600060808284031215611156576111556108b7565b5b611160608061092d565b9050600082013567ffffffffffffffff8111156111805761117f610948565b5b61118c848285016109d9565b600083015250602082013567ffffffffffffffff8111156111b0576111af610948565b5b6111bc848285016109d9565b60208301525060406111d084828501610a59565b60408301525060606111e484828501610a91565b60608301525092915050565b60006112036111fe84611114565b61092d565b9050808382526020820190506020840283018581111561122657611225610a33565b5b835b8181101561126d57803567ffffffffffffffff81111561124b5761124a61094d565b5b8086016112588982611140565b85526020850194505050602081019050611228565b5050509392505050565b600082601f83011261128c5761128b61094d565b5b813561129c8482602086016111f0565b91505092915050565b600067ffffffffffffffff8211156112c0576112bf6108cd565b5b602082029050602081019050919050565b600067ffffffffffffffff8211156112ec576112eb6108cd565b5b602082029050602081019050919050565b600061131061130b846112d1565b61092d565b9050808382526020820190506020840283018581111561133357611332610a33565b5b835b8181101561137a57803567ffffffffffffffff8111156113585761135761094d565b5b808601611365898261104c565b85526020850194505050602081019050611335565b5050509392505050565b600082601f8301126113995761139861094d565b5b81356113a98482602086016112fd565b91505092915050565b600067ffffffffffffffff8211156113cd576113cc6108cd565b5b602082029050602081019050919050565b60006113f16113ec846113b2565b61092d565b9050808382526020820190506020840283018581111561141457611413610a33565b5b835b8181101561145b57803567ffffffffffffffff8111156114395761143861094d565b5b8086016114468982610f50565b85526020850194505050602081019050611416565b5050509392505050565b600082601f83011261147a5761147961094d565b5b813561148a8482602086016113de565b91505092915050565b600060e082840312156114a9576114a86108b7565b5b6114b360e061092d565b9050600082013567ffffffffffffffff8111156114d3576114d2610948565b5b6114df848285016109d9565b600083015250602082013567ffffffffffffffff81111561150357611502610948565b5b61150f848285016109d9565b602083015250604061152384828501610a59565b604083015250606082013567ffffffffffffffff81111561154757611546610948565b5b61155384828501611384565b606083015250608082013567ffffffffffffffff81111561157757611576610948565b5b61158384828501611465565b60808301525060a061159784828501610a59565b60a08301525060c06115ab84828501610a91565b60c08301525092915050565b60006115ca6115c5846112a5565b61092d565b905080838252602082019050602084028301858111156115ed576115ec610a33565b5b835b8181101561163457803567ffffffffffffffff8111156116125761161161094d565b5b80860161161f8982611493565b855260208501945050506020810190506115ef565b5050509392505050565b600082601f8301126116535761165261094d565b5b81356116638482602086016115b7565b91505092915050565b600060e08284031215611682576116816108b7565b5b61168c60e061092d565b9050600082013567ffffffffffffffff8111156116ac576116ab610948565b5b6116b8848285016109d9565b600083015250602082013567ffffffffffffffff8111156116dc576116db610948565b5b6116e8848285016109d9565b602083015250604082013567ffffffffffffffff81111561170c5761170b610948565b5b61171884828501610aa6565b604083015250606082013567ffffffffffffffff81111561173c5761173b610948565b5b61174884828501610f50565b606083015250608082013567ffffffffffffffff81111561176c5761176b610948565b5b61177884828501611277565b60808301525060a082013567ffffffffffffffff81111561179c5761179b610948565b5b6117a88482850161163e565b60a08301525060c06117bc84828501610a91565b60c08301525092915050565b60006117db6117d6846110e8565b61092d565b905080838252602082019050602084028301858111156117fe576117fd610a33565b5b835b8181101561184557803567ffffffffffffffff8111156118235761182261094d565b5b808601611830898261166c565b85526020850194505050602081019050611800565b5050509392505050565b600082601f8301126118645761186361094d565b5b81356118748482602086016117c8565b91505092915050565b600060e08284031215611893576118926108b7565b5b61189d60e061092d565b9050600082013567ffffffffffffffff8111156118bd576118bc610948565b5b6118c9848285016109d9565b600083015250602082013567ffffffffffffffff8111156118ed576118ec610948565b5b6118f9848285016109d9565b602083015250604082013567ffffffffffffffff81111561191d5761191c610948565b5b611929848285016109d9565b604083015250606082013567ffffffffffffffff81111561194d5761194c610948565b5b6119598482850161166c565b606083015250608082013567ffffffffffffffff81111561197d5761197c610948565b5b61198984828501610f50565b60808301525060a082013567ffffffffffffffff8111156119ad576119ac610948565b5b6119b984828501610d9f565b60a08301525060c06119cd84828501610a91565b60c08301525092915050565b600061016082840312156119f0576119ef6108b7565b5b6119fb61016061092d565b9050600082013567ffffffffffffffff811115611a1b57611a1a610948565b5b611a27848285016109d9565b600083015250602082013567ffffffffffffffff811115611a4b57611a4a610948565b5b611a57848285016109d9565b602083015250604082013567ffffffffffffffff811115611a7b57611a7a610948565b5b611a87848285016109d9565b604083015250606082013567ffffffffffffffff811115611aab57611aaa610948565b5b611ab784828501610f50565b606083015250608082013567ffffffffffffffff811115611adb57611ada610948565b5b611ae7848285016109d9565b60808301525060a082013567ffffffffffffffff811115611b0b57611b0a610948565b5b611b1784828501610aa6565b60a08301525060c082013567ffffffffffffffff811115611b3b57611b3a610948565b5b611b478482850161104c565b60c08301525060e082013567ffffffffffffffff811115611b6b57611b6a610948565b5b611b778482850161184f565b60e08301525061010082013567ffffffffffffffff811115611b9c57611b9b610948565b5b611ba88482850161166c565b6101008301525061012082013567ffffffffffffffff811115611bce57611bcd610948565b5b611bda8482850161187d565b61012083015250610140611bf084828501610a91565b6101408301525092915050565b600060208284031215611c1357611c126108ad565b5b600082013567ffffffffffffffff811115611c3157611c306108b2565b5b611c3d848285016119d9565b91505092915050565b60008060408385031215611c5d57611c5c6108ad565b5b600083013567ffffffffffffffff811115611c7b57611c7a6108b2565b5b611c87858286016119d9565b925050602083013567ffffffffffffffff811115611ca857611ca76108b2565b5b611cb485828601610f22565b9150509250929050565b600081519050919050565b600081905092915050565b60005b83811015611cf2578082015181840152602081019050611cd7565b60008484015250505050565b6000611d0982611cbe565b611d138185611cc9565b9350611d23818560208601611cd4565b80840191505092915050565b6000611d3b8284611cfe565b915081905092915050565b7f4e487b7100000000000000000000000000000000000000000000000000000000600052603260045260246000fd5b7f4e487b7100000000000000000000000000000000000000000000000000000000600052601160045260246000fd5b6000819050919050565b6000611db982611da4565b91507fffffffffffffffffffffffffffffffffffffffffffffffffffffffffffffffff8203611deb57611dea611d75565b5b600182019050919050565b600082825260208201905092915050565b6000611e1282611cbe565b611e1c8185611df6565b9350611e2c818560208601611cd4565b611e35816108bc565b840191505092915050565b600081519050919050565b600082825260208201905092915050565b6000819050602082019050919050565b611e7581610a38565b82525050565b611e8481610a6e565b82525050565b600060a0830160008301518482036000860152611ea78282611e07565b91505060208301518482036020860152611ec18282611e07565b91505060408301518482036040860152611edb8282611e07565b9150506060830151611ef06060860182611e6c565b506080830151611f036080860182611e7b565b508091505092915050565b6000611f1a8383611e8a565b905092915050565b6000602082019050919050565b6000611f3a82611e40565b611f448185611e4b565b935083602082028501611f5685611e5c565b8060005b85811015611f925784840389528151611f738582611f0e565b9450611f7e83611f22565b925060208a01995050600181019050611f5a565b50829750879550505050505092915050565b600081519050919050565b600082825260208201905092915050565b6000819050602082019050919050565b60006060830160008301518482036000860152611fed8282611e07565b915050602083015184820360208601526120078282611e07565b915050604083015161201c6040860182611e7b565b508091505092915050565b600060608301600083015184820360008601526120448282611e07565b9150506020830151848203602086015261205e8282611e07565b91505060408301516120736040860182611e7b565b508091505092915050565b600060a083016000830151848203600086015261209b8282611e07565b915050602083015184820360208601526120b58282611e07565b915050604083015184820360408601526120cf8282611fd0565b915050606083015184820360608601526120e98282612027565b91505060808301516120fe6080860182611e7b565b508091505092915050565b6000612115838361207e565b905092915050565b6000602082019050919050565b600061213582611fa4565b61213f8185611faf565b93508360208202850161215185611fc0565b8060005b8581101561218d578484038952815161216e8582612109565b94506121798361211d565b925060208a01995050600181019050612155565b50829750879550505050505092915050565b600060a08301600083015184820360008601526121bc8282611e07565b915050602083015184820360208601526121d68282611e07565b915050604083015184820360408601526121f08282611f2f565b9150506060830151848203606086015261220a828261212a565b915050608083015161221f6080860182611e7b565b508091505092915050565b600060608301600083015184820360008601526122478282611e07565b915050602083015184820360208601526122618282611e07565b91505060408301516122766040860182611e7b565b508091505092915050565b600081519050919050565b600082825260208201905092915050565b6000819050602082019050919050565b600081519050919050565b600082825260208201905092915050565b6000819050602082019050919050565b600060808301600083015184820360008601526122f68282611e07565b915050602083015184820360208601526123108282611e07565b91505060408301516123256040860182611e6c565b5060608301516123386060860182611e7b565b508091505092915050565b600061234f83836122d9565b905092915050565b6000602082019050919050565b600061236f826122ad565b61237981856122b8565b93508360208202850161238b856122c9565b8060005b858110156123c757848403895281516123a88582612343565b94506123b383612357565b925060208a0199505060018101905061238f565b50829750879550505050505092915050565b600081519050919050565b600082825260208201905092915050565b6000819050602082019050919050565b600081519050919050565b600082825260208201905092915050565b6000819050602082019050919050565b600061243d838361222a565b905092915050565b6000602082019050919050565b600061245d82612405565b6124678185612410565b93508360208202850161247985612421565b8060005b858110156124b557848403895281516124968582612431565b94506124a183612445565b925060208a0199505060018101905061247d565b50829750879550505050505092915050565b600081519050919050565b600082825260208201905092915050565b6000819050602082019050919050565b60006124ff838361219f565b905092915050565b6000602082019050919050565b600061251f826124c7565b61252981856124d2565b93508360208202850161253b856124e3565b8060005b85811015612577578484038952815161255885826124f3565b945061256383612507565b925060208a0199505060018101905061253f565b50829750879550505050505092915050565b600060e08301600083015184820360008601526125a68282611e07565b915050602083015184820360208601526125c08282611e07565b91505060408301516125d56040860182611e6c565b50606083015184820360608601526125ed8282612452565b915050608083015184820360808601526126078282612514565b91505060a083015161261c60a0860182611e6c565b5060c083015161262f60c0860182611e7b565b508091505092915050565b60006126468383612589565b905092915050565b6000602082019050919050565b6000612666826123d9565b61267081856123e4565b935083602082028501612682856123f5565b8060005b858110156126be578484038952815161269f858261263a565b94506126aa8361264e565b925060208a01995050600181019050612686565b50829750879550505050505092915050565b600060e08301600083015184820360008601526126ed8282611e07565b915050602083015184820360208601526127078282611e07565b915050604083015184820360408601526127218282611e8a565b9150506060830151848203606086015261273b828261219f565b915050608083015184820360808601526127558282612364565b91505060a083015184820360a086015261276f828261265b565b91505060c083015161278460c0860182611e7b565b508091505092915050565b600061279b83836126d0565b905092915050565b6000602082019050919050565b60006127bb82612281565b6127c5818561228c565b9350836020820285016127d78561229d565b8060005b8581101561281357848403895281516127f4858261278f565b94506127ff836127a3565b925060208a019950506001810190506127db565b50829750879550505050505092915050565b600060e08301600083015184820360008601526128428282611e07565b9150506020830151848203602086015261285c8282611e07565b915050604083015184820360408601526128768282611e07565b9150506060830151848203606086015261289082826126d0565b915050608083015184820360808601526128aa828261219f565b91505060a083015184820360a08601526128c4828261207e565b91505060c08301516128d960c0860182611e7b565b508091505092915050565b60006101608301600083015184820360008601526129028282611e07565b9150506020830151848203602086015261291c8282611e07565b915050604083015184820360408601526129368282611e07565b91505060608301518482036060860152612950828261219f565b9150506080830151848203608086015261296a8282611e07565b91505060a083015184820360a08601526129848282611e8a565b91505060c083015184820360c086015261299e828261222a565b91505060e083015184820360e08601526129b882826127b0565b9150506101008301518482036101008601526129d482826126d0565b9150506101208301518482036101208601526129f08282612825565b915050610140830151612a07610140860182611e7b565b508091505092915050565b600060029050919050565b600081905092915050565b6000819050919050565b6000612a3e8383611e07565b905092915050565b6000602082019050919050565b6000612a5e82612a12565b612a688185612a1d565b935083602082028501612a7a85612a28565b8060005b85811015612ab65784840389528151612a978582612a32565b9450612aa283612a46565b925060208a01995050600181019050612a7e565b50829750879550505050505092915050565b60006080830160008301518482036000860152612ae582826128e4565b91505060208301518482036020860152612aff8282611e07565b91505060408301518482036040860152612b198282612a53565b91505060608301518482036060860152612b338282611e07565b9150508091505092915050565b60006020820190508181036000830152612b5a8184612ac8565b905092915050565b600060e0830160008301518482036000860152612b7f8282611e07565b91505060208301518482036020860152612b998282611e07565b91505060408301518482036040860152612bb38282611e07565b91505060608301518482036060860152612bcd82826126d0565b91505060808301518482036080860152612be7828261219f565b91505060a083015184820360a0860152612c01828261207e565b91505060c0830151612c1660c0860182611e7b565b508091505092915050565b60006020820190508181036000830152612c3b8184612b62565b90509291505056fea2646970667358221220e77f88506eb676c8888dc86c7c11d3e9c12e9effc55abe4bf99b98bf03e64a3864736f6c63430008110033",
  "immutableReferences": {},
  "source": "// SPDX-License-Identifier: MIT\npragma solidity >=0.4.22 <0.9.0;pragma abicoder v2;\n\n\n\ncontract case2 {\n\n\tconstructor() {}\n\t\n\t\n\tevent ContractResponse(CoverageEligibilityResponse evt);\n\tevent OracleRequest(RequestData request);\n\t\n\t\n\tstruct CoverageEligibilityRequest {\n\t\tstring id;\n\t\tstring status;\n\t\tstring hasType;\n\t\tPatient patient;\n\t\tstring purpose;\n\t\tCondition immuneDeficiencyDisease;\n\t\tPractitioner provider;\n\t\tMedicationRequest[] item;\n\t\tMedicationRequest ivigDrugItem;\n\t\tCoverageEligibilityResponse response;\n\t\tbool exists;\n\t}\n\t\n\tstruct Patient {\n\t\tstring id;\n\t\tstring hasType;\n\t\tCondition[] subjectOf;\n\t\tCoverage[] policyHolderOf;\n\t\tbool exists;\n\t}\n\t\n\tstruct Condition {\n\t\tstring id;\n\t\tstring hasType;\n\t\tstring clinicalStatus;\n\t\tint code;\n\t\tbool exists;\n\t}\n\t\n\tstruct Practitioner {\n\t\tstring id;\n\t\tstring hasType;\n\t\tbool exists;\n\t}\n\t\n\tstruct MedicationRequest {\n\t\tstring id;\n\t\tstring hasType;\n\t\tCondition reason;\n\t\tPatient subject;\n\t\tMedication[] medication;\n\t\tDosage[] dosageInstruction;\n\t\tbool exists;\n\t}\n\t\n\tstruct Medication {\n\t\tstring id;\n\t\tstring hasType;\n\t\tint concept;\n\t\tbool exists;\n\t}\n\t\n\tstruct Dosage {\n\t\tstring id;\n\t\tstring hasType;\n\t\tint route;\n\t\tPractitioner[] requester;\n\t\tPatient[] performer;\n\t\tint method;\n\t\tbool exists;\n\t}\n\t\n\tstruct Coverage {\n\t\tstring id;\n\t\tstring hasType;\n\t\tInsurer insurer;\n\t\tClass class;\n\t\tbool exists;\n\t}\n\t\n\tstruct Insurer {\n\t\tstring id;\n\t\tstring hasType;\n\t\tbool exists;\n\t}\n\t\n\tstruct Class {\n\t\tstring id;\n\t\tstring hasType;\n\t\tbool exists;\n\t}\n\t\n\tstruct CoverageEligibilityResponse {\n\t\tstring id;\n\t\tstring hasType;\n\t\tstring outcome;\n\t\tMedicationRequest request;\n\t\tPatient patient;\n\t\tCoverage covered;\n\t\tbool exists;\n\t}\n\t\n\tstruct RequestData {\n\t\tCoverageEligibilityRequest req;\n\t\tstring resource;\n\t\tstring[2] parameters;\n\t\tstring callback;\n\t}\n\t\n\t\n\tfunction check0(CoverageEligibilityRequest memory req, Dosage[] memory dosageInstructions) private pure returns (bool) {\n\t\tfor (uint i = 0; i < dosageInstructions.length; i++) {\n\t\t\tDosage memory v2 = dosageInstructions[i];\n\t\t\tif (v2.method == 385985008\n\t\t\t\t\t&& v2.performer.length > 0\n\t\t\t\t\t&& v2.requester.length > 0\n\t\t\t\t\t&& v2.route == 255560000) {\n\t\t\t\n\t\t\t\treturn true;\n\t\t\t}\n\t\t}\n\t\treturn false;\n\t}\n\t\n\tfunction check1(CoverageEligibilityRequest memory req, Medication[] memory medications) private pure returns (bool) {\n\t\tfor (uint i = 0; i < medications.length; i++) {\n\t\t\tMedication memory v5 = medications[i];\n\t\t\tif (v5.concept == 243196004) {\n\t\t\t\n\t\t\t\treturn true;\n\t\t\t}\n\t\t}\n\t\treturn false;\n\t}\n\t\n\tfunction check2(CoverageEligibilityRequest memory req, MedicationRequest[] memory items) private pure returns (bool) {\n\t\tfor (uint i = 0; i < items.length; i++) {\n\t\t\tMedicationRequest memory v6 = items[i];\n\t\t\tif (keccak256(abi.encodePacked(v6.id)) == keccak256(abi.encodePacked(req.ivigDrugItem.id))) {\n\t\t\t\n\t\t\t\treturn true;\n\t\t\t}\n\t\t}\n\t\treturn false;\n\t}\n\t\n\tfunction process(CoverageEligibilityRequest memory req) public {\n\t\tif (keccak256(abi.encodePacked(req.purpose)) == keccak256(\"validation\")\n\t\t\t&& req.patient.exists\n\t\t\t&& req.patient.subjectOf.length > 0\n\t\t\t&& keccak256(abi.encodePacked(req.status)) == keccak256(\"active\")) {\n\t\t\n\t\t\tfor (uint i = 0; i < req.patient.subjectOf.length; i++) {\n\t\t\t\tCondition memory v0 = req.patient.subjectOf[i];\n\t\t\t\tif (v0.code == 58606001\n\t\t\t\t\t&& keccak256(abi.encodePacked(v0.clinicalStatus)) == keccak256(\"active\")) {\n\t\t\t\t\n\t\t\t\t\treq.immuneDeficiencyDisease = v0;\n\t\t\t\t}\n\t\t\t}\n\t\t}\n\t\t\n\t\tif (req.immuneDeficiencyDisease.exists\n\t\t\t&& req.item.length > 0\n\t\t\t&& req.provider.exists\n\t\t\t&& req.patient.exists) {\n\t\t\n\t\t\tfor (uint i = 0; i < req.item.length; i++) {\n\t\t\t\tMedicationRequest memory v1 = req.item[i];\n\t\t\t\tif (v1.dosageInstruction.length > 0\n\t\t\t\t\t&& check0(req, v1.dosageInstruction)\n\t\t\t\t\t&& v1.medication.length > 0\n\t\t\t\t\t&& check1(req, v1.medication)\n\t\t\t\t\t&& v1.subject.exists\n\t\t\t\t\t&& v1.reason.exists\n\t\t\t\t\t&& keccak256(abi.encodePacked(v1.reason.id)) == keccak256(abi.encodePacked(req.immuneDeficiencyDisease.id))) {\n\t\t\t\t\n\t\t\t\t\treq.ivigDrugItem = v1;\n\t\t\t\t}\n\t\t\t}\n\t\t}\n\t\t\n\t\tif (req.ivigDrugItem.exists\n\t\t\t&& req.item.length > 0\n\t\t\t&& check2(req, req.item)\n\t\t\t&& req.patient.exists) {\n\t\t\n\t\t\temit OracleRequest(RequestData({ req: req, resource: \"Coverage\", parameters: [ \"policyHolder\", req.patient.id ], callback: \"callback3\" }));\n\t\t}\n\t}\n\t\n\tfunction callback3(CoverageEligibilityRequest memory req, Coverage[] memory results) public {\n\t\tfor (uint i = 0; i < results.length; i++) {\n\t\t\tCoverage memory v7 = results[i];\n\t\t\tif (keccak256(abi.encodePacked(v7.class.hasType)) == keccak256(\"PartB\")\n\t\t\t\t&& keccak256(abi.encodePacked(v7.insurer.hasType)) == keccak256(\"Medicare\")) {\n\t\t\t\n\t\t\t\tCoverageEligibilityResponse memory v8 = CoverageEligibilityResponse({ id: \"123\", hasType: \"123\", outcome: \"complete\", request: req.ivigDrugItem, patient: req.patient, covered: v7, exists: true });\n\t\t\t\treq.response = v8;\n\t\t\t\temit ContractResponse(v8);\n\t\t\t}\n\t\t}\n\t}\n\t\n\t\n}",
  "sourcePath": "/Users/wvw/git/n3/blockiot-cds/smart_code_gen/Local Deployment/contract/contracts/case2.sol",
  "compiler": {
    "name": "solc",
    "version": "0.8.17+commit.8df45f5f.Emscripten.clang"
  },
  "schemaVersion": "3.4.16",
  "updatedAt": "2024-02-25T14:34:55.803Z",
  "devdoc": {
    "kind": "dev",
    "methods": {},
    "version": 1
  },
  "userdoc": {
    "kind": "user",
    "methods": {},
    "version": 1
  }
}